{
  "contracts/Helper.sol": {
    "Helper": {
      "abi": [
        {
          "inputs": [],
          "name": "getCurrentBlockDifficulty",
          "outputs": [
            {
              "internalType": "uint256",
              "name": "",
              "type": "uint256"
            }
          ],
          "stateMutability": "view",
          "type": "function"
        },
        {
          "inputs": [],
          "name": "getCurrentBlockGasLimit",
          "outputs": [
            {
              "internalType": "uint256",
              "name": "",
              "type": "uint256"
            }
          ],
          "stateMutability": "view",
          "type": "function"
        },
        {
          "inputs": [],
          "name": "getCurrentBlockNumber",
          "outputs": [
            {
              "internalType": "uint256",
              "name": "",
              "type": "uint256"
            }
          ],
          "stateMutability": "view",
          "type": "function"
        },
        {
          "inputs": [],
          "name": "getCurrentBlockTimestamp",
          "outputs": [
            {
              "internalType": "uint256",
              "name": "",
              "type": "uint256"
            }
          ],
          "stateMutability": "view",
          "type": "function"
        }
      ],
      "evm": {
        "bytecode": {
          "linkReferences": {},
          "object": "6080604052348015600f57600080fd5b5060a480601d6000396000f3fe6080604052348015600f57600080fd5b506004361060465760003560e01c80630f28c97d14604b5780636fd902e114605f57806372425d9d14606457806386d516e8146069575b600080fd5b425b60405190815260200160405180910390f35b43604d565b44604d565b45604d56fea2646970667358221220d0c3b2eae4eeaf045a1b99d0cdf0ed02cc99f148754a0cde1df92c5d1566c44464736f6c634300081c0033",
          "opcodes": "PUSH1 0x80 PUSH1 0x40 MSTORE CALLVALUE DUP1 ISZERO PUSH1 0xF JUMPI PUSH1 0x0 DUP1 REVERT JUMPDEST POP PUSH1 0xA4 DUP1 PUSH1 0x1D PUSH1 0x0 CODECOPY PUSH1 0x0 RETURN INVALID PUSH1 0x80 PUSH1 0x40 MSTORE CALLVALUE DUP1 ISZERO PUSH1 0xF JUMPI PUSH1 0x0 DUP1 REVERT JUMPDEST POP PUSH1 0x4 CALLDATASIZE LT PUSH1 0x46 JUMPI PUSH1 0x0 CALLDATALOAD PUSH1 0xE0 SHR DUP1 PUSH4 0xF28C97D EQ PUSH1 0x4B JUMPI DUP1 PUSH4 0x6FD902E1 EQ PUSH1 0x5F JUMPI DUP1 PUSH4 0x72425D9D EQ PUSH1 0x64 JUMPI DUP1 PUSH4 0x86D516E8 EQ PUSH1 0x69 JUMPI JUMPDEST PUSH1 0x0 DUP1 REVERT JUMPDEST TIMESTAMP JUMPDEST PUSH1 0x40 MLOAD SWAP1 DUP2 MSTORE PUSH1 0x20 ADD PUSH1 0x40 MLOAD DUP1 SWAP2 SUB SWAP1 RETURN JUMPDEST NUMBER PUSH1 0x4D JUMP JUMPDEST PREVRANDAO PUSH1 0x4D JUMP JUMPDEST GASLIMIT PUSH1 0x4D JUMP INVALID LOG2 PUSH5 0x6970667358 0x22 SLT KECCAK256 0xD0 0xC3 0xB2 0xEA 0xE4 0xEE 0xAF DIV GAS SHL SWAP10 0xD0 0xCD CREATE 0xED MUL 0xCC SWAP10 CALL BASEFEE PUSH22 0x4A0CDE1DF92C5D1566C44464736F6C634300081C0033 "
        },
        "methodIdentifiers": {
          "getCurrentBlockDifficulty()": "72425d9d",
          "getCurrentBlockGasLimit()": "86d516e8",
          "getCurrentBlockNumber()": "6fd902e1",
          "getCurrentBlockTimestamp()": "0f28c97d"
        }
      }
    }
  }
}