{
  "contracts/Escrow.sol": {
    "Escrow": {
      "abi": [
        {
          "inputs": [
            {
              "internalType": "address",
              "name": "_accessManager",
              "type": "address"
            }
          ],
          "stateMutability": "nonpayable",
          "type": "constructor"
        },
        {
          "inputs": [],
          "name": "EnforcedPause",
          "type": "error"
        },
        {
          "inputs": [],
          "name": "ExpectedPause",
          "type": "error"
        },
        {
          "inputs": [],
          "name": "ReentrancyGuardReentrantCall",
          "type": "error"
        },
        {
          "anonymous": false,
          "inputs": [
            {
              "indexed": true,
              "internalType": "uint256",
              "name": "agreementId",
              "type": "uint256"
            }
          ],
          "name": "AgreementCancelled",
          "type": "event"
        },
        {
          "anonymous": false,
          "inputs": [
            {
              "indexed": true,
              "internalType": "uint256",
              "name": "agreementId",
              "type": "uint256"
            },
            {
              "indexed": true,
              "internalType": "address",
              "name": "client",
              "type": "address"
            },
            {
              "indexed": true,
              "internalType": "address",
              "name": "creator",
              "type": "address"
            },
            {
              "indexed": false,
              "internalType": "uint256",
              "name": "totalAmount",
              "type": "uint256"
            }
          ],
          "name": "AgreementCreated",
          "type": "event"
        },
        {
          "anonymous": false,
          "inputs": [
            {
              "indexed": true,
              "internalType": "uint256",
              "name": "agreementId",
              "type": "uint256"
            },
            {
              "indexed": false,
              "internalType": "uint256",
              "name": "disputeId",
              "type": "uint256"
            },
            {
              "indexed": false,
              "internalType": "string",
              "name": "reason",
              "type": "string"
            }
          ],
          "name": "AgreementDisputed",
          "type": "event"
        },
        {
          "anonymous": false,
          "inputs": [
            {
              "indexed": true,
              "internalType": "uint256",
              "name": "agreementId",
              "type": "uint256"
            },
            {
              "indexed": false,
              "internalType": "uint256",
              "name": "amount",
              "type": "uint256"
            }
          ],
          "name": "AgreementFunded",
          "type": "event"
        },
        {
          "anonymous": false,
          "inputs": [
            {
              "indexed": true,
              "internalType": "uint256",
              "name": "disputeId",
              "type": "uint256"
            },
            {
              "indexed": false,
              "internalType": "uint256",
              "name": "agreementId",
              "type": "uint256"
            },
            {
              "indexed": false,
              "internalType": "address",
              "name": "winner",
              "type": "address"
            }
          ],
          "name": "DisputeResolved",
          "type": "event"
        },
        {
          "anonymous": false,
          "inputs": [
            {
              "indexed": true,
              "internalType": "uint256",
              "name": "agreementId",
              "type": "uint256"
            },
            {
              "indexed": false,
              "internalType": "uint256",
              "name": "amount",
              "type": "uint256"
            },
            {
              "indexed": false,
              "internalType": "address",
              "name": "recipient",
              "type": "address"
            }
          ],
          "name": "FundsReleased",
          "type": "event"
        },
        {
          "anonymous": false,
          "inputs": [
            {
              "indexed": true,
              "internalType": "uint256",
              "name": "agreementId",
              "type": "uint256"
            },
            {
              "indexed": false,
              "internalType": "uint256",
              "name": "milestoneIndex",
              "type": "uint256"
            },
            {
              "indexed": false,
              "internalType": "string",
              "name": "description",
              "type": "string"
            },
            {
              "indexed": false,
              "internalType": "uint256",
              "name": "amount",
              "type": "uint256"
            }
          ],
          "name": "MilestoneAdded",
          "type": "event"
        },
        {
          "anonymous": false,
          "inputs": [
            {
              "indexed": true,
              "internalType": "uint256",
              "name": "agreementId",
              "type": "uint256"
            },
            {
              "indexed": false,
              "internalType": "uint256",
              "name": "milestoneIndex",
              "type": "uint256"
            }
          ],
          "name": "MilestoneApproved",
          "type": "event"
        },
        {
          "anonymous": false,
          "inputs": [
            {
              "indexed": true,
              "internalType": "uint256",
              "name": "agreementId",
              "type": "uint256"
            },
            {
              "indexed": false,
              "internalType": "uint256",
              "name": "milestoneIndex",
              "type": "uint256"
            }
          ],
          "name": "MilestoneCompleted",
          "type": "event"
        },
        {
          "anonymous": false,
          "inputs": [
            {
              "indexed": true,
              "internalType": "uint256",
              "name": "agreementId",
              "type": "uint256"
            },
            {
              "indexed": false,
              "internalType": "uint256",
              "name": "milestoneIndex",
              "type": "uint256"
            },
            {
              "indexed": false,
              "internalType": "string",
              "name": "reason",
              "type": "string"
            }
          ],
          "name": "MilestoneRejected",
          "type": "event"
        },
        {
          "anonymous": false,
          "inputs": [
            {
              "indexed": false,
              "internalType": "address",
              "name": "account",
              "type": "address"
            }
          ],
          "name": "Paused",
          "type": "event"
        },
        {
          "anonymous": false,
          "inputs": [
            {
              "indexed": true,
              "internalType": "uint256",
              "name": "agreementId",
              "type": "uint256"
            },
            {
              "indexed": false,
              "internalType": "string",
              "name": "telegramChatId",
              "type": "string"
            }
          ],
          "name": "TelegramDealCreated",
          "type": "event"
        },
        {
          "anonymous": false,
          "inputs": [
            {
              "indexed": false,
              "internalType": "address",
              "name": "account",
              "type": "address"
            }
          ],
          "name": "Unpaused",
          "type": "event"
        },
        {
          "anonymous": false,
          "inputs": [
            {
              "indexed": true,
              "internalType": "address",
              "name": "user",
              "type": "address"
            },
            {
              "indexed": false,
              "internalType": "uint256",
              "name": "reputationScore",
              "type": "uint256"
            },
            {
              "indexed": false,
              "internalType": "enum Escrow.BadgeLevel",
              "name": "badgeLevel",
              "type": "uint8"
            }
          ],
          "name": "UserProfileUpdated",
          "type": "event"
        },
        {
          "inputs": [],
          "name": "accessManager",
          "outputs": [
            {
              "internalType": "contract AccessManager",
              "name": "",
              "type": "address"
            }
          ],
          "stateMutability": "view",
          "type": "function"
        },
        {
          "inputs": [
            {
              "internalType": "uint256",
              "name": "_agreementId",
              "type": "uint256"
            },
            {
              "internalType": "string",
              "name": "_description",
              "type": "string"
            },
            {
              "internalType": "uint256",
              "name": "_amount",
              "type": "uint256"
            }
          ],
          "name": "addMilestone",
          "outputs": [],
          "stateMutability": "nonpayable",
          "type": "function"
        },
        {
          "inputs": [
            {
              "internalType": "uint256",
              "name": "",
              "type": "uint256"
            }
          ],
          "name": "agreements",
          "outputs": [
            {
              "internalType": "address",
              "name": "client",
              "type": "address"
            },
            {
              "internalType": "address",
              "name": "creator",
              "type": "address"
            },
            {
              "internalType": "string",
              "name": "description",
              "type": "string"
            },
            {
              "internalType": "uint256",
              "name": "totalAmount",
              "type": "uint256"
            },
            {
              "internalType": "uint256",
              "name": "platformFee",
              "type": "uint256"
            },
            {
              "internalType": "uint256",
              "name": "createdAt",
              "type": "uint256"
            },
            {
              "internalType": "uint256",
              "name": "deadline",
              "type": "uint256"
            },
            {
              "internalType": "enum Escrow.AgreementStatus",
              "name": "status",
              "type": "uint8"
            },
            {
              "internalType": "uint256",
              "name": "fundedAmount",
              "type": "uint256"
            },
            {
              "internalType": "uint256",
              "name": "releasedAmount",
              "type": "uint256"
            },
            {
              "internalType": "uint256",
              "name": "disputeId",
              "type": "uint256"
            },
            {
              "internalType": "bool",
              "name": "isTelegramDeal",
              "type": "bool"
            },
            {
              "internalType": "string",
              "name": "telegramChatId",
              "type": "string"
            }
          ],
          "stateMutability": "view",
          "type": "function"
        },
        {
          "inputs": [
            {
              "internalType": "uint256",
              "name": "_agreementId",
              "type": "uint256"
            },
            {
              "internalType": "uint256",
              "name": "_milestoneIndex",
              "type": "uint256"
            }
          ],
          "name": "approveMilestone",
          "outputs": [],
          "stateMutability": "nonpayable",
          "type": "function"
        },
        {
          "inputs": [
            {
              "internalType": "uint256",
              "name": "_disputeId",
              "type": "uint256"
            },
            {
              "internalType": "address",
              "name": "_arbitrator",
              "type": "address"
            }
          ],
          "name": "assignArbitrator",
          "outputs": [],
          "stateMutability": "nonpayable",
          "type": "function"
        },
        {
          "inputs": [
            {
              "internalType": "uint256",
              "name": "_agreementId",
              "type": "uint256"
            }
          ],
          "name": "cancelAgreement",
          "outputs": [],
          "stateMutability": "nonpayable",
          "type": "function"
        },
        {
          "inputs": [
            {
              "internalType": "uint256",
              "name": "_agreementId",
              "type": "uint256"
            },
            {
              "internalType": "uint256",
              "name": "_milestoneIndex",
              "type": "uint256"
            }
          ],
          "name": "completeMilestone",
          "outputs": [],
          "stateMutability": "nonpayable",
          "type": "function"
        },
        {
          "inputs": [],
          "name": "configManager",
          "outputs": [
            {
              "internalType": "contract ConfigManager",
              "name": "",
              "type": "address"
            }
          ],
          "stateMutability": "view",
          "type": "function"
        },
        {
          "inputs": [
            {
              "internalType": "address",
              "name": "_creator",
              "type": "address"
            },
            {
              "internalType": "string",
              "name": "_description",
              "type": "string"
            },
            {
              "internalType": "uint256",
              "name": "_deadline",
              "type": "uint256"
            },
            {
              "internalType": "bool",
              "name": "_isTelegramDeal",
              "type": "bool"
            },
            {
              "internalType": "string",
              "name": "_telegramChatId",
              "type": "string"
            }
          ],
          "name": "createAgreement",
          "outputs": [
            {
              "internalType": "uint256",
              "name": "",
              "type": "uint256"
            }
          ],
          "stateMutability": "nonpayable",
          "type": "function"
        },
        {
          "inputs": [
            {
              "internalType": "uint256",
              "name": "",
              "type": "uint256"
            }
          ],
          "name": "disputeArbitrators",
          "outputs": [
            {
              "internalType": "address",
              "name": "",
              "type": "address"
            }
          ],
          "stateMutability": "view",
          "type": "function"
        },
        {
          "inputs": [],
          "name": "feeCollector",
          "outputs": [
            {
              "internalType": "address",
              "name": "",
              "type": "address"
            }
          ],
          "stateMutability": "view",
          "type": "function"
        },
        {
          "inputs": [
            {
              "internalType": "uint256",
              "name": "_agreementId",
              "type": "uint256"
            }
          ],
          "name": "fundAgreement",
          "outputs": [],
          "stateMutability": "payable",
          "type": "function"
        },
        {
          "inputs": [
            {
              "internalType": "uint256",
              "name": "_agreementId",
              "type": "uint256"
            }
          ],
          "name": "getAgreement",
          "outputs": [
            {
              "internalType": "address",
              "name": "client",
              "type": "address"
            },
            {
              "internalType": "address",
              "name": "creator",
              "type": "address"
            },
            {
              "internalType": "string",
              "name": "description",
              "type": "string"
            },
            {
              "internalType": "uint256",
              "name": "totalAmount",
              "type": "uint256"
            },
            {
              "internalType": "uint256",
              "name": "platformFee",
              "type": "uint256"
            },
            {
              "internalType": "uint256",
              "name": "createdAt",
              "type": "uint256"
            },
            {
              "internalType": "uint256",
              "name": "deadline",
              "type": "uint256"
            },
            {
              "internalType": "enum Escrow.AgreementStatus",
              "name": "status",
              "type": "uint8"
            },
            {
              "internalType": "uint256",
              "name": "fundedAmount",
              "type": "uint256"
            },
            {
              "internalType": "uint256",
              "name": "releasedAmount",
              "type": "uint256"
            },
            {
              "internalType": "uint256",
              "name": "disputeId",
              "type": "uint256"
            },
            {
              "internalType": "uint256",
              "name": "milestonesCount",
              "type": "uint256"
            }
          ],
          "stateMutability": "view",
          "type": "function"
        },
        {
          "inputs": [
            {
              "internalType": "uint256",
              "name": "_agreementId",
              "type": "uint256"
            }
          ],
          "name": "getAllMilestones",
          "outputs": [
            {
              "internalType": "string[]",
              "name": "descriptions",
              "type": "string[]"
            },
            {
              "internalType": "uint256[]",
              "name": "amounts",
              "type": "uint256[]"
            },
            {
              "internalType": "enum Escrow.MilestoneStatus[]",
              "name": "statuses",
              "type": "uint8[]"
            },
            {
              "internalType": "uint256[]",
              "name": "completionTimes",
              "type": "uint256[]"
            }
          ],
          "stateMutability": "view",
          "type": "function"
        },
        {
          "inputs": [
            {
              "internalType": "uint256",
              "name": "_agreementId",
              "type": "uint256"
            },
            {
              "internalType": "uint256",
              "name": "_milestoneIndex",
              "type": "uint256"
            }
          ],
          "name": "getMilestone",
          "outputs": [
            {
              "internalType": "string",
              "name": "description",
              "type": "string"
            },
            {
              "internalType": "uint256",
              "name": "amount",
              "type": "uint256"
            },
            {
              "internalType": "enum Escrow.MilestoneStatus",
              "name": "status",
              "type": "uint8"
            },
            {
              "internalType": "uint256",
              "name": "completionTime",
              "type": "uint256"
            }
          ],
          "stateMutability": "view",
          "type": "function"
        },
        {
          "inputs": [
            {
              "internalType": "address",
              "name": "user",
              "type": "address"
            }
          ],
          "name": "getUserReputationScore",
          "outputs": [
            {
              "internalType": "uint256",
              "name": "",
              "type": "uint256"
            }
          ],
          "stateMutability": "view",
          "type": "function"
        },
        {
          "inputs": [
            {
              "internalType": "uint256",
              "name": "_agreementId",
              "type": "uint256"
            },
            {
              "internalType": "string",
              "name": "_reason",
              "type": "string"
            }
          ],
          "name": "initiateDispute",
          "outputs": [],
          "stateMutability": "nonpayable",
          "type": "function"
        },
        {
          "inputs": [],
          "name": "pause",
          "outputs": [],
          "stateMutability": "nonpayable",
          "type": "function"
        },
        {
          "inputs": [],
          "name": "paused",
          "outputs": [
            {
              "internalType": "bool",
              "name": "",
              "type": "bool"
            }
          ],
          "stateMutability": "view",
          "type": "function"
        },
        {
          "inputs": [],
          "name": "platformFeePercent",
          "outputs": [
            {
              "internalType": "uint256",
              "name": "",
              "type": "uint256"
            }
          ],
          "stateMutability": "view",
          "type": "function"
        },
        {
          "inputs": [
            {
              "internalType": "uint256",
              "name": "_agreementId",
              "type": "uint256"
            },
            {
              "internalType": "uint256",
              "name": "_milestoneIndex",
              "type": "uint256"
            },
            {
              "internalType": "string",
              "name": "_reason",
              "type": "string"
            }
          ],
          "name": "rejectMilestone",
          "outputs": [],
          "stateMutability": "nonpayable",
          "type": "function"
        },
        {
          "inputs": [
            {
              "internalType": "uint256",
              "name": "_disputeId",
              "type": "uint256"
            },
            {
              "internalType": "uint256",
              "name": "_agreementId",
              "type": "uint256"
            },
            {
              "internalType": "address",
              "name": "_winner",
              "type": "address"
            },
            {
              "internalType": "uint256[]",
              "name": "_refundAmounts",
              "type": "uint256[]"
            }
          ],
          "name": "resolveDispute",
          "outputs": [],
          "stateMutability": "nonpayable",
          "type": "function"
        },
        {
          "inputs": [],
          "name": "unpause",
          "outputs": [],
          "stateMutability": "nonpayable",
          "type": "function"
        },
        {
          "inputs": [
            {
              "internalType": "address",
              "name": "_newFeeCollector",
              "type": "address"
            }
          ],
          "name": "updateFeeCollector",
          "outputs": [],
          "stateMutability": "nonpayable",
          "type": "function"
        },
        {
          "inputs": [
            {
              "internalType": "uint256",
              "name": "_newFeePercent",
              "type": "uint256"
            }
          ],
          "name": "updatePlatformFee",
          "outputs": [],
          "stateMutability": "nonpayable",
          "type": "function"
        },
        {
          "inputs": [
            {
              "internalType": "address",
              "name": "",
              "type": "address"
            }
          ],
          "name": "userProfiles",
          "outputs": [
            {
              "internalType": "uint256",
              "name": "totalDeals",
              "type": "uint256"
            },
            {
              "internalType": "uint256",
              "name": "successfulDeals",
              "type": "uint256"
            },
            {
              "internalType": "uint256",
              "name": "totalVolume",
              "type": "uint256"
            },
            {
              "internalType": "uint256",
              "name": "reputationScore",
              "type": "uint256"
            },
            {
              "internalType": "enum Escrow.BadgeLevel",
              "name": "badgeLevel",
              "type": "uint8"
            },
            {
              "internalType": "uint256",
              "name": "lastActive",
              "type": "uint256"
            }
          ],
          "stateMutability": "view",
          "type": "function"
        }
      ],
      "evm": {
        "bytecode": {
          "linkReferences": {},
          "object": "6080604052600160035560016004556002600555348015601e57600080fd5b5060405161385d38038061385d833981016040819052603b91608a565b60016000819055600280546001600160a01b039093166001600160a01b03199384168117909155815461010091909102610100600160a81b0319909116179055600680549091163317905560b8565b600060208284031215609b57600080fd5b81516001600160a01b038116811460b157600080fd5b9392505050565b613796806100c76000396000f3fe6080604052600436106101815760003560e01c80638ed9895c116100d1578063c32429871161008a578063d2c35ce811610064578063d2c35ce81461051a578063d919ff8a1461053a578063f326206b1461055a578063fdcb60681461057a57600080fd5b8063c324298714610487578063c415b95c146104d5578063ca0ab075146104f557600080fd5b80638ed9895c1461037557806398df912e146103a5578063a0b2389b146103c5578063a4e2ea0b146103f5578063aa0b59881461042e578063bd14de961461044e57600080fd5b80635686b54b1161013e5780635c975abb116101185780635c975abb146103075780636e2a373a1461032a5780638456cb591461034a5780638c639a851461035f57600080fd5b80635686b54b1461029957806356d45466146102b957806357542528146102d957600080fd5b80630a888fe41461018657806320913da51461019b578063260eb725146101bb578063332d56d7146101db5780633f4ba83a1461024c5780634f9f6fe614610261575b600080fd5b610199610194366004612c3f565b61059a565b005b3480156101a757600080fd5b506101996101b6366004612c58565b610844565b3480156101c757600080fd5b506101996101d6366004612c96565b610be1565b3480156101e757600080fd5b506102316101f6366004612cc2565b600960205260009081526040902080546001820154600283015460038401546004850154600590950154939492939192909160ff9091169086565b60405161024396959493929190612d0d565b60405180910390f35b34801561025857600080fd5b50610199610d5d565b34801561026d57600080fd5b5061028161027c366004612c3f565b610e5f565b6040516102439c9b9a99989796959493929190612d9a565b3480156102a557600080fd5b506101996102b4366004612c3f565b610fad565b3480156102c557600080fd5b506101996102d4366004612e62565b611272565b3480156102e557600080fd5b506102f96102f4366004612fb2565b611719565b604051908152602001610243565b34801561031357600080fd5b5060015460ff166040519015158152602001610243565b34801561033657600080fd5b50610199610345366004613046565b611915565b34801561035657600080fd5b50610199611a95565b34801561036b57600080fd5b506102f960055481565b34801561038157600080fd5b50610395610390366004612c58565b611b95565b60405161024394939291906130a5565b3480156103b157600080fd5b506101996103c03660046130dc565b611cb5565b3480156103d157600080fd5b506103e56103e0366004612c3f565b611f32565b60405161024394939291906131a2565b34801561040157600080fd5b506102f9610410366004612cc2565b6001600160a01b031660009081526009602052604090206003015490565b34801561043a57600080fd5b50610199610449366004612c3f565b6121ea565b34801561045a57600080fd5b5061046e610469366004612c3f565b612338565b6040516102439d9c9b9a99989796959493929190613244565b34801561049357600080fd5b506104bd6104a2366004612c3f565b6008602052600090815260409020546001600160a01b031681565b6040516001600160a01b039091168152602001610243565b3480156104e157600080fd5b506006546104bd906001600160a01b031681565b34801561050157600080fd5b506001546104bd9061010090046001600160a01b031681565b34801561052657600080fd5b50610199610535366004612cc2565b6124ce565b34801561054657600080fd5b506101996105553660046132e2565b61263e565b34801561056657600080fd5b50610199610575366004612c58565b6127b0565b34801561058657600080fd5b506002546104bd906001600160a01b031681565b60008181526007602052604090205481906001600160a01b031633146105db5760405162461bcd60e51b81526004016105d290613328565b60405180910390fd5b6105e3612939565b6105eb612963565b600082815260076020526040812090600782015460ff16600581111561061357610613612ce4565b148061063757506001600782015460ff16600581111561063557610635612ce4565b145b6106925760405162461bcd60e51b815260206004820152602660248201527f43616e6e6f742066756e642061677265656d656e7420696e2063757272656e7460448201526520737461746560d01b60648201526084016105d2565b600034116106f05760405162461bcd60e51b815260206004820152602560248201527f46756e64696e6720616d6f756e74206d75737420626520677265617465722074604482015264068616e20360dc1b60648201526084016105d2565b60006064600554346107029190613380565b61070c919061339d565b9050600061071a82346133bf565b90508083600801600082825461073091906133d2565b925050819055508183600401600082825461074b91906133d2565b909155505060078301805460ff191660011790556006546040516000916001600160a01b03169084908381818185875af1925050503d80600081146107ac576040519150601f19603f3d011682016040523d82523d6000602084013e6107b1565b606091505b50509050806107f85760405162461bcd60e51b8152602060048201526013602482015272119959481d1c985b9cd9995c8819985a5b1959606a1b60448201526064016105d2565b857fce24c0ae1d73d57cf2e6d1d90b94b11b288e5cfb1c0aa6e7f8ed3391f0c0f0213460405161082a91815260200190565b60405180910390a2505050506108406001600055565b5050565b60008281526007602052604090205482906001600160a01b0316331461087c5760405162461bcd60e51b81526004016105d290613328565b610884612939565b61088c612963565b60008381526007602052604090206001600782015460ff1660058111156108b5576108b5612ce4565b146108d25760405162461bcd60e51b81526004016105d2906133e5565b600b81015483106108f55760405162461bcd60e51b81526004016105d29061341c565b600081600b01848154811061090c5761090c613453565b600091825260208220600690910201915060028083015460ff169081111561093657610936612ce4565b146109535760405162461bcd60e51b81526004016105d290613469565b60008160030154116109775760405162461bcd60e51b81526004016105d2906134a0565b8060010154826008015410156109cf5760405162461bcd60e51b815260206004820152601c60248201527f496e73756666696369656e742066756e647320696e20657363726f770000000060448201526064016105d2565b60028101805460ff191660019081179091558101546008830180546000906109f89084906133bf565b90915550506001810154600983018054600090610a169084906133d2565b9091555050600182810154908201546040516000926001600160a01b031691908381818185875af1925050503d8060008114610a6e576040519150601f19603f3d011682016040523d82523d6000602084013e610a73565b606091505b5050905080610abb5760405162461bcd60e51b8152602060048201526014602482015273119d5b99081d1c985b9cd9995c8819985a5b195960621b60448201526064016105d2565b857f939da3b627c123c81fe5aacebf925163337a0d4f8a03724640618078cad2489486604051610aed91815260200190565b60405180910390a260018281015490840154604080519283526001600160a01b03909116602083015287917f807158a396c8ce26fb6a4a44930e1b49876133ba7806dbaac491ea4713e4515e910160405180910390a2600160005b600b850154811015610ba957600185600b018281548110610b6b57610b6b613453565b60009182526020909120600260069092020181015460ff1690811115610b9357610b93612ce4565b14610ba15760009150610ba9565b600101610b48565b50808015610bb957506008840154155b15610bce5760078401805460ff191660041790555b50505050610bdc6001600055565b505050565b6002546040805163a217fddf60e01b815290516001600160a01b03909216916391d1485491839163a217fddf916004808201926020929091908290030181865afa158015610c33573d6000803e3d6000fd5b505050506040513d601f19601f82011682018060405250810190610c5791906134e1565b6040516001600160e01b031960e084901b1681526004810191909152336024820152604401602060405180830381865afa158015610c99573d6000803e3d6000fd5b505050506040513d601f19601f82011682018060405250810190610cbd91906134fa565b610cd95760405162461bcd60e51b81526004016105d290613517565b6001600160a01b038116610d2f5760405162461bcd60e51b815260206004820152601a60248201527f496e76616c69642061726269747261746f72206164647265737300000000000060448201526064016105d2565b60009182526008602052604090912080546001600160a01b0319166001600160a01b03909216919091179055565b6002546040805163a217fddf60e01b815290516001600160a01b03909216916391d1485491839163a217fddf916004808201926020929091908290030181865afa158015610daf573d6000803e3d6000fd5b505050506040513d601f19601f82011682018060405250810190610dd391906134e1565b6040516001600160e01b031960e084901b1681526004810191909152336024820152604401602060405180830381865afa158015610e15573d6000803e3d6000fd5b505050506040513d601f19601f82011682018060405250810190610e3991906134fa565b610e555760405162461bcd60e51b81526004016105d290613517565b610e5d612987565b565b6000806060600080600080600080600080600080600760008f815260200190815260200160002090508060000160009054906101000a90046001600160a01b03168160010160009054906101000a90046001600160a01b03168260020183600301548460040154856005015486600601548760070160009054906101000a900460ff16886008015489600901548a600a01548b600b0180549050898054610f059061353a565b80601f0160208091040260200160405190810160405280929190818152602001828054610f319061353a565b8015610f7e5780601f10610f5357610100808354040283529160200191610f7e565b820191906000526020600020905b815481529060010190602001808311610f6157829003601f168201915b505050505099509c509c509c509c509c509c509c509c509c509c509c509c505091939597999b5091939597999b565b60008181526007602052604090205481906001600160a01b0316331480610fed57506000818152600760205260409020600101546001600160a01b031633145b6110095760405162461bcd60e51b81526004016105d290613574565b611011612963565b600082815260076020526040812090600782015460ff16600581111561103957611039612ce4565b148061105d57506001600782015460ff16600581111561105b5761105b612ce4565b145b6110ba5760405162461bcd60e51b815260206004820152602860248201527f43616e6e6f742063616e63656c2061677265656d656e7420696e2063757272656044820152676e7420737461746560c01b60648201526084016105d2565b6000805b600b83015481101561111f57600183600b0182815481106110e1576110e1613453565b60009182526020909120600260069092020181015460ff169081111561110957611109612ce4565b03611117576001915061111f565b6001016110be565b5080156111875760405162461bcd60e51b815260206004820152603060248201527f43616e6e6f742063616e63656c2061677265656d656e7420776974682061707060448201526f726f766564206d696c6573746f6e657360801b60648201526084016105d2565b60088201541561123257815460088301546040516000926001600160a01b031691908381818185875af1925050503d80600081146111e1576040519150601f19603f3d011682016040523d82523d6000602084013e6111e6565b606091505b50509050806112305760405162461bcd60e51b81526020600482015260166024820152751499599d5b99081d1c985b9cd9995c8819985a5b195960521b60448201526064016105d2565b505b60078201805460ff1916600517905560405184907f0cae0523c4d6568388c55dcaeb921d927527a60000ca46adffedddf87225f0ec90600090a250505050565b600254604051639f6bd2a960e01b815233600482015285916001600160a01b031690639f6bd2a990602401602060405180830381865afa1580156112ba573d6000803e3d6000fd5b505050506040513d601f19601f820116820180604052508101906112de91906134fa565b61131e5760405162461bcd60e51b81526020600482015260116024820152702737ba1030b71030b93134ba3930ba37b960791b60448201526064016105d2565b60008481526007602052604090206003600782015460ff16600581111561134757611347612ce4565b146113945760405162461bcd60e51b815260206004820152601f60248201527f41677265656d656e74206e6f7420696e2064697370757465642073746174650060448201526064016105d2565b8581600a0154146113dd5760405162461bcd60e51b8152602060048201526013602482015272088d2e6e0eae8ca40928840dad2e6dac2e8c6d606b1b60448201526064016105d2565b80546001600160a01b0385811691161480611407575060018101546001600160a01b038581169116145b6114535760405162461bcd60e51b815260206004820181905260248201527f57696e6e6572206d75737420626520636c69656e74206f722063726561746f7260448201526064016105d2565b6000805b845181101561148f5784818151811061147257611472613453565b60200260200101518261148591906133d2565b9150600101611457565b5081600801548111156114f25760405162461bcd60e51b815260206004820152602560248201527f526566756e6420616d6f756e74206578636565647320617661696c61626c652060448201526466756e647360d81b60648201526084016105d2565b81546001600160a01b03908116908616036115c25781546040516000916001600160a01b03169083908381818185875af1925050503d8060008114611553576040519150601f19603f3d011682016040523d82523d6000602084013e611558565b606091505b50509050806115a25760405162461bcd60e51b81526020600482015260166024820152751499599d5b99081d1c985b9cd9995c8819985a5b195960521b60448201526064016105d2565b818360080160008282546115b691906133bf565b9091555061169d915050565b60018201546040516000916001600160a01b03169083908381818185875af1925050503d8060008114611611576040519150601f19603f3d011682016040523d82523d6000602084013e611616565b606091505b50509050806116675760405162461bcd60e51b815260206004820152601760248201527f5061796d656e74207472616e73666572206661696c656400000000000000000060448201526064016105d2565b8183600801600082825461167b91906133bf565b925050819055508183600901600082825461169691906133d2565b9091555050505b81600801546000036116bd5760078201805460ff191660041790556116cd565b60078201805460ff191660011790555b604080518781526001600160a01b038716602082015288917f653e6c047dd65627873719eef14c02d5e2b4b0b6271f9c9df08fa5b06107d579910160405180910390a250505050505050565b60006001600160a01b0386166117715760405162461bcd60e51b815260206004820152601760248201527f496e76616c69642063726561746f72206164647265737300000000000000000060448201526064016105d2565b336001600160a01b038716036117d75760405162461bcd60e51b815260206004820152602560248201527f436c69656e7420616e642063726561746f722063616e6e6f74206265207468656044820152642073616d6560d81b60648201526084016105d2565b60038054600091826117e8836135c1565b9091555060008181526007602052604090208054336001600160a01b03199182161782556001820180549091166001600160a01b038b16179055909150600281016118338882613628565b504260058201556006810186905560078101805460ff19908116909155600c82018054909116861515179055600d810161186d8582613628565b5061187c3389600060016129d9565b876001600160a01b0316336001600160a01b0316837fa3019c2118d1f0fbc2b78ed5c045ac5b0d67e76749d5dca1d62037c1f15e4b1660006040516118c391815260200190565b60405180910390a4841561190a57817f1aac851516327516022258cf2888076afbb16be0ade1d5e81ada634327fdeb1c8560405161190191906136e6565b60405180910390a25b509695505050505050565b60008381526007602052604090205483906001600160a01b0316331461194d5760405162461bcd60e51b81526004016105d290613328565b611955612963565b60008481526007602052604090206001600782015460ff16600581111561197e5761197e612ce4565b1461199b5760405162461bcd60e51b81526004016105d2906133e5565b600b81015484106119be5760405162461bcd60e51b81526004016105d29061341c565b600081600b0185815481106119d5576119d5613453565b600091825260208220600690910201915060028083015460ff16908111156119ff576119ff612ce4565b14611a1c5760405162461bcd60e51b81526004016105d290613469565b6000816003015411611a405760405162461bcd60e51b81526004016105d2906134a0565b6002818101805460ff19166001830217905550857f2632a738857d774f3179abee0fa205787aea133c8f6d4cbfe4e605028d3e82308686604051611a859291906136f9565b60405180910390a2505050505050565b6002546040805163a217fddf60e01b815290516001600160a01b03909216916391d1485491839163a217fddf916004808201926020929091908290030181865afa158015611ae7573d6000803e3d6000fd5b505050506040513d601f19601f82011682018060405250810190611b0b91906134e1565b6040516001600160e01b031960e084901b1681526004810191909152336024820152604401602060405180830381865afa158015611b4d573d6000803e3d6000fd5b505050506040513d601f19601f82011682018060405250810190611b7191906134fa565b611b8d5760405162461bcd60e51b81526004016105d290613517565b610e5d612be1565b6000828152600760205260408120600b8101546060929182918291908610611bcf5760405162461bcd60e51b81526004016105d29061341c565b600081600b018781548110611be657611be6613453565b906000526020600020906006020190508060000181600101548260020160009054906101000a900460ff168360030154838054611c229061353a565b80601f0160208091040260200160405190810160405280929190818152602001828054611c4e9061353a565b8015611c9b5780601f10611c7057610100808354040283529160200191611c9b565b820191906000526020600020905b815481529060010190602001808311611c7e57829003601f168201915b505050505093509550955095509550505092959194509250565b60008381526007602052604090205483906001600160a01b0316331480611cf557506000818152600760205260409020600101546001600160a01b031633145b611d115760405162461bcd60e51b81526004016105d290613574565b600084815260076020526040812090600782015460ff166005811115611d3957611d39612ce4565b1480611d5d57506001600782015460ff166005811115611d5b57611d5b612ce4565b145b611dc45760405162461bcd60e51b815260206004820152603260248201527f43616e6e6f7420616464206d696c6573746f6e6520746f2061677265656d656e6044820152717420696e2063757272656e7420737461746560701b60648201526084016105d2565b604080516101008101825285815260208082018690526000928201839052606082018390526080820183905260a0820183905260c0820183905260e08201839052600b8401805460018101825590845292208151919283926006909102909101908190611e319082613628565b506020820151816001015560408201518160020160006101000a81548160ff02191690836002811115611e6657611e66612ce4565b021790555060608201516003808301919091556080830151600483015560a08301516005909201805460c085015160e0909501511515620100000262ff0000199515156101000261ff00199515159590951661ffff199092169190911793909317939093169190911790915582018054859190600090611ee79084906133d2565b9091555050600b82015486907fc67423104bf96f5ca8826913ae711e8c2254e1b2c04af907b2312853ed4cbed290611f21906001906133bf565b8787604051611a859392919061371a565b6000818152600760205260409020600b810154606091829182918291806001600160401b03811115611f6657611f66612e1c565b604051908082528060200260200182016040528015611f9957816020015b6060815260200190600190039081611f845790505b509550806001600160401b03811115611fb457611fb4612e1c565b604051908082528060200260200182016040528015611fdd578160200160208202803683370190505b509450806001600160401b03811115611ff857611ff8612e1c565b604051908082528060200260200182016040528015612021578160200160208202803683370190505b509350806001600160401b0381111561203c5761203c612e1c565b604051908082528060200260200182016040528015612065578160200160208202803683370190505b50925060005b818110156121e057600083600b01828154811061208a5761208a613453565b906000526020600020906006020190508060000180546120a99061353a565b80601f01602080910402602001604051908101604052809291908181526020018280546120d59061353a565b80156121225780601f106120f757610100808354040283529160200191612122565b820191906000526020600020905b81548152906001019060200180831161210557829003601f168201915b505050505088838151811061213957612139613453565b6020026020010181905250806001015487838151811061215b5761215b613453565b60209081029190910101526002810154865160ff9091169087908490811061218557612185613453565b6020026020010190600281111561219e5761219e612ce4565b908160028111156121b1576121b1612ce4565b8152505080600301548583815181106121cc576121cc613453565b60209081029190910101525060010161206b565b5050509193509193565b6002546040805163a217fddf60e01b815290516001600160a01b03909216916391d1485491839163a217fddf916004808201926020929091908290030181865afa15801561223c573d6000803e3d6000fd5b505050506040513d601f19601f8201168201806040525081019061226091906134e1565b6040516001600160e01b031960e084901b1681526004810191909152336024820152604401602060405180830381865afa1580156122a2573d6000803e3d6000fd5b505050506040513d601f19601f820116820180604052508101906122c691906134fa565b6122e25760405162461bcd60e51b81526004016105d290613517565b60148111156123335760405162461bcd60e51b815260206004820181905260248201527f4665652070657263656e746167652063616e6e6f74206578636565642032302560448201526064016105d2565b600555565b6007602052600090815260409020805460018201546002830180546001600160a01b0393841694929093169261236d9061353a565b80601f01602080910402602001604051908101604052809291908181526020018280546123999061353a565b80156123e65780601f106123bb576101008083540402835291602001916123e6565b820191906000526020600020905b8154815290600101906020018083116123c957829003601f168201915b5050505050908060030154908060040154908060050154908060060154908060070160009054906101000a900460ff169080600801549080600901549080600a01549080600c0160009054906101000a900460ff169080600d01805461244b9061353a565b80601f01602080910402602001604051908101604052809291908181526020018280546124779061353a565b80156124c45780601f10612499576101008083540402835291602001916124c4565b820191906000526020600020905b8154815290600101906020018083116124a757829003601f168201915b505050505090508d565b6002546040805163a217fddf60e01b815290516001600160a01b03909216916391d1485491839163a217fddf916004808201926020929091908290030181865afa158015612520573d6000803e3d6000fd5b505050506040513d601f19601f8201168201806040525081019061254491906134e1565b6040516001600160e01b031960e084901b1681526004810191909152336024820152604401602060405180830381865afa158015612586573d6000803e3d6000fd5b505050506040513d601f19601f820116820180604052508101906125aa91906134fa565b6125c65760405162461bcd60e51b81526004016105d290613517565b6001600160a01b03811661261c5760405162461bcd60e51b815260206004820152601d60248201527f496e76616c69642066656520636f6c6c6563746f72206164647265737300000060448201526064016105d2565b600680546001600160a01b0319166001600160a01b0392909216919091179055565b60008281526007602052604090205482906001600160a01b031633148061267e57506000818152600760205260409020600101546001600160a01b031633145b61269a5760405162461bcd60e51b81526004016105d290613574565b60008381526007602052604090206001600782015460ff1660058111156126c3576126c3612ce4565b14806126e757506002600782015460ff1660058111156126e5576126e5612ce4565b145b6127455760405162461bcd60e51b815260206004820152602960248201527f43616e6e6f7420646973707574652061677265656d656e7420696e2063757272604482015268656e7420737461746560b81b60648201526084016105d2565b60078101805460ff1916600317905560048054906000612764836135c1565b90915550600a820181905560405185917fc7715d701ddcf34ec6cb0bf1d8df3359f6c48a3d08e8acd1a06b380a196373df916127a2919087906136f9565b60405180910390a250505050565b60008281526007602052604090206001015482906001600160a01b031633146128275760405162461bcd60e51b815260206004820152602360248201527f4f6e6c792063726561746f722063616e2063616c6c20746869732066756e637460448201526234b7b760e91b60648201526084016105d2565b61282f612963565b60008381526007602052604090206001600782015460ff16600581111561285857612858612ce4565b146128755760405162461bcd60e51b81526004016105d2906133e5565b600b81015483106128985760405162461bcd60e51b81526004016105d29061341c565b600081600b0184815481106128af576128af613453565b600091825260208220600690910201915060028083015460ff16908111156128d9576128d9612ce4565b146128f65760405162461bcd60e51b81526004016105d290613469565b42600382015560405184815285907f1b7218c0ac23ea9cbe4df603d2b340fbf469a115b73ea3d11460727f445d6be1906020015b60405180910390a25050505050565b60026000540361295c57604051633ee5aeb560e01b815260040160405180910390fd5b6002600055565b60015460ff1615610e5d5760405163d93c066560e01b815260040160405180910390fd5b61298f612c1c565b6001805460ff191690557f5db9ee0a495bf2e6ff9c91a7834c1ba4fdd244a5e8aa4e537bd38aeae4b073aa335b6040516001600160a01b03909116815260200160405180910390a1565b6001600160a01b03841660009081526009602052604090204260058201558115612a70578054816000612a0b836135c1565b919050555082816002016000828254612a2491906133d2565b90915550506001600160a01b03841660009081526006820160209081526040808320805460ff19166001179055600784019091528120805491612a66836135c1565b9190505550612adf565b8054816000612a7e836135c1565b919050555082816002016000828254612a9791906133d2565b90915550506001600160a01b03841660009081526006820160209081526040808320805460ff19166001179055600784019091528120805491612ad9836135c1565b91905055505b80546003820181905560051115612b0c576004810180546000919060ff19166001835b0217905550612b98565b805460141115612b2b576004810180546001919060ff19168280612b02565b805460321115612b4b576004810180546002919060ff1916600183612b02565b805460641115612b6b576004810180546003919060ff1916600183612b02565b805460c81115612b88576004818101805460ff1916600183612b02565b60048101805460ff191660051790555b600381015460048201546040516001600160a01b038816927fd49bb802d2294437aba1013d21ec2f9a868658fe4eb24c157a3572b8ff1ac2d19261292a9260ff90911690613743565b612be9612963565b6001805460ff1916811790557f62e78cea01bee320cd4e420270b5ea74000d11b0c9f74754ebdbfc544b05a258336129bc565b60015460ff16610e5d57604051638dfc202b60e01b815260040160405180910390fd5b600060208284031215612c5157600080fd5b5035919050565b60008060408385031215612c6b57600080fd5b50508035926020909101359150565b80356001600160a01b0381168114612c9157600080fd5b919050565b60008060408385031215612ca957600080fd5b82359150612cb960208401612c7a565b90509250929050565b600060208284031215612cd457600080fd5b612cdd82612c7a565b9392505050565b634e487b7160e01b600052602160045260246000fd5b60068110612d0a57612d0a612ce4565b50565b600060c082019050878252866020830152856040830152846060830152612d3384612cfa565b608082019390935260a00152949350505050565b6000815180845260005b81811015612d6d57602081850181015186830182015201612d51565b506000602082860101526020601f19601f83011685010191505092915050565b612d9681612cfa565b9052565b6001600160a01b038d811682528c16602082015261018060408201819052600090612dc79083018d612d47565b90508a60608301528960808301528860a08301528760c0830152612dea87612cfa565b60e082019690965261010081019490945261012084019290925261014083015261016090910152979650505050505050565b634e487b7160e01b600052604160045260246000fd5b604051601f8201601f191681016001600160401b0381118282101715612e5a57612e5a612e1c565b604052919050565b60008060008060808587031215612e7857600080fd5b8435935060208501359250612e8f60408601612c7a565b915060608501356001600160401b03811115612eaa57600080fd5b8501601f81018713612ebb57600080fd5b80356001600160401b03811115612ed457612ed4612e1c565b8060051b612ee460208201612e32565b9182526020818401810192908101908a841115612f0057600080fd5b6020850194505b83851015612f2657843580835260209586019590935090910190612f07565b979a9699509497505050505050565b600082601f830112612f4657600080fd5b81356001600160401b03811115612f5f57612f5f612e1c565b612f72601f8201601f1916602001612e32565b818152846020838601011115612f8757600080fd5b816020850160208301376000918101602001919091529392505050565b8015158114612d0a57600080fd5b600080600080600060a08688031215612fca57600080fd5b612fd386612c7a565b945060208601356001600160401b03811115612fee57600080fd5b612ffa88828901612f35565b94505060408601359250606086013561301281612fa4565b915060808601356001600160401b0381111561302d57600080fd5b61303988828901612f35565b9150509295509295909350565b60008060006060848603121561305b57600080fd5b833592506020840135915060408401356001600160401b0381111561307f57600080fd5b61308b86828701612f35565b9150509250925092565b60038110612d9657612d96612ce4565b6080815260006130b86080830187612d47565b90508460208301526130cd6040830185613095565b82606083015295945050505050565b6000806000606084860312156130f157600080fd5b8335925060208401356001600160401b0381111561310e57600080fd5b61311a86828701612f35565b93969395505050506040919091013590565b600081518084526020840193506020830160005b8281101561315e578151865260209586019590910190600101613140565b5093949350505050565b600081518084526020840193506020830160005b8281101561315e5761318f868351613095565b602095860195919091019060010161317c565b6000608082016080835280875180835260a08501915060a08160051b86010192506020890160005b828110156131fb57609f198786030184526131e6858351612d47565b945060209384019391909101906001016131ca565b505050508281036020840152613211818761312c565b905082810360408401526132258186613168565b90508281036060840152613239818561312c565b979650505050505050565b6001600160a01b038e811682528d1660208201526101a0604082018190526000906132719083018e612d47565b8c60608401528b60808401528a60a08401528960c084015261329660e084018a612d8d565b8761010084015286610120840152856101408401526132ba61016084018615159052565b8281036101808401526132cd8185612d47565b9150509e9d5050505050505050505050505050565b600080604083850312156132f557600080fd5b8235915060208301356001600160401b0381111561331257600080fd5b61331e85828601612f35565b9150509250929050565b60208082526022908201527f4f6e6c7920636c69656e742063616e2063616c6c20746869732066756e63746960408201526137b760f11b606082015260800190565b634e487b7160e01b600052601160045260246000fd5b80820281158282048414176133975761339761336a565b92915050565b6000826133ba57634e487b7160e01b600052601260045260246000fd5b500490565b818103818111156133975761339761336a565b808201808211156133975761339761336a565b6020808252601d908201527f41677265656d656e74206e6f7420696e2066756e646564207374617465000000604082015260600190565b60208082526017908201527f496e76616c6964206d696c6573746f6e6520696e646578000000000000000000604082015260600190565b634e487b7160e01b600052603260045260246000fd5b6020808252601e908201527f4d696c6573746f6e65206e6f7420696e2070656e64696e672073746174650000604082015260600190565b60208082526021908201527f4d696c6573746f6e65206e6f74206d61726b656420617320636f6d706c6574656040820152601960fa1b606082015260800190565b6000602082840312156134f357600080fd5b5051919050565b60006020828403121561350c57600080fd5b8151612cdd81612fa4565b6020808252600990820152682737ba1030b236b4b760b91b604082015260600190565b600181811c9082168061354e57607f821691505b60208210810361356e57634e487b7160e01b600052602260045260246000fd5b50919050565b6020808252602d908201527f4f6e6c7920636c69656e74206f722063726561746f722063616e2063616c6c2060408201526c3a3434b990333ab731ba34b7b760991b606082015260800190565b6000600182016135d3576135d361336a565b5060010190565b601f821115610bdc57806000526020600020601f840160051c810160208510156136015750805b601f840160051c820191505b81811015613621576000815560010161360d565b5050505050565b81516001600160401b0381111561364157613641612e1c565b6136558161364f845461353a565b846135da565b6020601f82116001811461368957600083156136715750848201515b600019600385901b1c1916600184901b178455613621565b600084815260208120601f198516915b828110156136b95787850151825560209485019460019092019101613699565b50848210156136d75786840151600019600387901b60f8161c191681555b50505050600190811b01905550565b602081526000612cdd6020830184612d47565b8281526040602082015260006137126040830184612d47565b949350505050565b8381526060602082015260006137336060830185612d47565b9050826040830152949350505050565b8281526040810161375383612cfa565b826020830152939250505056fea26469706673582212201910e1ed6623a768fdbf475179c61e0cacca917a2947afed121a818b6222c06964736f6c634300081c0033",
          "opcodes": "PUSH1 0x80 PUSH1 0x40 MSTORE PUSH1 0x1 PUSH1 0x3 SSTORE PUSH1 0x1 PUSH1 0x4 SSTORE PUSH1 0x2 PUSH1 0x5 SSTORE CALLVALUE DUP1 ISZERO PUSH1 0x1E JUMPI PUSH1 0x0 DUP1 REVERT JUMPDEST POP PUSH1 0x40 MLOAD PUSH2 0x385D CODESIZE SUB DUP1 PUSH2 0x385D DUP4 CODECOPY DUP2 ADD PUSH1 0x40 DUP2 SWAP1 MSTORE PUSH1 0x3B SWAP2 PUSH1 0x8A JUMP JUMPDEST PUSH1 0x1 PUSH1 0x0 DUP2 SWAP1 SSTORE PUSH1 0x2 DUP1 SLOAD PUSH1 0x1 PUSH1 0x1 PUSH1 0xA0 SHL SUB SWAP1 SWAP4 AND PUSH1 0x1 PUSH1 0x1 PUSH1 0xA0 SHL SUB NOT SWAP4 DUP5 AND DUP2 OR SWAP1 SWAP2 SSTORE DUP2 SLOAD PUSH2 0x100 SWAP2 SWAP1 SWAP2 MUL PUSH2 0x100 PUSH1 0x1 PUSH1 0xA8 SHL SUB NOT SWAP1 SWAP2 AND OR SWAP1 SSTORE PUSH1 0x6 DUP1 SLOAD SWAP1 SWAP2 AND CALLER OR SWAP1 SSTORE PUSH1 0xB8 JUMP JUMPDEST PUSH1 0x0 PUSH1 0x20 DUP3 DUP5 SUB SLT ISZERO PUSH1 0x9B JUMPI PUSH1 0x0 DUP1 REVERT JUMPDEST DUP2 MLOAD PUSH1 0x1 PUSH1 0x1 PUSH1 0xA0 SHL SUB DUP2 AND DUP2 EQ PUSH1 0xB1 JUMPI PUSH1 0x0 DUP1 REVERT JUMPDEST SWAP4 SWAP3 POP POP POP JUMP JUMPDEST PUSH2 0x3796 DUP1 PUSH2 0xC7 PUSH1 0x0 CODECOPY PUSH1 0x0 RETURN INVALID PUSH1 0x80 PUSH1 0x40 MSTORE PUSH1 0x4 CALLDATASIZE LT PUSH2 0x181 JUMPI PUSH1 0x0 CALLDATALOAD PUSH1 0xE0 SHR DUP1 PUSH4 0x8ED9895C GT PUSH2 0xD1 JUMPI DUP1 PUSH4 0xC3242987 GT PUSH2 0x8A JUMPI DUP1 PUSH4 0xD2C35CE8 GT PUSH2 0x64 JUMPI DUP1 PUSH4 0xD2C35CE8 EQ PUSH2 0x51A JUMPI DUP1 PUSH4 0xD919FF8A EQ PUSH2 0x53A JUMPI DUP1 PUSH4 0xF326206B EQ PUSH2 0x55A JUMPI DUP1 PUSH4 0xFDCB6068 EQ PUSH2 0x57A JUMPI PUSH1 0x0 DUP1 REVERT JUMPDEST DUP1 PUSH4 0xC3242987 EQ PUSH2 0x487 JUMPI DUP1 PUSH4 0xC415B95C EQ PUSH2 0x4D5 JUMPI DUP1 PUSH4 0xCA0AB075 EQ PUSH2 0x4F5 JUMPI PUSH1 0x0 DUP1 REVERT JUMPDEST DUP1 PUSH4 0x8ED9895C EQ PUSH2 0x375 JUMPI DUP1 PUSH4 0x98DF912E EQ PUSH2 0x3A5 JUMPI DUP1 PUSH4 0xA0B2389B EQ PUSH2 0x3C5 JUMPI DUP1 PUSH4 0xA4E2EA0B EQ PUSH2 0x3F5 JUMPI DUP1 PUSH4 0xAA0B5988 EQ PUSH2 0x42E JUMPI DUP1 PUSH4 0xBD14DE96 EQ PUSH2 0x44E JUMPI PUSH1 0x0 DUP1 REVERT JUMPDEST DUP1 PUSH4 0x5686B54B GT PUSH2 0x13E JUMPI DUP1 PUSH4 0x5C975ABB GT PUSH2 0x118 JUMPI DUP1 PUSH4 0x5C975ABB EQ PUSH2 0x307 JUMPI DUP1 PUSH4 0x6E2A373A EQ PUSH2 0x32A JUMPI DUP1 PUSH4 0x8456CB59 EQ PUSH2 0x34A JUMPI DUP1 PUSH4 0x8C639A85 EQ PUSH2 0x35F JUMPI PUSH1 0x0 DUP1 REVERT JUMPDEST DUP1 PUSH4 0x5686B54B EQ PUSH2 0x299 JUMPI DUP1 PUSH4 0x56D45466 EQ PUSH2 0x2B9 JUMPI DUP1 PUSH4 0x57542528 EQ PUSH2 0x2D9 JUMPI PUSH1 0x0 DUP1 REVERT JUMPDEST DUP1 PUSH4 0xA888FE4 EQ PUSH2 0x186 JUMPI DUP1 PUSH4 0x20913DA5 EQ PUSH2 0x19B JUMPI DUP1 PUSH4 0x260EB725 EQ PUSH2 0x1BB JUMPI DUP1 PUSH4 0x332D56D7 EQ PUSH2 0x1DB JUMPI DUP1 PUSH4 0x3F4BA83A EQ PUSH2 0x24C JUMPI DUP1 PUSH4 0x4F9F6FE6 EQ PUSH2 0x261 JUMPI JUMPDEST PUSH1 0x0 DUP1 REVERT JUMPDEST PUSH2 0x199 PUSH2 0x194 CALLDATASIZE PUSH1 0x4 PUSH2 0x2C3F JUMP JUMPDEST PUSH2 0x59A JUMP JUMPDEST STOP JUMPDEST CALLVALUE DUP1 ISZERO PUSH2 0x1A7 JUMPI PUSH1 0x0 DUP1 REVERT JUMPDEST POP PUSH2 0x199 PUSH2 0x1B6 CALLDATASIZE PUSH1 0x4 PUSH2 0x2C58 JUMP JUMPDEST PUSH2 0x844 JUMP JUMPDEST CALLVALUE DUP1 ISZERO PUSH2 0x1C7 JUMPI PUSH1 0x0 DUP1 REVERT JUMPDEST POP PUSH2 0x199 PUSH2 0x1D6 CALLDATASIZE PUSH1 0x4 PUSH2 0x2C96 JUMP JUMPDEST PUSH2 0xBE1 JUMP JUMPDEST CALLVALUE DUP1 ISZERO PUSH2 0x1E7 JUMPI PUSH1 0x0 DUP1 REVERT JUMPDEST POP PUSH2 0x231 PUSH2 0x1F6 CALLDATASIZE PUSH1 0x4 PUSH2 0x2CC2 JUMP JUMPDEST PUSH1 0x9 PUSH1 0x20 MSTORE PUSH1 0x0 SWAP1 DUP2 MSTORE PUSH1 0x40 SWAP1 KECCAK256 DUP1 SLOAD PUSH1 0x1 DUP3 ADD SLOAD PUSH1 0x2 DUP4 ADD SLOAD PUSH1 0x3 DUP5 ADD SLOAD PUSH1 0x4 DUP6 ADD SLOAD PUSH1 0x5 SWAP1 SWAP6 ADD SLOAD SWAP4 SWAP5 SWAP3 SWAP4 SWAP2 SWAP3 SWAP1 SWAP2 PUSH1 0xFF SWAP1 SWAP2 AND SWAP1 DUP7 JUMP JUMPDEST PUSH1 0x40 MLOAD PUSH2 0x243 SWAP7 SWAP6 SWAP5 SWAP4 SWAP3 SWAP2 SWAP1 PUSH2 0x2D0D JUMP JUMPDEST PUSH1 0x40 MLOAD DUP1 SWAP2 SUB SWAP1 RETURN JUMPDEST CALLVALUE DUP1 ISZERO PUSH2 0x258 JUMPI PUSH1 0x0 DUP1 REVERT JUMPDEST POP PUSH2 0x199 PUSH2 0xD5D JUMP JUMPDEST CALLVALUE DUP1 ISZERO PUSH2 0x26D JUMPI PUSH1 0x0 DUP1 REVERT JUMPDEST POP PUSH2 0x281 PUSH2 0x27C CALLDATASIZE PUSH1 0x4 PUSH2 0x2C3F JUMP JUMPDEST PUSH2 0xE5F JUMP JUMPDEST PUSH1 0x40 MLOAD PUSH2 0x243 SWAP13 SWAP12 SWAP11 SWAP10 SWAP9 SWAP8 SWAP7 SWAP6 SWAP5 SWAP4 SWAP3 SWAP2 SWAP1 PUSH2 0x2D9A JUMP JUMPDEST CALLVALUE DUP1 ISZERO PUSH2 0x2A5 JUMPI PUSH1 0x0 DUP1 REVERT JUMPDEST POP PUSH2 0x199 PUSH2 0x2B4 CALLDATASIZE PUSH1 0x4 PUSH2 0x2C3F JUMP JUMPDEST PUSH2 0xFAD JUMP JUMPDEST CALLVALUE DUP1 ISZERO PUSH2 0x2C5 JUMPI PUSH1 0x0 DUP1 REVERT JUMPDEST POP PUSH2 0x199 PUSH2 0x2D4 CALLDATASIZE PUSH1 0x4 PUSH2 0x2E62 JUMP JUMPDEST PUSH2 0x1272 JUMP JUMPDEST CALLVALUE DUP1 ISZERO PUSH2 0x2E5 JUMPI PUSH1 0x0 DUP1 REVERT JUMPDEST POP PUSH2 0x2F9 PUSH2 0x2F4 CALLDATASIZE PUSH1 0x4 PUSH2 0x2FB2 JUMP JUMPDEST PUSH2 0x1719 JUMP JUMPDEST PUSH1 0x40 MLOAD SWAP1 DUP2 MSTORE PUSH1 0x20 ADD PUSH2 0x243 JUMP JUMPDEST CALLVALUE DUP1 ISZERO PUSH2 0x313 JUMPI PUSH1 0x0 DUP1 REVERT JUMPDEST POP PUSH1 0x1 SLOAD PUSH1 0xFF AND PUSH1 0x40 MLOAD SWAP1 ISZERO ISZERO DUP2 MSTORE PUSH1 0x20 ADD PUSH2 0x243 JUMP JUMPDEST CALLVALUE DUP1 ISZERO PUSH2 0x336 JUMPI PUSH1 0x0 DUP1 REVERT JUMPDEST POP PUSH2 0x199 PUSH2 0x345 CALLDATASIZE PUSH1 0x4 PUSH2 0x3046 JUMP JUMPDEST PUSH2 0x1915 JUMP JUMPDEST CALLVALUE DUP1 ISZERO PUSH2 0x356 JUMPI PUSH1 0x0 DUP1 REVERT JUMPDEST POP PUSH2 0x199 PUSH2 0x1A95 JUMP JUMPDEST CALLVALUE DUP1 ISZERO PUSH2 0x36B JUMPI PUSH1 0x0 DUP1 REVERT JUMPDEST POP PUSH2 0x2F9 PUSH1 0x5 SLOAD DUP2 JUMP JUMPDEST CALLVALUE DUP1 ISZERO PUSH2 0x381 JUMPI PUSH1 0x0 DUP1 REVERT JUMPDEST POP PUSH2 0x395 PUSH2 0x390 CALLDATASIZE PUSH1 0x4 PUSH2 0x2C58 JUMP JUMPDEST PUSH2 0x1B95 JUMP JUMPDEST PUSH1 0x40 MLOAD PUSH2 0x243 SWAP5 SWAP4 SWAP3 SWAP2 SWAP1 PUSH2 0x30A5 JUMP JUMPDEST CALLVALUE DUP1 ISZERO PUSH2 0x3B1 JUMPI PUSH1 0x0 DUP1 REVERT JUMPDEST POP PUSH2 0x199 PUSH2 0x3C0 CALLDATASIZE PUSH1 0x4 PUSH2 0x30DC JUMP JUMPDEST PUSH2 0x1CB5 JUMP JUMPDEST CALLVALUE DUP1 ISZERO PUSH2 0x3D1 JUMPI PUSH1 0x0 DUP1 REVERT JUMPDEST POP PUSH2 0x3E5 PUSH2 0x3E0 CALLDATASIZE PUSH1 0x4 PUSH2 0x2C3F JUMP JUMPDEST PUSH2 0x1F32 JUMP JUMPDEST PUSH1 0x40 MLOAD PUSH2 0x243 SWAP5 SWAP4 SWAP3 SWAP2 SWAP1 PUSH2 0x31A2 JUMP JUMPDEST CALLVALUE DUP1 ISZERO PUSH2 0x401 JUMPI PUSH1 0x0 DUP1 REVERT JUMPDEST POP PUSH2 0x2F9 PUSH2 0x410 CALLDATASIZE PUSH1 0x4 PUSH2 0x2CC2 JUMP JUMPDEST PUSH1 0x1 PUSH1 0x1 PUSH1 0xA0 SHL SUB AND PUSH1 0x0 SWAP1 DUP2 MSTORE PUSH1 0x9 PUSH1 0x20 MSTORE PUSH1 0x40 SWAP1 KECCAK256 PUSH1 0x3 ADD SLOAD SWAP1 JUMP JUMPDEST CALLVALUE DUP1 ISZERO PUSH2 0x43A JUMPI PUSH1 0x0 DUP1 REVERT JUMPDEST POP PUSH2 0x199 PUSH2 0x449 CALLDATASIZE PUSH1 0x4 PUSH2 0x2C3F JUMP JUMPDEST PUSH2 0x21EA JUMP JUMPDEST CALLVALUE DUP1 ISZERO PUSH2 0x45A JUMPI PUSH1 0x0 DUP1 REVERT JUMPDEST POP PUSH2 0x46E PUSH2 0x469 CALLDATASIZE PUSH1 0x4 PUSH2 0x2C3F JUMP JUMPDEST PUSH2 0x2338 JUMP JUMPDEST PUSH1 0x40 MLOAD PUSH2 0x243 SWAP14 SWAP13 SWAP12 SWAP11 SWAP10 SWAP9 SWAP8 SWAP7 SWAP6 SWAP5 SWAP4 SWAP3 SWAP2 SWAP1 PUSH2 0x3244 JUMP JUMPDEST CALLVALUE DUP1 ISZERO PUSH2 0x493 JUMPI PUSH1 0x0 DUP1 REVERT JUMPDEST POP PUSH2 0x4BD PUSH2 0x4A2 CALLDATASIZE PUSH1 0x4 PUSH2 0x2C3F JUMP JUMPDEST PUSH1 0x8 PUSH1 0x20 MSTORE PUSH1 0x0 SWAP1 DUP2 MSTORE PUSH1 0x40 SWAP1 KECCAK256 SLOAD PUSH1 0x1 PUSH1 0x1 PUSH1 0xA0 SHL SUB AND DUP2 JUMP JUMPDEST PUSH1 0x40 MLOAD PUSH1 0x1 PUSH1 0x1 PUSH1 0xA0 SHL SUB SWAP1 SWAP2 AND DUP2 MSTORE PUSH1 0x20 ADD PUSH2 0x243 JUMP JUMPDEST CALLVALUE DUP1 ISZERO PUSH2 0x4E1 JUMPI PUSH1 0x0 DUP1 REVERT JUMPDEST POP PUSH1 0x6 SLOAD PUSH2 0x4BD SWAP1 PUSH1 0x1 PUSH1 0x1 PUSH1 0xA0 SHL SUB AND DUP2 JUMP JUMPDEST CALLVALUE DUP1 ISZERO PUSH2 0x501 JUMPI PUSH1 0x0 DUP1 REVERT JUMPDEST POP PUSH1 0x1 SLOAD PUSH2 0x4BD SWAP1 PUSH2 0x100 SWAP1 DIV PUSH1 0x1 PUSH1 0x1 PUSH1 0xA0 SHL SUB AND DUP2 JUMP JUMPDEST CALLVALUE DUP1 ISZERO PUSH2 0x526 JUMPI PUSH1 0x0 DUP1 REVERT JUMPDEST POP PUSH2 0x199 PUSH2 0x535 CALLDATASIZE PUSH1 0x4 PUSH2 0x2CC2 JUMP JUMPDEST PUSH2 0x24CE JUMP JUMPDEST CALLVALUE DUP1 ISZERO PUSH2 0x546 JUMPI PUSH1 0x0 DUP1 REVERT JUMPDEST POP PUSH2 0x199 PUSH2 0x555 CALLDATASIZE PUSH1 0x4 PUSH2 0x32E2 JUMP JUMPDEST PUSH2 0x263E JUMP JUMPDEST CALLVALUE DUP1 ISZERO PUSH2 0x566 JUMPI PUSH1 0x0 DUP1 REVERT JUMPDEST POP PUSH2 0x199 PUSH2 0x575 CALLDATASIZE PUSH1 0x4 PUSH2 0x2C58 JUMP JUMPDEST PUSH2 0x27B0 JUMP JUMPDEST CALLVALUE DUP1 ISZERO PUSH2 0x586 JUMPI PUSH1 0x0 DUP1 REVERT JUMPDEST POP PUSH1 0x2 SLOAD PUSH2 0x4BD SWAP1 PUSH1 0x1 PUSH1 0x1 PUSH1 0xA0 SHL SUB AND DUP2 JUMP JUMPDEST PUSH1 0x0 DUP2 DUP2 MSTORE PUSH1 0x7 PUSH1 0x20 MSTORE PUSH1 0x40 SWAP1 KECCAK256 SLOAD DUP2 SWAP1 PUSH1 0x1 PUSH1 0x1 PUSH1 0xA0 SHL SUB AND CALLER EQ PUSH2 0x5DB JUMPI PUSH1 0x40 MLOAD PUSH3 0x461BCD PUSH1 0xE5 SHL DUP2 MSTORE PUSH1 0x4 ADD PUSH2 0x5D2 SWAP1 PUSH2 0x3328 JUMP JUMPDEST PUSH1 0x40 MLOAD DUP1 SWAP2 SUB SWAP1 REVERT JUMPDEST PUSH2 0x5E3 PUSH2 0x2939 JUMP JUMPDEST PUSH2 0x5EB PUSH2 0x2963 JUMP JUMPDEST PUSH1 0x0 DUP3 DUP2 MSTORE PUSH1 0x7 PUSH1 0x20 MSTORE PUSH1 0x40 DUP2 KECCAK256 SWAP1 PUSH1 0x7 DUP3 ADD SLOAD PUSH1 0xFF AND PUSH1 0x5 DUP2 GT ISZERO PUSH2 0x613 JUMPI PUSH2 0x613 PUSH2 0x2CE4 JUMP JUMPDEST EQ DUP1 PUSH2 0x637 JUMPI POP PUSH1 0x1 PUSH1 0x7 DUP3 ADD SLOAD PUSH1 0xFF AND PUSH1 0x5 DUP2 GT ISZERO PUSH2 0x635 JUMPI PUSH2 0x635 PUSH2 0x2CE4 JUMP JUMPDEST EQ JUMPDEST PUSH2 0x692 JUMPI PUSH1 0x40 MLOAD PUSH3 0x461BCD PUSH1 0xE5 SHL DUP2 MSTORE PUSH1 0x20 PUSH1 0x4 DUP3 ADD MSTORE PUSH1 0x26 PUSH1 0x24 DUP3 ADD MSTORE PUSH32 0x43616E6E6F742066756E642061677265656D656E7420696E2063757272656E74 PUSH1 0x44 DUP3 ADD MSTORE PUSH6 0x207374617465 PUSH1 0xD0 SHL PUSH1 0x64 DUP3 ADD MSTORE PUSH1 0x84 ADD PUSH2 0x5D2 JUMP JUMPDEST PUSH1 0x0 CALLVALUE GT PUSH2 0x6F0 JUMPI PUSH1 0x40 MLOAD PUSH3 0x461BCD PUSH1 0xE5 SHL DUP2 MSTORE PUSH1 0x20 PUSH1 0x4 DUP3 ADD MSTORE PUSH1 0x25 PUSH1 0x24 DUP3 ADD MSTORE PUSH32 0x46756E64696E6720616D6F756E74206D75737420626520677265617465722074 PUSH1 0x44 DUP3 ADD MSTORE PUSH5 0x68616E203 PUSH1 0xDC SHL PUSH1 0x64 DUP3 ADD MSTORE PUSH1 0x84 ADD PUSH2 0x5D2 JUMP JUMPDEST PUSH1 0x0 PUSH1 0x64 PUSH1 0x5 SLOAD CALLVALUE PUSH2 0x702 SWAP2 SWAP1 PUSH2 0x3380 JUMP JUMPDEST PUSH2 0x70C SWAP2 SWAP1 PUSH2 0x339D JUMP JUMPDEST SWAP1 POP PUSH1 0x0 PUSH2 0x71A DUP3 CALLVALUE PUSH2 0x33BF JUMP JUMPDEST SWAP1 POP DUP1 DUP4 PUSH1 0x8 ADD PUSH1 0x0 DUP3 DUP3 SLOAD PUSH2 0x730 SWAP2 SWAP1 PUSH2 0x33D2 JUMP JUMPDEST SWAP3 POP POP DUP2 SWAP1 SSTORE POP DUP2 DUP4 PUSH1 0x4 ADD PUSH1 0x0 DUP3 DUP3 SLOAD PUSH2 0x74B SWAP2 SWAP1 PUSH2 0x33D2 JUMP JUMPDEST SWAP1 SWAP2 SSTORE POP POP PUSH1 0x7 DUP4 ADD DUP1 SLOAD PUSH1 0xFF NOT AND PUSH1 0x1 OR SWAP1 SSTORE PUSH1 0x6 SLOAD PUSH1 0x40 MLOAD PUSH1 0x0 SWAP2 PUSH1 0x1 PUSH1 0x1 PUSH1 0xA0 SHL SUB AND SWAP1 DUP5 SWAP1 DUP4 DUP2 DUP2 DUP2 DUP6 DUP8 GAS CALL SWAP3 POP POP POP RETURNDATASIZE DUP1 PUSH1 0x0 DUP2 EQ PUSH2 0x7AC JUMPI PUSH1 0x40 MLOAD SWAP2 POP PUSH1 0x1F NOT PUSH1 0x3F RETURNDATASIZE ADD AND DUP3 ADD PUSH1 0x40 MSTORE RETURNDATASIZE DUP3 MSTORE RETURNDATASIZE PUSH1 0x0 PUSH1 0x20 DUP5 ADD RETURNDATACOPY PUSH2 0x7B1 JUMP JUMPDEST PUSH1 0x60 SWAP2 POP JUMPDEST POP POP SWAP1 POP DUP1 PUSH2 0x7F8 JUMPI PUSH1 0x40 MLOAD PUSH3 0x461BCD PUSH1 0xE5 SHL DUP2 MSTORE PUSH1 0x20 PUSH1 0x4 DUP3 ADD MSTORE PUSH1 0x13 PUSH1 0x24 DUP3 ADD MSTORE PUSH19 0x119959481D1C985B9CD9995C8819985A5B1959 PUSH1 0x6A SHL PUSH1 0x44 DUP3 ADD MSTORE PUSH1 0x64 ADD PUSH2 0x5D2 JUMP JUMPDEST DUP6 PUSH32 0xCE24C0AE1D73D57CF2E6D1D90B94B11B288E5CFB1C0AA6E7F8ED3391F0C0F021 CALLVALUE PUSH1 0x40 MLOAD PUSH2 0x82A SWAP2 DUP2 MSTORE PUSH1 0x20 ADD SWAP1 JUMP JUMPDEST PUSH1 0x40 MLOAD DUP1 SWAP2 SUB SWAP1 LOG2 POP POP POP POP PUSH2 0x840 PUSH1 0x1 PUSH1 0x0 SSTORE JUMP JUMPDEST POP POP JUMP JUMPDEST PUSH1 0x0 DUP3 DUP2 MSTORE PUSH1 0x7 PUSH1 0x20 MSTORE PUSH1 0x40 SWAP1 KECCAK256 SLOAD DUP3 SWAP1 PUSH1 0x1 PUSH1 0x1 PUSH1 0xA0 SHL SUB AND CALLER EQ PUSH2 0x87C JUMPI PUSH1 0x40 MLOAD PUSH3 0x461BCD PUSH1 0xE5 SHL DUP2 MSTORE PUSH1 0x4 ADD PUSH2 0x5D2 SWAP1 PUSH2 0x3328 JUMP JUMPDEST PUSH2 0x884 PUSH2 0x2939 JUMP JUMPDEST PUSH2 0x88C PUSH2 0x2963 JUMP JUMPDEST PUSH1 0x0 DUP4 DUP2 MSTORE PUSH1 0x7 PUSH1 0x20 MSTORE PUSH1 0x40 SWAP1 KECCAK256 PUSH1 0x1 PUSH1 0x7 DUP3 ADD SLOAD PUSH1 0xFF AND PUSH1 0x5 DUP2 GT ISZERO PUSH2 0x8B5 JUMPI PUSH2 0x8B5 PUSH2 0x2CE4 JUMP JUMPDEST EQ PUSH2 0x8D2 JUMPI PUSH1 0x40 MLOAD PUSH3 0x461BCD PUSH1 0xE5 SHL DUP2 MSTORE PUSH1 0x4 ADD PUSH2 0x5D2 SWAP1 PUSH2 0x33E5 JUMP JUMPDEST PUSH1 0xB DUP2 ADD SLOAD DUP4 LT PUSH2 0x8F5 JUMPI PUSH1 0x40 MLOAD PUSH3 0x461BCD PUSH1 0xE5 SHL DUP2 MSTORE PUSH1 0x4 ADD PUSH2 0x5D2 SWAP1 PUSH2 0x341C JUMP JUMPDEST PUSH1 0x0 DUP2 PUSH1 0xB ADD DUP5 DUP2 SLOAD DUP2 LT PUSH2 0x90C JUMPI PUSH2 0x90C PUSH2 0x3453 JUMP JUMPDEST PUSH1 0x0 SWAP2 DUP3 MSTORE PUSH1 0x20 DUP3 KECCAK256 PUSH1 0x6 SWAP1 SWAP2 MUL ADD SWAP2 POP PUSH1 0x2 DUP1 DUP4 ADD SLOAD PUSH1 0xFF AND SWAP1 DUP2 GT ISZERO PUSH2 0x936 JUMPI PUSH2 0x936 PUSH2 0x2CE4 JUMP JUMPDEST EQ PUSH2 0x953 JUMPI PUSH1 0x40 MLOAD PUSH3 0x461BCD PUSH1 0xE5 SHL DUP2 MSTORE PUSH1 0x4 ADD PUSH2 0x5D2 SWAP1 PUSH2 0x3469 JUMP JUMPDEST PUSH1 0x0 DUP2 PUSH1 0x3 ADD SLOAD GT PUSH2 0x977 JUMPI PUSH1 0x40 MLOAD PUSH3 0x461BCD PUSH1 0xE5 SHL DUP2 MSTORE PUSH1 0x4 ADD PUSH2 0x5D2 SWAP1 PUSH2 0x34A0 JUMP JUMPDEST DUP1 PUSH1 0x1 ADD SLOAD DUP3 PUSH1 0x8 ADD SLOAD LT ISZERO PUSH2 0x9CF JUMPI PUSH1 0x40 MLOAD PUSH3 0x461BCD PUSH1 0xE5 SHL DUP2 MSTORE PUSH1 0x20 PUSH1 0x4 DUP3 ADD MSTORE PUSH1 0x1C PUSH1 0x24 DUP3 ADD MSTORE PUSH32 0x496E73756666696369656E742066756E647320696E20657363726F7700000000 PUSH1 0x44 DUP3 ADD MSTORE PUSH1 0x64 ADD PUSH2 0x5D2 JUMP JUMPDEST PUSH1 0x2 DUP2 ADD DUP1 SLOAD PUSH1 0xFF NOT AND PUSH1 0x1 SWAP1 DUP2 OR SWAP1 SWAP2 SSTORE DUP2 ADD SLOAD PUSH1 0x8 DUP4 ADD DUP1 SLOAD PUSH1 0x0 SWAP1 PUSH2 0x9F8 SWAP1 DUP5 SWAP1 PUSH2 0x33BF JUMP JUMPDEST SWAP1 SWAP2 SSTORE POP POP PUSH1 0x1 DUP2 ADD SLOAD PUSH1 0x9 DUP4 ADD DUP1 SLOAD PUSH1 0x0 SWAP1 PUSH2 0xA16 SWAP1 DUP5 SWAP1 PUSH2 0x33D2 JUMP JUMPDEST SWAP1 SWAP2 SSTORE POP POP PUSH1 0x1 DUP3 DUP2 ADD SLOAD SWAP1 DUP3 ADD SLOAD PUSH1 0x40 MLOAD PUSH1 0x0 SWAP3 PUSH1 0x1 PUSH1 0x1 PUSH1 0xA0 SHL SUB AND SWAP2 SWAP1 DUP4 DUP2 DUP2 DUP2 DUP6 DUP8 GAS CALL SWAP3 POP POP POP RETURNDATASIZE DUP1 PUSH1 0x0 DUP2 EQ PUSH2 0xA6E JUMPI PUSH1 0x40 MLOAD SWAP2 POP PUSH1 0x1F NOT PUSH1 0x3F RETURNDATASIZE ADD AND DUP3 ADD PUSH1 0x40 MSTORE RETURNDATASIZE DUP3 MSTORE RETURNDATASIZE PUSH1 0x0 PUSH1 0x20 DUP5 ADD RETURNDATACOPY PUSH2 0xA73 JUMP JUMPDEST PUSH1 0x60 SWAP2 POP JUMPDEST POP POP SWAP1 POP DUP1 PUSH2 0xABB JUMPI PUSH1 0x40 MLOAD PUSH3 0x461BCD PUSH1 0xE5 SHL DUP2 MSTORE PUSH1 0x20 PUSH1 0x4 DUP3 ADD MSTORE PUSH1 0x14 PUSH1 0x24 DUP3 ADD MSTORE PUSH20 0x119D5B99081D1C985B9CD9995C8819985A5B1959 PUSH1 0x62 SHL PUSH1 0x44 DUP3 ADD MSTORE PUSH1 0x64 ADD PUSH2 0x5D2 JUMP JUMPDEST DUP6 PUSH32 0x939DA3B627C123C81FE5AACEBF925163337A0D4F8A03724640618078CAD24894 DUP7 PUSH1 0x40 MLOAD PUSH2 0xAED SWAP2 DUP2 MSTORE PUSH1 0x20 ADD SWAP1 JUMP JUMPDEST PUSH1 0x40 MLOAD DUP1 SWAP2 SUB SWAP1 LOG2 PUSH1 0x1 DUP3 DUP2 ADD SLOAD SWAP1 DUP5 ADD SLOAD PUSH1 0x40 DUP1 MLOAD SWAP3 DUP4 MSTORE PUSH1 0x1 PUSH1 0x1 PUSH1 0xA0 SHL SUB SWAP1 SWAP2 AND PUSH1 0x20 DUP4 ADD MSTORE DUP8 SWAP2 PUSH32 0x807158A396C8CE26FB6A4A44930E1B49876133BA7806DBAAC491EA4713E4515E SWAP2 ADD PUSH1 0x40 MLOAD DUP1 SWAP2 SUB SWAP1 LOG2 PUSH1 0x1 PUSH1 0x0 JUMPDEST PUSH1 0xB DUP6 ADD SLOAD DUP2 LT ISZERO PUSH2 0xBA9 JUMPI PUSH1 0x1 DUP6 PUSH1 0xB ADD DUP3 DUP2 SLOAD DUP2 LT PUSH2 0xB6B JUMPI PUSH2 0xB6B PUSH2 0x3453 JUMP JUMPDEST PUSH1 0x0 SWAP2 DUP3 MSTORE PUSH1 0x20 SWAP1 SWAP2 KECCAK256 PUSH1 0x2 PUSH1 0x6 SWAP1 SWAP3 MUL ADD DUP2 ADD SLOAD PUSH1 0xFF AND SWAP1 DUP2 GT ISZERO PUSH2 0xB93 JUMPI PUSH2 0xB93 PUSH2 0x2CE4 JUMP JUMPDEST EQ PUSH2 0xBA1 JUMPI PUSH1 0x0 SWAP2 POP PUSH2 0xBA9 JUMP JUMPDEST PUSH1 0x1 ADD PUSH2 0xB48 JUMP JUMPDEST POP DUP1 DUP1 ISZERO PUSH2 0xBB9 JUMPI POP PUSH1 0x8 DUP5 ADD SLOAD ISZERO JUMPDEST ISZERO PUSH2 0xBCE JUMPI PUSH1 0x7 DUP5 ADD DUP1 SLOAD PUSH1 0xFF NOT AND PUSH1 0x4 OR SWAP1 SSTORE JUMPDEST POP POP POP POP PUSH2 0xBDC PUSH1 0x1 PUSH1 0x0 SSTORE JUMP JUMPDEST POP POP POP JUMP JUMPDEST PUSH1 0x2 SLOAD PUSH1 0x40 DUP1 MLOAD PUSH4 0xA217FDDF PUSH1 0xE0 SHL DUP2 MSTORE SWAP1 MLOAD PUSH1 0x1 PUSH1 0x1 PUSH1 0xA0 SHL SUB SWAP1 SWAP3 AND SWAP2 PUSH4 0x91D14854 SWAP2 DUP4 SWAP2 PUSH4 0xA217FDDF SWAP2 PUSH1 0x4 DUP1 DUP3 ADD SWAP3 PUSH1 0x20 SWAP3 SWAP1 SWAP2 SWAP1 DUP3 SWAP1 SUB ADD DUP2 DUP7 GAS STATICCALL ISZERO DUP1 ISZERO PUSH2 0xC33 JUMPI RETURNDATASIZE PUSH1 0x0 DUP1 RETURNDATACOPY RETURNDATASIZE PUSH1 0x0 REVERT JUMPDEST POP POP POP POP PUSH1 0x40 MLOAD RETURNDATASIZE PUSH1 0x1F NOT PUSH1 0x1F DUP3 ADD AND DUP3 ADD DUP1 PUSH1 0x40 MSTORE POP DUP2 ADD SWAP1 PUSH2 0xC57 SWAP2 SWAP1 PUSH2 0x34E1 JUMP JUMPDEST PUSH1 0x40 MLOAD PUSH1 0x1 PUSH1 0x1 PUSH1 0xE0 SHL SUB NOT PUSH1 0xE0 DUP5 SWAP1 SHL AND DUP2 MSTORE PUSH1 0x4 DUP2 ADD SWAP2 SWAP1 SWAP2 MSTORE CALLER PUSH1 0x24 DUP3 ADD MSTORE PUSH1 0x44 ADD PUSH1 0x20 PUSH1 0x40 MLOAD DUP1 DUP4 SUB DUP2 DUP7 GAS STATICCALL ISZERO DUP1 ISZERO PUSH2 0xC99 JUMPI RETURNDATASIZE PUSH1 0x0 DUP1 RETURNDATACOPY RETURNDATASIZE PUSH1 0x0 REVERT JUMPDEST POP POP POP POP PUSH1 0x40 MLOAD RETURNDATASIZE PUSH1 0x1F NOT PUSH1 0x1F DUP3 ADD AND DUP3 ADD DUP1 PUSH1 0x40 MSTORE POP DUP2 ADD SWAP1 PUSH2 0xCBD SWAP2 SWAP1 PUSH2 0x34FA JUMP JUMPDEST PUSH2 0xCD9 JUMPI PUSH1 0x40 MLOAD PUSH3 0x461BCD PUSH1 0xE5 SHL DUP2 MSTORE PUSH1 0x4 ADD PUSH2 0x5D2 SWAP1 PUSH2 0x3517 JUMP JUMPDEST PUSH1 0x1 PUSH1 0x1 PUSH1 0xA0 SHL SUB DUP2 AND PUSH2 0xD2F JUMPI PUSH1 0x40 MLOAD PUSH3 0x461BCD PUSH1 0xE5 SHL DUP2 MSTORE PUSH1 0x20 PUSH1 0x4 DUP3 ADD MSTORE PUSH1 0x1A PUSH1 0x24 DUP3 ADD MSTORE PUSH32 0x496E76616C69642061726269747261746F722061646472657373000000000000 PUSH1 0x44 DUP3 ADD MSTORE PUSH1 0x64 ADD PUSH2 0x5D2 JUMP JUMPDEST PUSH1 0x0 SWAP2 DUP3 MSTORE PUSH1 0x8 PUSH1 0x20 MSTORE PUSH1 0x40 SWAP1 SWAP2 KECCAK256 DUP1 SLOAD PUSH1 0x1 PUSH1 0x1 PUSH1 0xA0 SHL SUB NOT AND PUSH1 0x1 PUSH1 0x1 PUSH1 0xA0 SHL SUB SWAP1 SWAP3 AND SWAP2 SWAP1 SWAP2 OR SWAP1 SSTORE JUMP JUMPDEST PUSH1 0x2 SLOAD PUSH1 0x40 DUP1 MLOAD PUSH4 0xA217FDDF PUSH1 0xE0 SHL DUP2 MSTORE SWAP1 MLOAD PUSH1 0x1 PUSH1 0x1 PUSH1 0xA0 SHL SUB SWAP1 SWAP3 AND SWAP2 PUSH4 0x91D14854 SWAP2 DUP4 SWAP2 PUSH4 0xA217FDDF SWAP2 PUSH1 0x4 DUP1 DUP3 ADD SWAP3 PUSH1 0x20 SWAP3 SWAP1 SWAP2 SWAP1 DUP3 SWAP1 SUB ADD DUP2 DUP7 GAS STATICCALL ISZERO DUP1 ISZERO PUSH2 0xDAF JUMPI RETURNDATASIZE PUSH1 0x0 DUP1 RETURNDATACOPY RETURNDATASIZE PUSH1 0x0 REVERT JUMPDEST POP POP POP POP PUSH1 0x40 MLOAD RETURNDATASIZE PUSH1 0x1F NOT PUSH1 0x1F DUP3 ADD AND DUP3 ADD DUP1 PUSH1 0x40 MSTORE POP DUP2 ADD SWAP1 PUSH2 0xDD3 SWAP2 SWAP1 PUSH2 0x34E1 JUMP JUMPDEST PUSH1 0x40 MLOAD PUSH1 0x1 PUSH1 0x1 PUSH1 0xE0 SHL SUB NOT PUSH1 0xE0 DUP5 SWAP1 SHL AND DUP2 MSTORE PUSH1 0x4 DUP2 ADD SWAP2 SWAP1 SWAP2 MSTORE CALLER PUSH1 0x24 DUP3 ADD MSTORE PUSH1 0x44 ADD PUSH1 0x20 PUSH1 0x40 MLOAD DUP1 DUP4 SUB DUP2 DUP7 GAS STATICCALL ISZERO DUP1 ISZERO PUSH2 0xE15 JUMPI RETURNDATASIZE PUSH1 0x0 DUP1 RETURNDATACOPY RETURNDATASIZE PUSH1 0x0 REVERT JUMPDEST POP POP POP POP PUSH1 0x40 MLOAD RETURNDATASIZE PUSH1 0x1F NOT PUSH1 0x1F DUP3 ADD AND DUP3 ADD DUP1 PUSH1 0x40 MSTORE POP DUP2 ADD SWAP1 PUSH2 0xE39 SWAP2 SWAP1 PUSH2 0x34FA JUMP JUMPDEST PUSH2 0xE55 JUMPI PUSH1 0x40 MLOAD PUSH3 0x461BCD PUSH1 0xE5 SHL DUP2 MSTORE PUSH1 0x4 ADD PUSH2 0x5D2 SWAP1 PUSH2 0x3517 JUMP JUMPDEST PUSH2 0xE5D PUSH2 0x2987 JUMP JUMPDEST JUMP JUMPDEST PUSH1 0x0 DUP1 PUSH1 0x60 PUSH1 0x0 DUP1 PUSH1 0x0 DUP1 PUSH1 0x0 DUP1 PUSH1 0x0 DUP1 PUSH1 0x0 DUP1 PUSH1 0x7 PUSH1 0x0 DUP16 DUP2 MSTORE PUSH1 0x20 ADD SWAP1 DUP2 MSTORE PUSH1 0x20 ADD PUSH1 0x0 KECCAK256 SWAP1 POP DUP1 PUSH1 0x0 ADD PUSH1 0x0 SWAP1 SLOAD SWAP1 PUSH2 0x100 EXP SWAP1 DIV PUSH1 0x1 PUSH1 0x1 PUSH1 0xA0 SHL SUB AND DUP2 PUSH1 0x1 ADD PUSH1 0x0 SWAP1 SLOAD SWAP1 PUSH2 0x100 EXP SWAP1 DIV PUSH1 0x1 PUSH1 0x1 PUSH1 0xA0 SHL SUB AND DUP3 PUSH1 0x2 ADD DUP4 PUSH1 0x3 ADD SLOAD DUP5 PUSH1 0x4 ADD SLOAD DUP6 PUSH1 0x5 ADD SLOAD DUP7 PUSH1 0x6 ADD SLOAD DUP8 PUSH1 0x7 ADD PUSH1 0x0 SWAP1 SLOAD SWAP1 PUSH2 0x100 EXP SWAP1 DIV PUSH1 0xFF AND DUP9 PUSH1 0x8 ADD SLOAD DUP10 PUSH1 0x9 ADD SLOAD DUP11 PUSH1 0xA ADD SLOAD DUP12 PUSH1 0xB ADD DUP1 SLOAD SWAP1 POP DUP10 DUP1 SLOAD PUSH2 0xF05 SWAP1 PUSH2 0x353A JUMP JUMPDEST DUP1 PUSH1 0x1F ADD PUSH1 0x20 DUP1 SWAP2 DIV MUL PUSH1 0x20 ADD PUSH1 0x40 MLOAD SWAP1 DUP2 ADD PUSH1 0x40 MSTORE DUP1 SWAP3 SWAP2 SWAP1 DUP2 DUP2 MSTORE PUSH1 0x20 ADD DUP3 DUP1 SLOAD PUSH2 0xF31 SWAP1 PUSH2 0x353A JUMP JUMPDEST DUP1 ISZERO PUSH2 0xF7E JUMPI DUP1 PUSH1 0x1F LT PUSH2 0xF53 JUMPI PUSH2 0x100 DUP1 DUP4 SLOAD DIV MUL DUP4 MSTORE SWAP2 PUSH1 0x20 ADD SWAP2 PUSH2 0xF7E JUMP JUMPDEST DUP3 ADD SWAP2 SWAP1 PUSH1 0x0 MSTORE PUSH1 0x20 PUSH1 0x0 KECCAK256 SWAP1 JUMPDEST DUP2 SLOAD DUP2 MSTORE SWAP1 PUSH1 0x1 ADD SWAP1 PUSH1 0x20 ADD DUP1 DUP4 GT PUSH2 0xF61 JUMPI DUP3 SWAP1 SUB PUSH1 0x1F AND DUP3 ADD SWAP2 JUMPDEST POP POP POP POP POP SWAP10 POP SWAP13 POP SWAP13 POP SWAP13 POP SWAP13 POP SWAP13 POP SWAP13 POP SWAP13 POP SWAP13 POP SWAP13 POP SWAP13 POP SWAP13 POP SWAP13 POP POP SWAP2 SWAP4 SWAP6 SWAP8 SWAP10 SWAP12 POP SWAP2 SWAP4 SWAP6 SWAP8 SWAP10 SWAP12 JUMP JUMPDEST PUSH1 0x0 DUP2 DUP2 MSTORE PUSH1 0x7 PUSH1 0x20 MSTORE PUSH1 0x40 SWAP1 KECCAK256 SLOAD DUP2 SWAP1 PUSH1 0x1 PUSH1 0x1 PUSH1 0xA0 SHL SUB AND CALLER EQ DUP1 PUSH2 0xFED JUMPI POP PUSH1 0x0 DUP2 DUP2 MSTORE PUSH1 0x7 PUSH1 0x20 MSTORE PUSH1 0x40 SWAP1 KECCAK256 PUSH1 0x1 ADD SLOAD PUSH1 0x1 PUSH1 0x1 PUSH1 0xA0 SHL SUB AND CALLER EQ JUMPDEST PUSH2 0x1009 JUMPI PUSH1 0x40 MLOAD PUSH3 0x461BCD PUSH1 0xE5 SHL DUP2 MSTORE PUSH1 0x4 ADD PUSH2 0x5D2 SWAP1 PUSH2 0x3574 JUMP JUMPDEST PUSH2 0x1011 PUSH2 0x2963 JUMP JUMPDEST PUSH1 0x0 DUP3 DUP2 MSTORE PUSH1 0x7 PUSH1 0x20 MSTORE PUSH1 0x40 DUP2 KECCAK256 SWAP1 PUSH1 0x7 DUP3 ADD SLOAD PUSH1 0xFF AND PUSH1 0x5 DUP2 GT ISZERO PUSH2 0x1039 JUMPI PUSH2 0x1039 PUSH2 0x2CE4 JUMP JUMPDEST EQ DUP1 PUSH2 0x105D JUMPI POP PUSH1 0x1 PUSH1 0x7 DUP3 ADD SLOAD PUSH1 0xFF AND PUSH1 0x5 DUP2 GT ISZERO PUSH2 0x105B JUMPI PUSH2 0x105B PUSH2 0x2CE4 JUMP JUMPDEST EQ JUMPDEST PUSH2 0x10BA JUMPI PUSH1 0x40 MLOAD PUSH3 0x461BCD PUSH1 0xE5 SHL DUP2 MSTORE PUSH1 0x20 PUSH1 0x4 DUP3 ADD MSTORE PUSH1 0x28 PUSH1 0x24 DUP3 ADD MSTORE PUSH32 0x43616E6E6F742063616E63656C2061677265656D656E7420696E206375727265 PUSH1 0x44 DUP3 ADD MSTORE PUSH8 0x6E74207374617465 PUSH1 0xC0 SHL PUSH1 0x64 DUP3 ADD MSTORE PUSH1 0x84 ADD PUSH2 0x5D2 JUMP JUMPDEST PUSH1 0x0 DUP1 JUMPDEST PUSH1 0xB DUP4 ADD SLOAD DUP2 LT ISZERO PUSH2 0x111F JUMPI PUSH1 0x1 DUP4 PUSH1 0xB ADD DUP3 DUP2 SLOAD DUP2 LT PUSH2 0x10E1 JUMPI PUSH2 0x10E1 PUSH2 0x3453 JUMP JUMPDEST PUSH1 0x0 SWAP2 DUP3 MSTORE PUSH1 0x20 SWAP1 SWAP2 KECCAK256 PUSH1 0x2 PUSH1 0x6 SWAP1 SWAP3 MUL ADD DUP2 ADD SLOAD PUSH1 0xFF AND SWAP1 DUP2 GT ISZERO PUSH2 0x1109 JUMPI PUSH2 0x1109 PUSH2 0x2CE4 JUMP JUMPDEST SUB PUSH2 0x1117 JUMPI PUSH1 0x1 SWAP2 POP PUSH2 0x111F JUMP JUMPDEST PUSH1 0x1 ADD PUSH2 0x10BE JUMP JUMPDEST POP DUP1 ISZERO PUSH2 0x1187 JUMPI PUSH1 0x40 MLOAD PUSH3 0x461BCD PUSH1 0xE5 SHL DUP2 MSTORE PUSH1 0x20 PUSH1 0x4 DUP3 ADD MSTORE PUSH1 0x30 PUSH1 0x24 DUP3 ADD MSTORE PUSH32 0x43616E6E6F742063616E63656C2061677265656D656E74207769746820617070 PUSH1 0x44 DUP3 ADD MSTORE PUSH16 0x726F766564206D696C6573746F6E6573 PUSH1 0x80 SHL PUSH1 0x64 DUP3 ADD MSTORE PUSH1 0x84 ADD PUSH2 0x5D2 JUMP JUMPDEST PUSH1 0x8 DUP3 ADD SLOAD ISZERO PUSH2 0x1232 JUMPI DUP2 SLOAD PUSH1 0x8 DUP4 ADD SLOAD PUSH1 0x40 MLOAD PUSH1 0x0 SWAP3 PUSH1 0x1 PUSH1 0x1 PUSH1 0xA0 SHL SUB AND SWAP2 SWAP1 DUP4 DUP2 DUP2 DUP2 DUP6 DUP8 GAS CALL SWAP3 POP POP POP RETURNDATASIZE DUP1 PUSH1 0x0 DUP2 EQ PUSH2 0x11E1 JUMPI PUSH1 0x40 MLOAD SWAP2 POP PUSH1 0x1F NOT PUSH1 0x3F RETURNDATASIZE ADD AND DUP3 ADD PUSH1 0x40 MSTORE RETURNDATASIZE DUP3 MSTORE RETURNDATASIZE PUSH1 0x0 PUSH1 0x20 DUP5 ADD RETURNDATACOPY PUSH2 0x11E6 JUMP JUMPDEST PUSH1 0x60 SWAP2 POP JUMPDEST POP POP SWAP1 POP DUP1 PUSH2 0x1230 JUMPI PUSH1 0x40 MLOAD PUSH3 0x461BCD PUSH1 0xE5 SHL DUP2 MSTORE PUSH1 0x20 PUSH1 0x4 DUP3 ADD MSTORE PUSH1 0x16 PUSH1 0x24 DUP3 ADD MSTORE PUSH22 0x1499599D5B99081D1C985B9CD9995C8819985A5B1959 PUSH1 0x52 SHL PUSH1 0x44 DUP3 ADD MSTORE PUSH1 0x64 ADD PUSH2 0x5D2 JUMP JUMPDEST POP JUMPDEST PUSH1 0x7 DUP3 ADD DUP1 SLOAD PUSH1 0xFF NOT AND PUSH1 0x5 OR SWAP1 SSTORE PUSH1 0x40 MLOAD DUP5 SWAP1 PUSH32 0xCAE0523C4D6568388C55DCAEB921D927527A60000CA46ADFFEDDDF87225F0EC SWAP1 PUSH1 0x0 SWAP1 LOG2 POP POP POP POP JUMP JUMPDEST PUSH1 0x2 SLOAD PUSH1 0x40 MLOAD PUSH4 0x9F6BD2A9 PUSH1 0xE0 SHL DUP2 MSTORE CALLER PUSH1 0x4 DUP3 ADD MSTORE DUP6 SWAP2 PUSH1 0x1 PUSH1 0x1 PUSH1 0xA0 SHL SUB AND SWAP1 PUSH4 0x9F6BD2A9 SWAP1 PUSH1 0x24 ADD PUSH1 0x20 PUSH1 0x40 MLOAD DUP1 DUP4 SUB DUP2 DUP7 GAS STATICCALL ISZERO DUP1 ISZERO PUSH2 0x12BA JUMPI RETURNDATASIZE PUSH1 0x0 DUP1 RETURNDATACOPY RETURNDATASIZE PUSH1 0x0 REVERT JUMPDEST POP POP POP POP PUSH1 0x40 MLOAD RETURNDATASIZE PUSH1 0x1F NOT PUSH1 0x1F DUP3 ADD AND DUP3 ADD DUP1 PUSH1 0x40 MSTORE POP DUP2 ADD SWAP1 PUSH2 0x12DE SWAP2 SWAP1 PUSH2 0x34FA JUMP JUMPDEST PUSH2 0x131E JUMPI PUSH1 0x40 MLOAD PUSH3 0x461BCD PUSH1 0xE5 SHL DUP2 MSTORE PUSH1 0x20 PUSH1 0x4 DUP3 ADD MSTORE PUSH1 0x11 PUSH1 0x24 DUP3 ADD MSTORE PUSH17 0x2737BA1030B71030B93134BA3930BA37B9 PUSH1 0x79 SHL PUSH1 0x44 DUP3 ADD MSTORE PUSH1 0x64 ADD PUSH2 0x5D2 JUMP JUMPDEST PUSH1 0x0 DUP5 DUP2 MSTORE PUSH1 0x7 PUSH1 0x20 MSTORE PUSH1 0x40 SWAP1 KECCAK256 PUSH1 0x3 PUSH1 0x7 DUP3 ADD SLOAD PUSH1 0xFF AND PUSH1 0x5 DUP2 GT ISZERO PUSH2 0x1347 JUMPI PUSH2 0x1347 PUSH2 0x2CE4 JUMP JUMPDEST EQ PUSH2 0x1394 JUMPI PUSH1 0x40 MLOAD PUSH3 0x461BCD PUSH1 0xE5 SHL DUP2 MSTORE PUSH1 0x20 PUSH1 0x4 DUP3 ADD MSTORE PUSH1 0x1F PUSH1 0x24 DUP3 ADD MSTORE PUSH32 0x41677265656D656E74206E6F7420696E20646973707574656420737461746500 PUSH1 0x44 DUP3 ADD MSTORE PUSH1 0x64 ADD PUSH2 0x5D2 JUMP JUMPDEST DUP6 DUP2 PUSH1 0xA ADD SLOAD EQ PUSH2 0x13DD JUMPI PUSH1 0x40 MLOAD PUSH3 0x461BCD PUSH1 0xE5 SHL DUP2 MSTORE PUSH1 0x20 PUSH1 0x4 DUP3 ADD MSTORE PUSH1 0x13 PUSH1 0x24 DUP3 ADD MSTORE PUSH19 0x88D2E6E0EAE8CA40928840DAD2E6DAC2E8C6D PUSH1 0x6B SHL PUSH1 0x44 DUP3 ADD MSTORE PUSH1 0x64 ADD PUSH2 0x5D2 JUMP JUMPDEST DUP1 SLOAD PUSH1 0x1 PUSH1 0x1 PUSH1 0xA0 SHL SUB DUP6 DUP2 AND SWAP2 AND EQ DUP1 PUSH2 0x1407 JUMPI POP PUSH1 0x1 DUP2 ADD SLOAD PUSH1 0x1 PUSH1 0x1 PUSH1 0xA0 SHL SUB DUP6 DUP2 AND SWAP2 AND EQ JUMPDEST PUSH2 0x1453 JUMPI PUSH1 0x40 MLOAD PUSH3 0x461BCD PUSH1 0xE5 SHL DUP2 MSTORE PUSH1 0x20 PUSH1 0x4 DUP3 ADD DUP2 SWAP1 MSTORE PUSH1 0x24 DUP3 ADD MSTORE PUSH32 0x57696E6E6572206D75737420626520636C69656E74206F722063726561746F72 PUSH1 0x44 DUP3 ADD MSTORE PUSH1 0x64 ADD PUSH2 0x5D2 JUMP JUMPDEST PUSH1 0x0 DUP1 JUMPDEST DUP5 MLOAD DUP2 LT ISZERO PUSH2 0x148F JUMPI DUP5 DUP2 DUP2 MLOAD DUP2 LT PUSH2 0x1472 JUMPI PUSH2 0x1472 PUSH2 0x3453 JUMP JUMPDEST PUSH1 0x20 MUL PUSH1 0x20 ADD ADD MLOAD DUP3 PUSH2 0x1485 SWAP2 SWAP1 PUSH2 0x33D2 JUMP JUMPDEST SWAP2 POP PUSH1 0x1 ADD PUSH2 0x1457 JUMP JUMPDEST POP DUP2 PUSH1 0x8 ADD SLOAD DUP2 GT ISZERO PUSH2 0x14F2 JUMPI PUSH1 0x40 MLOAD PUSH3 0x461BCD PUSH1 0xE5 SHL DUP2 MSTORE PUSH1 0x20 PUSH1 0x4 DUP3 ADD MSTORE PUSH1 0x25 PUSH1 0x24 DUP3 ADD MSTORE PUSH32 0x526566756E6420616D6F756E74206578636565647320617661696C61626C6520 PUSH1 0x44 DUP3 ADD MSTORE PUSH5 0x66756E6473 PUSH1 0xD8 SHL PUSH1 0x64 DUP3 ADD MSTORE PUSH1 0x84 ADD PUSH2 0x5D2 JUMP JUMPDEST DUP2 SLOAD PUSH1 0x1 PUSH1 0x1 PUSH1 0xA0 SHL SUB SWAP1 DUP2 AND SWAP1 DUP7 AND SUB PUSH2 0x15C2 JUMPI DUP2 SLOAD PUSH1 0x40 MLOAD PUSH1 0x0 SWAP2 PUSH1 0x1 PUSH1 0x1 PUSH1 0xA0 SHL SUB AND SWAP1 DUP4 SWAP1 DUP4 DUP2 DUP2 DUP2 DUP6 DUP8 GAS CALL SWAP3 POP POP POP RETURNDATASIZE DUP1 PUSH1 0x0 DUP2 EQ PUSH2 0x1553 JUMPI PUSH1 0x40 MLOAD SWAP2 POP PUSH1 0x1F NOT PUSH1 0x3F RETURNDATASIZE ADD AND DUP3 ADD PUSH1 0x40 MSTORE RETURNDATASIZE DUP3 MSTORE RETURNDATASIZE PUSH1 0x0 PUSH1 0x20 DUP5 ADD RETURNDATACOPY PUSH2 0x1558 JUMP JUMPDEST PUSH1 0x60 SWAP2 POP JUMPDEST POP POP SWAP1 POP DUP1 PUSH2 0x15A2 JUMPI PUSH1 0x40 MLOAD PUSH3 0x461BCD PUSH1 0xE5 SHL DUP2 MSTORE PUSH1 0x20 PUSH1 0x4 DUP3 ADD MSTORE PUSH1 0x16 PUSH1 0x24 DUP3 ADD MSTORE PUSH22 0x1499599D5B99081D1C985B9CD9995C8819985A5B1959 PUSH1 0x52 SHL PUSH1 0x44 DUP3 ADD MSTORE PUSH1 0x64 ADD PUSH2 0x5D2 JUMP JUMPDEST DUP2 DUP4 PUSH1 0x8 ADD PUSH1 0x0 DUP3 DUP3 SLOAD PUSH2 0x15B6 SWAP2 SWAP1 PUSH2 0x33BF JUMP JUMPDEST SWAP1 SWAP2 SSTORE POP PUSH2 0x169D SWAP2 POP POP JUMP JUMPDEST PUSH1 0x1 DUP3 ADD SLOAD PUSH1 0x40 MLOAD PUSH1 0x0 SWAP2 PUSH1 0x1 PUSH1 0x1 PUSH1 0xA0 SHL SUB AND SWAP1 DUP4 SWAP1 DUP4 DUP2 DUP2 DUP2 DUP6 DUP8 GAS CALL SWAP3 POP POP POP RETURNDATASIZE DUP1 PUSH1 0x0 DUP2 EQ PUSH2 0x1611 JUMPI PUSH1 0x40 MLOAD SWAP2 POP PUSH1 0x1F NOT PUSH1 0x3F RETURNDATASIZE ADD AND DUP3 ADD PUSH1 0x40 MSTORE RETURNDATASIZE DUP3 MSTORE RETURNDATASIZE PUSH1 0x0 PUSH1 0x20 DUP5 ADD RETURNDATACOPY PUSH2 0x1616 JUMP JUMPDEST PUSH1 0x60 SWAP2 POP JUMPDEST POP POP SWAP1 POP DUP1 PUSH2 0x1667 JUMPI PUSH1 0x40 MLOAD PUSH3 0x461BCD PUSH1 0xE5 SHL DUP2 MSTORE PUSH1 0x20 PUSH1 0x4 DUP3 ADD MSTORE PUSH1 0x17 PUSH1 0x24 DUP3 ADD MSTORE PUSH32 0x5061796D656E74207472616E73666572206661696C6564000000000000000000 PUSH1 0x44 DUP3 ADD MSTORE PUSH1 0x64 ADD PUSH2 0x5D2 JUMP JUMPDEST DUP2 DUP4 PUSH1 0x8 ADD PUSH1 0x0 DUP3 DUP3 SLOAD PUSH2 0x167B SWAP2 SWAP1 PUSH2 0x33BF JUMP JUMPDEST SWAP3 POP POP DUP2 SWAP1 SSTORE POP DUP2 DUP4 PUSH1 0x9 ADD PUSH1 0x0 DUP3 DUP3 SLOAD PUSH2 0x1696 SWAP2 SWAP1 PUSH2 0x33D2 JUMP JUMPDEST SWAP1 SWAP2 SSTORE POP POP POP JUMPDEST DUP2 PUSH1 0x8 ADD SLOAD PUSH1 0x0 SUB PUSH2 0x16BD JUMPI PUSH1 0x7 DUP3 ADD DUP1 SLOAD PUSH1 0xFF NOT AND PUSH1 0x4 OR SWAP1 SSTORE PUSH2 0x16CD JUMP JUMPDEST PUSH1 0x7 DUP3 ADD DUP1 SLOAD PUSH1 0xFF NOT AND PUSH1 0x1 OR SWAP1 SSTORE JUMPDEST PUSH1 0x40 DUP1 MLOAD DUP8 DUP2 MSTORE PUSH1 0x1 PUSH1 0x1 PUSH1 0xA0 SHL SUB DUP8 AND PUSH1 0x20 DUP3 ADD MSTORE DUP9 SWAP2 PUSH32 0x653E6C047DD65627873719EEF14C02D5E2B4B0B6271F9C9DF08FA5B06107D579 SWAP2 ADD PUSH1 0x40 MLOAD DUP1 SWAP2 SUB SWAP1 LOG2 POP POP POP POP POP POP POP JUMP JUMPDEST PUSH1 0x0 PUSH1 0x1 PUSH1 0x1 PUSH1 0xA0 SHL SUB DUP7 AND PUSH2 0x1771 JUMPI PUSH1 0x40 MLOAD PUSH3 0x461BCD PUSH1 0xE5 SHL DUP2 MSTORE PUSH1 0x20 PUSH1 0x4 DUP3 ADD MSTORE PUSH1 0x17 PUSH1 0x24 DUP3 ADD MSTORE PUSH32 0x496E76616C69642063726561746F722061646472657373000000000000000000 PUSH1 0x44 DUP3 ADD MSTORE PUSH1 0x64 ADD PUSH2 0x5D2 JUMP JUMPDEST CALLER PUSH1 0x1 PUSH1 0x1 PUSH1 0xA0 SHL SUB DUP8 AND SUB PUSH2 0x17D7 JUMPI PUSH1 0x40 MLOAD PUSH3 0x461BCD PUSH1 0xE5 SHL DUP2 MSTORE PUSH1 0x20 PUSH1 0x4 DUP3 ADD MSTORE PUSH1 0x25 PUSH1 0x24 DUP3 ADD MSTORE PUSH32 0x436C69656E7420616E642063726561746F722063616E6E6F7420626520746865 PUSH1 0x44 DUP3 ADD MSTORE PUSH5 0x2073616D65 PUSH1 0xD8 SHL PUSH1 0x64 DUP3 ADD MSTORE PUSH1 0x84 ADD PUSH2 0x5D2 JUMP JUMPDEST PUSH1 0x3 DUP1 SLOAD PUSH1 0x0 SWAP2 DUP3 PUSH2 0x17E8 DUP4 PUSH2 0x35C1 JUMP JUMPDEST SWAP1 SWAP2 SSTORE POP PUSH1 0x0 DUP2 DUP2 MSTORE PUSH1 0x7 PUSH1 0x20 MSTORE PUSH1 0x40 SWAP1 KECCAK256 DUP1 SLOAD CALLER PUSH1 0x1 PUSH1 0x1 PUSH1 0xA0 SHL SUB NOT SWAP2 DUP3 AND OR DUP3 SSTORE PUSH1 0x1 DUP3 ADD DUP1 SLOAD SWAP1 SWAP2 AND PUSH1 0x1 PUSH1 0x1 PUSH1 0xA0 SHL SUB DUP12 AND OR SWAP1 SSTORE SWAP1 SWAP2 POP PUSH1 0x2 DUP2 ADD PUSH2 0x1833 DUP9 DUP3 PUSH2 0x3628 JUMP JUMPDEST POP TIMESTAMP PUSH1 0x5 DUP3 ADD SSTORE PUSH1 0x6 DUP2 ADD DUP7 SWAP1 SSTORE PUSH1 0x7 DUP2 ADD DUP1 SLOAD PUSH1 0xFF NOT SWAP1 DUP2 AND SWAP1 SWAP2 SSTORE PUSH1 0xC DUP3 ADD DUP1 SLOAD SWAP1 SWAP2 AND DUP7 ISZERO ISZERO OR SWAP1 SSTORE PUSH1 0xD DUP2 ADD PUSH2 0x186D DUP6 DUP3 PUSH2 0x3628 JUMP JUMPDEST POP PUSH2 0x187C CALLER DUP10 PUSH1 0x0 PUSH1 0x1 PUSH2 0x29D9 JUMP JUMPDEST DUP8 PUSH1 0x1 PUSH1 0x1 PUSH1 0xA0 SHL SUB AND CALLER PUSH1 0x1 PUSH1 0x1 PUSH1 0xA0 SHL SUB AND DUP4 PUSH32 0xA3019C2118D1F0FBC2B78ED5C045AC5B0D67E76749D5DCA1D62037C1F15E4B16 PUSH1 0x0 PUSH1 0x40 MLOAD PUSH2 0x18C3 SWAP2 DUP2 MSTORE PUSH1 0x20 ADD SWAP1 JUMP JUMPDEST PUSH1 0x40 MLOAD DUP1 SWAP2 SUB SWAP1 LOG4 DUP5 ISZERO PUSH2 0x190A JUMPI DUP2 PUSH32 0x1AAC851516327516022258CF2888076AFBB16BE0ADE1D5E81ADA634327FDEB1C DUP6 PUSH1 0x40 MLOAD PUSH2 0x1901 SWAP2 SWAP1 PUSH2 0x36E6 JUMP JUMPDEST PUSH1 0x40 MLOAD DUP1 SWAP2 SUB SWAP1 LOG2 JUMPDEST POP SWAP7 SWAP6 POP POP POP POP POP POP JUMP JUMPDEST PUSH1 0x0 DUP4 DUP2 MSTORE PUSH1 0x7 PUSH1 0x20 MSTORE PUSH1 0x40 SWAP1 KECCAK256 SLOAD DUP4 SWAP1 PUSH1 0x1 PUSH1 0x1 PUSH1 0xA0 SHL SUB AND CALLER EQ PUSH2 0x194D JUMPI PUSH1 0x40 MLOAD PUSH3 0x461BCD PUSH1 0xE5 SHL DUP2 MSTORE PUSH1 0x4 ADD PUSH2 0x5D2 SWAP1 PUSH2 0x3328 JUMP JUMPDEST PUSH2 0x1955 PUSH2 0x2963 JUMP JUMPDEST PUSH1 0x0 DUP5 DUP2 MSTORE PUSH1 0x7 PUSH1 0x20 MSTORE PUSH1 0x40 SWAP1 KECCAK256 PUSH1 0x1 PUSH1 0x7 DUP3 ADD SLOAD PUSH1 0xFF AND PUSH1 0x5 DUP2 GT ISZERO PUSH2 0x197E JUMPI PUSH2 0x197E PUSH2 0x2CE4 JUMP JUMPDEST EQ PUSH2 0x199B JUMPI PUSH1 0x40 MLOAD PUSH3 0x461BCD PUSH1 0xE5 SHL DUP2 MSTORE PUSH1 0x4 ADD PUSH2 0x5D2 SWAP1 PUSH2 0x33E5 JUMP JUMPDEST PUSH1 0xB DUP2 ADD SLOAD DUP5 LT PUSH2 0x19BE JUMPI PUSH1 0x40 MLOAD PUSH3 0x461BCD PUSH1 0xE5 SHL DUP2 MSTORE PUSH1 0x4 ADD PUSH2 0x5D2 SWAP1 PUSH2 0x341C JUMP JUMPDEST PUSH1 0x0 DUP2 PUSH1 0xB ADD DUP6 DUP2 SLOAD DUP2 LT PUSH2 0x19D5 JUMPI PUSH2 0x19D5 PUSH2 0x3453 JUMP JUMPDEST PUSH1 0x0 SWAP2 DUP3 MSTORE PUSH1 0x20 DUP3 KECCAK256 PUSH1 0x6 SWAP1 SWAP2 MUL ADD SWAP2 POP PUSH1 0x2 DUP1 DUP4 ADD SLOAD PUSH1 0xFF AND SWAP1 DUP2 GT ISZERO PUSH2 0x19FF JUMPI PUSH2 0x19FF PUSH2 0x2CE4 JUMP JUMPDEST EQ PUSH2 0x1A1C JUMPI PUSH1 0x40 MLOAD PUSH3 0x461BCD PUSH1 0xE5 SHL DUP2 MSTORE PUSH1 0x4 ADD PUSH2 0x5D2 SWAP1 PUSH2 0x3469 JUMP JUMPDEST PUSH1 0x0 DUP2 PUSH1 0x3 ADD SLOAD GT PUSH2 0x1A40 JUMPI PUSH1 0x40 MLOAD PUSH3 0x461BCD PUSH1 0xE5 SHL DUP2 MSTORE PUSH1 0x4 ADD PUSH2 0x5D2 SWAP1 PUSH2 0x34A0 JUMP JUMPDEST PUSH1 0x2 DUP2 DUP2 ADD DUP1 SLOAD PUSH1 0xFF NOT AND PUSH1 0x1 DUP4 MUL OR SWAP1 SSTORE POP DUP6 PUSH32 0x2632A738857D774F3179ABEE0FA205787AEA133C8F6D4CBFE4E605028D3E8230 DUP7 DUP7 PUSH1 0x40 MLOAD PUSH2 0x1A85 SWAP3 SWAP2 SWAP1 PUSH2 0x36F9 JUMP JUMPDEST PUSH1 0x40 MLOAD DUP1 SWAP2 SUB SWAP1 LOG2 POP POP POP POP POP POP JUMP JUMPDEST PUSH1 0x2 SLOAD PUSH1 0x40 DUP1 MLOAD PUSH4 0xA217FDDF PUSH1 0xE0 SHL DUP2 MSTORE SWAP1 MLOAD PUSH1 0x1 PUSH1 0x1 PUSH1 0xA0 SHL SUB SWAP1 SWAP3 AND SWAP2 PUSH4 0x91D14854 SWAP2 DUP4 SWAP2 PUSH4 0xA217FDDF SWAP2 PUSH1 0x4 DUP1 DUP3 ADD SWAP3 PUSH1 0x20 SWAP3 SWAP1 SWAP2 SWAP1 DUP3 SWAP1 SUB ADD DUP2 DUP7 GAS STATICCALL ISZERO DUP1 ISZERO PUSH2 0x1AE7 JUMPI RETURNDATASIZE PUSH1 0x0 DUP1 RETURNDATACOPY RETURNDATASIZE PUSH1 0x0 REVERT JUMPDEST POP POP POP POP PUSH1 0x40 MLOAD RETURNDATASIZE PUSH1 0x1F NOT PUSH1 0x1F DUP3 ADD AND DUP3 ADD DUP1 PUSH1 0x40 MSTORE POP DUP2 ADD SWAP1 PUSH2 0x1B0B SWAP2 SWAP1 PUSH2 0x34E1 JUMP JUMPDEST PUSH1 0x40 MLOAD PUSH1 0x1 PUSH1 0x1 PUSH1 0xE0 SHL SUB NOT PUSH1 0xE0 DUP5 SWAP1 SHL AND DUP2 MSTORE PUSH1 0x4 DUP2 ADD SWAP2 SWAP1 SWAP2 MSTORE CALLER PUSH1 0x24 DUP3 ADD MSTORE PUSH1 0x44 ADD PUSH1 0x20 PUSH1 0x40 MLOAD DUP1 DUP4 SUB DUP2 DUP7 GAS STATICCALL ISZERO DUP1 ISZERO PUSH2 0x1B4D JUMPI RETURNDATASIZE PUSH1 0x0 DUP1 RETURNDATACOPY RETURNDATASIZE PUSH1 0x0 REVERT JUMPDEST POP POP POP POP PUSH1 0x40 MLOAD RETURNDATASIZE PUSH1 0x1F NOT PUSH1 0x1F DUP3 ADD AND DUP3 ADD DUP1 PUSH1 0x40 MSTORE POP DUP2 ADD SWAP1 PUSH2 0x1B71 SWAP2 SWAP1 PUSH2 0x34FA JUMP JUMPDEST PUSH2 0x1B8D JUMPI PUSH1 0x40 MLOAD PUSH3 0x461BCD PUSH1 0xE5 SHL DUP2 MSTORE PUSH1 0x4 ADD PUSH2 0x5D2 SWAP1 PUSH2 0x3517 JUMP JUMPDEST PUSH2 0xE5D PUSH2 0x2BE1 JUMP JUMPDEST PUSH1 0x0 DUP3 DUP2 MSTORE PUSH1 0x7 PUSH1 0x20 MSTORE PUSH1 0x40 DUP2 KECCAK256 PUSH1 0xB DUP2 ADD SLOAD PUSH1 0x60 SWAP3 SWAP2 DUP3 SWAP2 DUP3 SWAP2 SWAP1 DUP7 LT PUSH2 0x1BCF JUMPI PUSH1 0x40 MLOAD PUSH3 0x461BCD PUSH1 0xE5 SHL DUP2 MSTORE PUSH1 0x4 ADD PUSH2 0x5D2 SWAP1 PUSH2 0x341C JUMP JUMPDEST PUSH1 0x0 DUP2 PUSH1 0xB ADD DUP8 DUP2 SLOAD DUP2 LT PUSH2 0x1BE6 JUMPI PUSH2 0x1BE6 PUSH2 0x3453 JUMP JUMPDEST SWAP1 PUSH1 0x0 MSTORE PUSH1 0x20 PUSH1 0x0 KECCAK256 SWAP1 PUSH1 0x6 MUL ADD SWAP1 POP DUP1 PUSH1 0x0 ADD DUP2 PUSH1 0x1 ADD SLOAD DUP3 PUSH1 0x2 ADD PUSH1 0x0 SWAP1 SLOAD SWAP1 PUSH2 0x100 EXP SWAP1 DIV PUSH1 0xFF AND DUP4 PUSH1 0x3 ADD SLOAD DUP4 DUP1 SLOAD PUSH2 0x1C22 SWAP1 PUSH2 0x353A JUMP JUMPDEST DUP1 PUSH1 0x1F ADD PUSH1 0x20 DUP1 SWAP2 DIV MUL PUSH1 0x20 ADD PUSH1 0x40 MLOAD SWAP1 DUP2 ADD PUSH1 0x40 MSTORE DUP1 SWAP3 SWAP2 SWAP1 DUP2 DUP2 MSTORE PUSH1 0x20 ADD DUP3 DUP1 SLOAD PUSH2 0x1C4E SWAP1 PUSH2 0x353A JUMP JUMPDEST DUP1 ISZERO PUSH2 0x1C9B JUMPI DUP1 PUSH1 0x1F LT PUSH2 0x1C70 JUMPI PUSH2 0x100 DUP1 DUP4 SLOAD DIV MUL DUP4 MSTORE SWAP2 PUSH1 0x20 ADD SWAP2 PUSH2 0x1C9B JUMP JUMPDEST DUP3 ADD SWAP2 SWAP1 PUSH1 0x0 MSTORE PUSH1 0x20 PUSH1 0x0 KECCAK256 SWAP1 JUMPDEST DUP2 SLOAD DUP2 MSTORE SWAP1 PUSH1 0x1 ADD SWAP1 PUSH1 0x20 ADD DUP1 DUP4 GT PUSH2 0x1C7E JUMPI DUP3 SWAP1 SUB PUSH1 0x1F AND DUP3 ADD SWAP2 JUMPDEST POP POP POP POP POP SWAP4 POP SWAP6 POP SWAP6 POP SWAP6 POP SWAP6 POP POP POP SWAP3 SWAP6 SWAP2 SWAP5 POP SWAP3 POP JUMP JUMPDEST PUSH1 0x0 DUP4 DUP2 MSTORE PUSH1 0x7 PUSH1 0x20 MSTORE PUSH1 0x40 SWAP1 KECCAK256 SLOAD DUP4 SWAP1 PUSH1 0x1 PUSH1 0x1 PUSH1 0xA0 SHL SUB AND CALLER EQ DUP1 PUSH2 0x1CF5 JUMPI POP PUSH1 0x0 DUP2 DUP2 MSTORE PUSH1 0x7 PUSH1 0x20 MSTORE PUSH1 0x40 SWAP1 KECCAK256 PUSH1 0x1 ADD SLOAD PUSH1 0x1 PUSH1 0x1 PUSH1 0xA0 SHL SUB AND CALLER EQ JUMPDEST PUSH2 0x1D11 JUMPI PUSH1 0x40 MLOAD PUSH3 0x461BCD PUSH1 0xE5 SHL DUP2 MSTORE PUSH1 0x4 ADD PUSH2 0x5D2 SWAP1 PUSH2 0x3574 JUMP JUMPDEST PUSH1 0x0 DUP5 DUP2 MSTORE PUSH1 0x7 PUSH1 0x20 MSTORE PUSH1 0x40 DUP2 KECCAK256 SWAP1 PUSH1 0x7 DUP3 ADD SLOAD PUSH1 0xFF AND PUSH1 0x5 DUP2 GT ISZERO PUSH2 0x1D39 JUMPI PUSH2 0x1D39 PUSH2 0x2CE4 JUMP JUMPDEST EQ DUP1 PUSH2 0x1D5D JUMPI POP PUSH1 0x1 PUSH1 0x7 DUP3 ADD SLOAD PUSH1 0xFF AND PUSH1 0x5 DUP2 GT ISZERO PUSH2 0x1D5B JUMPI PUSH2 0x1D5B PUSH2 0x2CE4 JUMP JUMPDEST EQ JUMPDEST PUSH2 0x1DC4 JUMPI PUSH1 0x40 MLOAD PUSH3 0x461BCD PUSH1 0xE5 SHL DUP2 MSTORE PUSH1 0x20 PUSH1 0x4 DUP3 ADD MSTORE PUSH1 0x32 PUSH1 0x24 DUP3 ADD MSTORE PUSH32 0x43616E6E6F7420616464206D696C6573746F6E6520746F2061677265656D656E PUSH1 0x44 DUP3 ADD MSTORE PUSH18 0x7420696E2063757272656E74207374617465 PUSH1 0x70 SHL PUSH1 0x64 DUP3 ADD MSTORE PUSH1 0x84 ADD PUSH2 0x5D2 JUMP JUMPDEST PUSH1 0x40 DUP1 MLOAD PUSH2 0x100 DUP2 ADD DUP3 MSTORE DUP6 DUP2 MSTORE PUSH1 0x20 DUP1 DUP3 ADD DUP7 SWAP1 MSTORE PUSH1 0x0 SWAP3 DUP3 ADD DUP4 SWAP1 MSTORE PUSH1 0x60 DUP3 ADD DUP4 SWAP1 MSTORE PUSH1 0x80 DUP3 ADD DUP4 SWAP1 MSTORE PUSH1 0xA0 DUP3 ADD DUP4 SWAP1 MSTORE PUSH1 0xC0 DUP3 ADD DUP4 SWAP1 MSTORE PUSH1 0xE0 DUP3 ADD DUP4 SWAP1 MSTORE PUSH1 0xB DUP5 ADD DUP1 SLOAD PUSH1 0x1 DUP2 ADD DUP3 SSTORE SWAP1 DUP5 MSTORE SWAP3 KECCAK256 DUP2 MLOAD SWAP2 SWAP3 DUP4 SWAP3 PUSH1 0x6 SWAP1 SWAP2 MUL SWAP1 SWAP2 ADD SWAP1 DUP2 SWAP1 PUSH2 0x1E31 SWAP1 DUP3 PUSH2 0x3628 JUMP JUMPDEST POP PUSH1 0x20 DUP3 ADD MLOAD DUP2 PUSH1 0x1 ADD SSTORE PUSH1 0x40 DUP3 ADD MLOAD DUP2 PUSH1 0x2 ADD PUSH1 0x0 PUSH2 0x100 EXP DUP2 SLOAD DUP2 PUSH1 0xFF MUL NOT AND SWAP1 DUP4 PUSH1 0x2 DUP2 GT ISZERO PUSH2 0x1E66 JUMPI PUSH2 0x1E66 PUSH2 0x2CE4 JUMP JUMPDEST MUL OR SWAP1 SSTORE POP PUSH1 0x60 DUP3 ADD MLOAD PUSH1 0x3 DUP1 DUP4 ADD SWAP2 SWAP1 SWAP2 SSTORE PUSH1 0x80 DUP4 ADD MLOAD PUSH1 0x4 DUP4 ADD SSTORE PUSH1 0xA0 DUP4 ADD MLOAD PUSH1 0x5 SWAP1 SWAP3 ADD DUP1 SLOAD PUSH1 0xC0 DUP6 ADD MLOAD PUSH1 0xE0 SWAP1 SWAP6 ADD MLOAD ISZERO ISZERO PUSH3 0x10000 MUL PUSH3 0xFF0000 NOT SWAP6 ISZERO ISZERO PUSH2 0x100 MUL PUSH2 0xFF00 NOT SWAP6 ISZERO ISZERO SWAP6 SWAP1 SWAP6 AND PUSH2 0xFFFF NOT SWAP1 SWAP3 AND SWAP2 SWAP1 SWAP2 OR SWAP4 SWAP1 SWAP4 OR SWAP4 SWAP1 SWAP4 AND SWAP2 SWAP1 SWAP2 OR SWAP1 SWAP2 SSTORE DUP3 ADD DUP1 SLOAD DUP6 SWAP2 SWAP1 PUSH1 0x0 SWAP1 PUSH2 0x1EE7 SWAP1 DUP5 SWAP1 PUSH2 0x33D2 JUMP JUMPDEST SWAP1 SWAP2 SSTORE POP POP PUSH1 0xB DUP3 ADD SLOAD DUP7 SWAP1 PUSH32 0xC67423104BF96F5CA8826913AE711E8C2254E1B2C04AF907B2312853ED4CBED2 SWAP1 PUSH2 0x1F21 SWAP1 PUSH1 0x1 SWAP1 PUSH2 0x33BF JUMP JUMPDEST DUP8 DUP8 PUSH1 0x40 MLOAD PUSH2 0x1A85 SWAP4 SWAP3 SWAP2 SWAP1 PUSH2 0x371A JUMP JUMPDEST PUSH1 0x0 DUP2 DUP2 MSTORE PUSH1 0x7 PUSH1 0x20 MSTORE PUSH1 0x40 SWAP1 KECCAK256 PUSH1 0xB DUP2 ADD SLOAD PUSH1 0x60 SWAP2 DUP3 SWAP2 DUP3 SWAP2 DUP3 SWAP2 DUP1 PUSH1 0x1 PUSH1 0x1 PUSH1 0x40 SHL SUB DUP2 GT ISZERO PUSH2 0x1F66 JUMPI PUSH2 0x1F66 PUSH2 0x2E1C JUMP JUMPDEST PUSH1 0x40 MLOAD SWAP1 DUP1 DUP3 MSTORE DUP1 PUSH1 0x20 MUL PUSH1 0x20 ADD DUP3 ADD PUSH1 0x40 MSTORE DUP1 ISZERO PUSH2 0x1F99 JUMPI DUP2 PUSH1 0x20 ADD JUMPDEST PUSH1 0x60 DUP2 MSTORE PUSH1 0x20 ADD SWAP1 PUSH1 0x1 SWAP1 SUB SWAP1 DUP2 PUSH2 0x1F84 JUMPI SWAP1 POP JUMPDEST POP SWAP6 POP DUP1 PUSH1 0x1 PUSH1 0x1 PUSH1 0x40 SHL SUB DUP2 GT ISZERO PUSH2 0x1FB4 JUMPI PUSH2 0x1FB4 PUSH2 0x2E1C JUMP JUMPDEST PUSH1 0x40 MLOAD SWAP1 DUP1 DUP3 MSTORE DUP1 PUSH1 0x20 MUL PUSH1 0x20 ADD DUP3 ADD PUSH1 0x40 MSTORE DUP1 ISZERO PUSH2 0x1FDD JUMPI DUP2 PUSH1 0x20 ADD PUSH1 0x20 DUP3 MUL DUP1 CALLDATASIZE DUP4 CALLDATACOPY ADD SWAP1 POP JUMPDEST POP SWAP5 POP DUP1 PUSH1 0x1 PUSH1 0x1 PUSH1 0x40 SHL SUB DUP2 GT ISZERO PUSH2 0x1FF8 JUMPI PUSH2 0x1FF8 PUSH2 0x2E1C JUMP JUMPDEST PUSH1 0x40 MLOAD SWAP1 DUP1 DUP3 MSTORE DUP1 PUSH1 0x20 MUL PUSH1 0x20 ADD DUP3 ADD PUSH1 0x40 MSTORE DUP1 ISZERO PUSH2 0x2021 JUMPI DUP2 PUSH1 0x20 ADD PUSH1 0x20 DUP3 MUL DUP1 CALLDATASIZE DUP4 CALLDATACOPY ADD SWAP1 POP JUMPDEST POP SWAP4 POP DUP1 PUSH1 0x1 PUSH1 0x1 PUSH1 0x40 SHL SUB DUP2 GT ISZERO PUSH2 0x203C JUMPI PUSH2 0x203C PUSH2 0x2E1C JUMP JUMPDEST PUSH1 0x40 MLOAD SWAP1 DUP1 DUP3 MSTORE DUP1 PUSH1 0x20 MUL PUSH1 0x20 ADD DUP3 ADD PUSH1 0x40 MSTORE DUP1 ISZERO PUSH2 0x2065 JUMPI DUP2 PUSH1 0x20 ADD PUSH1 0x20 DUP3 MUL DUP1 CALLDATASIZE DUP4 CALLDATACOPY ADD SWAP1 POP JUMPDEST POP SWAP3 POP PUSH1 0x0 JUMPDEST DUP2 DUP2 LT ISZERO PUSH2 0x21E0 JUMPI PUSH1 0x0 DUP4 PUSH1 0xB ADD DUP3 DUP2 SLOAD DUP2 LT PUSH2 0x208A JUMPI PUSH2 0x208A PUSH2 0x3453 JUMP JUMPDEST SWAP1 PUSH1 0x0 MSTORE PUSH1 0x20 PUSH1 0x0 KECCAK256 SWAP1 PUSH1 0x6 MUL ADD SWAP1 POP DUP1 PUSH1 0x0 ADD DUP1 SLOAD PUSH2 0x20A9 SWAP1 PUSH2 0x353A JUMP JUMPDEST DUP1 PUSH1 0x1F ADD PUSH1 0x20 DUP1 SWAP2 DIV MUL PUSH1 0x20 ADD PUSH1 0x40 MLOAD SWAP1 DUP2 ADD PUSH1 0x40 MSTORE DUP1 SWAP3 SWAP2 SWAP1 DUP2 DUP2 MSTORE PUSH1 0x20 ADD DUP3 DUP1 SLOAD PUSH2 0x20D5 SWAP1 PUSH2 0x353A JUMP JUMPDEST DUP1 ISZERO PUSH2 0x2122 JUMPI DUP1 PUSH1 0x1F LT PUSH2 0x20F7 JUMPI PUSH2 0x100 DUP1 DUP4 SLOAD DIV MUL DUP4 MSTORE SWAP2 PUSH1 0x20 ADD SWAP2 PUSH2 0x2122 JUMP JUMPDEST DUP3 ADD SWAP2 SWAP1 PUSH1 0x0 MSTORE PUSH1 0x20 PUSH1 0x0 KECCAK256 SWAP1 JUMPDEST DUP2 SLOAD DUP2 MSTORE SWAP1 PUSH1 0x1 ADD SWAP1 PUSH1 0x20 ADD DUP1 DUP4 GT PUSH2 0x2105 JUMPI DUP3 SWAP1 SUB PUSH1 0x1F AND DUP3 ADD SWAP2 JUMPDEST POP POP POP POP POP DUP9 DUP4 DUP2 MLOAD DUP2 LT PUSH2 0x2139 JUMPI PUSH2 0x2139 PUSH2 0x3453 JUMP JUMPDEST PUSH1 0x20 MUL PUSH1 0x20 ADD ADD DUP2 SWAP1 MSTORE POP DUP1 PUSH1 0x1 ADD SLOAD DUP8 DUP4 DUP2 MLOAD DUP2 LT PUSH2 0x215B JUMPI PUSH2 0x215B PUSH2 0x3453 JUMP JUMPDEST PUSH1 0x20 SWAP1 DUP2 MUL SWAP2 SWAP1 SWAP2 ADD ADD MSTORE PUSH1 0x2 DUP2 ADD SLOAD DUP7 MLOAD PUSH1 0xFF SWAP1 SWAP2 AND SWAP1 DUP8 SWAP1 DUP5 SWAP1 DUP2 LT PUSH2 0x2185 JUMPI PUSH2 0x2185 PUSH2 0x3453 JUMP JUMPDEST PUSH1 0x20 MUL PUSH1 0x20 ADD ADD SWAP1 PUSH1 0x2 DUP2 GT ISZERO PUSH2 0x219E JUMPI PUSH2 0x219E PUSH2 0x2CE4 JUMP JUMPDEST SWAP1 DUP2 PUSH1 0x2 DUP2 GT ISZERO PUSH2 0x21B1 JUMPI PUSH2 0x21B1 PUSH2 0x2CE4 JUMP JUMPDEST DUP2 MSTORE POP POP DUP1 PUSH1 0x3 ADD SLOAD DUP6 DUP4 DUP2 MLOAD DUP2 LT PUSH2 0x21CC JUMPI PUSH2 0x21CC PUSH2 0x3453 JUMP JUMPDEST PUSH1 0x20 SWAP1 DUP2 MUL SWAP2 SWAP1 SWAP2 ADD ADD MSTORE POP PUSH1 0x1 ADD PUSH2 0x206B JUMP JUMPDEST POP POP POP SWAP2 SWAP4 POP SWAP2 SWAP4 JUMP JUMPDEST PUSH1 0x2 SLOAD PUSH1 0x40 DUP1 MLOAD PUSH4 0xA217FDDF PUSH1 0xE0 SHL DUP2 MSTORE SWAP1 MLOAD PUSH1 0x1 PUSH1 0x1 PUSH1 0xA0 SHL SUB SWAP1 SWAP3 AND SWAP2 PUSH4 0x91D14854 SWAP2 DUP4 SWAP2 PUSH4 0xA217FDDF SWAP2 PUSH1 0x4 DUP1 DUP3 ADD SWAP3 PUSH1 0x20 SWAP3 SWAP1 SWAP2 SWAP1 DUP3 SWAP1 SUB ADD DUP2 DUP7 GAS STATICCALL ISZERO DUP1 ISZERO PUSH2 0x223C JUMPI RETURNDATASIZE PUSH1 0x0 DUP1 RETURNDATACOPY RETURNDATASIZE PUSH1 0x0 REVERT JUMPDEST POP POP POP POP PUSH1 0x40 MLOAD RETURNDATASIZE PUSH1 0x1F NOT PUSH1 0x1F DUP3 ADD AND DUP3 ADD DUP1 PUSH1 0x40 MSTORE POP DUP2 ADD SWAP1 PUSH2 0x2260 SWAP2 SWAP1 PUSH2 0x34E1 JUMP JUMPDEST PUSH1 0x40 MLOAD PUSH1 0x1 PUSH1 0x1 PUSH1 0xE0 SHL SUB NOT PUSH1 0xE0 DUP5 SWAP1 SHL AND DUP2 MSTORE PUSH1 0x4 DUP2 ADD SWAP2 SWAP1 SWAP2 MSTORE CALLER PUSH1 0x24 DUP3 ADD MSTORE PUSH1 0x44 ADD PUSH1 0x20 PUSH1 0x40 MLOAD DUP1 DUP4 SUB DUP2 DUP7 GAS STATICCALL ISZERO DUP1 ISZERO PUSH2 0x22A2 JUMPI RETURNDATASIZE PUSH1 0x0 DUP1 RETURNDATACOPY RETURNDATASIZE PUSH1 0x0 REVERT JUMPDEST POP POP POP POP PUSH1 0x40 MLOAD RETURNDATASIZE PUSH1 0x1F NOT PUSH1 0x1F DUP3 ADD AND DUP3 ADD DUP1 PUSH1 0x40 MSTORE POP DUP2 ADD SWAP1 PUSH2 0x22C6 SWAP2 SWAP1 PUSH2 0x34FA JUMP JUMPDEST PUSH2 0x22E2 JUMPI PUSH1 0x40 MLOAD PUSH3 0x461BCD PUSH1 0xE5 SHL DUP2 MSTORE PUSH1 0x4 ADD PUSH2 0x5D2 SWAP1 PUSH2 0x3517 JUMP JUMPDEST PUSH1 0x14 DUP2 GT ISZERO PUSH2 0x2333 JUMPI PUSH1 0x40 MLOAD PUSH3 0x461BCD PUSH1 0xE5 SHL DUP2 MSTORE PUSH1 0x20 PUSH1 0x4 DUP3 ADD DUP2 SWAP1 MSTORE PUSH1 0x24 DUP3 ADD MSTORE PUSH32 0x4665652070657263656E746167652063616E6E6F742065786365656420323025 PUSH1 0x44 DUP3 ADD MSTORE PUSH1 0x64 ADD PUSH2 0x5D2 JUMP JUMPDEST PUSH1 0x5 SSTORE JUMP JUMPDEST PUSH1 0x7 PUSH1 0x20 MSTORE PUSH1 0x0 SWAP1 DUP2 MSTORE PUSH1 0x40 SWAP1 KECCAK256 DUP1 SLOAD PUSH1 0x1 DUP3 ADD SLOAD PUSH1 0x2 DUP4 ADD DUP1 SLOAD PUSH1 0x1 PUSH1 0x1 PUSH1 0xA0 SHL SUB SWAP4 DUP5 AND SWAP5 SWAP3 SWAP1 SWAP4 AND SWAP3 PUSH2 0x236D SWAP1 PUSH2 0x353A JUMP JUMPDEST DUP1 PUSH1 0x1F ADD PUSH1 0x20 DUP1 SWAP2 DIV MUL PUSH1 0x20 ADD PUSH1 0x40 MLOAD SWAP1 DUP2 ADD PUSH1 0x40 MSTORE DUP1 SWAP3 SWAP2 SWAP1 DUP2 DUP2 MSTORE PUSH1 0x20 ADD DUP3 DUP1 SLOAD PUSH2 0x2399 SWAP1 PUSH2 0x353A JUMP JUMPDEST DUP1 ISZERO PUSH2 0x23E6 JUMPI DUP1 PUSH1 0x1F LT PUSH2 0x23BB JUMPI PUSH2 0x100 DUP1 DUP4 SLOAD DIV MUL DUP4 MSTORE SWAP2 PUSH1 0x20 ADD SWAP2 PUSH2 0x23E6 JUMP JUMPDEST DUP3 ADD SWAP2 SWAP1 PUSH1 0x0 MSTORE PUSH1 0x20 PUSH1 0x0 KECCAK256 SWAP1 JUMPDEST DUP2 SLOAD DUP2 MSTORE SWAP1 PUSH1 0x1 ADD SWAP1 PUSH1 0x20 ADD DUP1 DUP4 GT PUSH2 0x23C9 JUMPI DUP3 SWAP1 SUB PUSH1 0x1F AND DUP3 ADD SWAP2 JUMPDEST POP POP POP POP POP SWAP1 DUP1 PUSH1 0x3 ADD SLOAD SWAP1 DUP1 PUSH1 0x4 ADD SLOAD SWAP1 DUP1 PUSH1 0x5 ADD SLOAD SWAP1 DUP1 PUSH1 0x6 ADD SLOAD SWAP1 DUP1 PUSH1 0x7 ADD PUSH1 0x0 SWAP1 SLOAD SWAP1 PUSH2 0x100 EXP SWAP1 DIV PUSH1 0xFF AND SWAP1 DUP1 PUSH1 0x8 ADD SLOAD SWAP1 DUP1 PUSH1 0x9 ADD SLOAD SWAP1 DUP1 PUSH1 0xA ADD SLOAD SWAP1 DUP1 PUSH1 0xC ADD PUSH1 0x0 SWAP1 SLOAD SWAP1 PUSH2 0x100 EXP SWAP1 DIV PUSH1 0xFF AND SWAP1 DUP1 PUSH1 0xD ADD DUP1 SLOAD PUSH2 0x244B SWAP1 PUSH2 0x353A JUMP JUMPDEST DUP1 PUSH1 0x1F ADD PUSH1 0x20 DUP1 SWAP2 DIV MUL PUSH1 0x20 ADD PUSH1 0x40 MLOAD SWAP1 DUP2 ADD PUSH1 0x40 MSTORE DUP1 SWAP3 SWAP2 SWAP1 DUP2 DUP2 MSTORE PUSH1 0x20 ADD DUP3 DUP1 SLOAD PUSH2 0x2477 SWAP1 PUSH2 0x353A JUMP JUMPDEST DUP1 ISZERO PUSH2 0x24C4 JUMPI DUP1 PUSH1 0x1F LT PUSH2 0x2499 JUMPI PUSH2 0x100 DUP1 DUP4 SLOAD DIV MUL DUP4 MSTORE SWAP2 PUSH1 0x20 ADD SWAP2 PUSH2 0x24C4 JUMP JUMPDEST DUP3 ADD SWAP2 SWAP1 PUSH1 0x0 MSTORE PUSH1 0x20 PUSH1 0x0 KECCAK256 SWAP1 JUMPDEST DUP2 SLOAD DUP2 MSTORE SWAP1 PUSH1 0x1 ADD SWAP1 PUSH1 0x20 ADD DUP1 DUP4 GT PUSH2 0x24A7 JUMPI DUP3 SWAP1 SUB PUSH1 0x1F AND DUP3 ADD SWAP2 JUMPDEST POP POP POP POP POP SWAP1 POP DUP14 JUMP JUMPDEST PUSH1 0x2 SLOAD PUSH1 0x40 DUP1 MLOAD PUSH4 0xA217FDDF PUSH1 0xE0 SHL DUP2 MSTORE SWAP1 MLOAD PUSH1 0x1 PUSH1 0x1 PUSH1 0xA0 SHL SUB SWAP1 SWAP3 AND SWAP2 PUSH4 0x91D14854 SWAP2 DUP4 SWAP2 PUSH4 0xA217FDDF SWAP2 PUSH1 0x4 DUP1 DUP3 ADD SWAP3 PUSH1 0x20 SWAP3 SWAP1 SWAP2 SWAP1 DUP3 SWAP1 SUB ADD DUP2 DUP7 GAS STATICCALL ISZERO DUP1 ISZERO PUSH2 0x2520 JUMPI RETURNDATASIZE PUSH1 0x0 DUP1 RETURNDATACOPY RETURNDATASIZE PUSH1 0x0 REVERT JUMPDEST POP POP POP POP PUSH1 0x40 MLOAD RETURNDATASIZE PUSH1 0x1F NOT PUSH1 0x1F DUP3 ADD AND DUP3 ADD DUP1 PUSH1 0x40 MSTORE POP DUP2 ADD SWAP1 PUSH2 0x2544 SWAP2 SWAP1 PUSH2 0x34E1 JUMP JUMPDEST PUSH1 0x40 MLOAD PUSH1 0x1 PUSH1 0x1 PUSH1 0xE0 SHL SUB NOT PUSH1 0xE0 DUP5 SWAP1 SHL AND DUP2 MSTORE PUSH1 0x4 DUP2 ADD SWAP2 SWAP1 SWAP2 MSTORE CALLER PUSH1 0x24 DUP3 ADD MSTORE PUSH1 0x44 ADD PUSH1 0x20 PUSH1 0x40 MLOAD DUP1 DUP4 SUB DUP2 DUP7 GAS STATICCALL ISZERO DUP1 ISZERO PUSH2 0x2586 JUMPI RETURNDATASIZE PUSH1 0x0 DUP1 RETURNDATACOPY RETURNDATASIZE PUSH1 0x0 REVERT JUMPDEST POP POP POP POP PUSH1 0x40 MLOAD RETURNDATASIZE PUSH1 0x1F NOT PUSH1 0x1F DUP3 ADD AND DUP3 ADD DUP1 PUSH1 0x40 MSTORE POP DUP2 ADD SWAP1 PUSH2 0x25AA SWAP2 SWAP1 PUSH2 0x34FA JUMP JUMPDEST PUSH2 0x25C6 JUMPI PUSH1 0x40 MLOAD PUSH3 0x461BCD PUSH1 0xE5 SHL DUP2 MSTORE PUSH1 0x4 ADD PUSH2 0x5D2 SWAP1 PUSH2 0x3517 JUMP JUMPDEST PUSH1 0x1 PUSH1 0x1 PUSH1 0xA0 SHL SUB DUP2 AND PUSH2 0x261C JUMPI PUSH1 0x40 MLOAD PUSH3 0x461BCD PUSH1 0xE5 SHL DUP2 MSTORE PUSH1 0x20 PUSH1 0x4 DUP3 ADD MSTORE PUSH1 0x1D PUSH1 0x24 DUP3 ADD MSTORE PUSH32 0x496E76616C69642066656520636F6C6C6563746F722061646472657373000000 PUSH1 0x44 DUP3 ADD MSTORE PUSH1 0x64 ADD PUSH2 0x5D2 JUMP JUMPDEST PUSH1 0x6 DUP1 SLOAD PUSH1 0x1 PUSH1 0x1 PUSH1 0xA0 SHL SUB NOT AND PUSH1 0x1 PUSH1 0x1 PUSH1 0xA0 SHL SUB SWAP3 SWAP1 SWAP3 AND SWAP2 SWAP1 SWAP2 OR SWAP1 SSTORE JUMP JUMPDEST PUSH1 0x0 DUP3 DUP2 MSTORE PUSH1 0x7 PUSH1 0x20 MSTORE PUSH1 0x40 SWAP1 KECCAK256 SLOAD DUP3 SWAP1 PUSH1 0x1 PUSH1 0x1 PUSH1 0xA0 SHL SUB AND CALLER EQ DUP1 PUSH2 0x267E JUMPI POP PUSH1 0x0 DUP2 DUP2 MSTORE PUSH1 0x7 PUSH1 0x20 MSTORE PUSH1 0x40 SWAP1 KECCAK256 PUSH1 0x1 ADD SLOAD PUSH1 0x1 PUSH1 0x1 PUSH1 0xA0 SHL SUB AND CALLER EQ JUMPDEST PUSH2 0x269A JUMPI PUSH1 0x40 MLOAD PUSH3 0x461BCD PUSH1 0xE5 SHL DUP2 MSTORE PUSH1 0x4 ADD PUSH2 0x5D2 SWAP1 PUSH2 0x3574 JUMP JUMPDEST PUSH1 0x0 DUP4 DUP2 MSTORE PUSH1 0x7 PUSH1 0x20 MSTORE PUSH1 0x40 SWAP1 KECCAK256 PUSH1 0x1 PUSH1 0x7 DUP3 ADD SLOAD PUSH1 0xFF AND PUSH1 0x5 DUP2 GT ISZERO PUSH2 0x26C3 JUMPI PUSH2 0x26C3 PUSH2 0x2CE4 JUMP JUMPDEST EQ DUP1 PUSH2 0x26E7 JUMPI POP PUSH1 0x2 PUSH1 0x7 DUP3 ADD SLOAD PUSH1 0xFF AND PUSH1 0x5 DUP2 GT ISZERO PUSH2 0x26E5 JUMPI PUSH2 0x26E5 PUSH2 0x2CE4 JUMP JUMPDEST EQ JUMPDEST PUSH2 0x2745 JUMPI PUSH1 0x40 MLOAD PUSH3 0x461BCD PUSH1 0xE5 SHL DUP2 MSTORE PUSH1 0x20 PUSH1 0x4 DUP3 ADD MSTORE PUSH1 0x29 PUSH1 0x24 DUP3 ADD MSTORE PUSH32 0x43616E6E6F7420646973707574652061677265656D656E7420696E2063757272 PUSH1 0x44 DUP3 ADD MSTORE PUSH9 0x656E74207374617465 PUSH1 0xB8 SHL PUSH1 0x64 DUP3 ADD MSTORE PUSH1 0x84 ADD PUSH2 0x5D2 JUMP JUMPDEST PUSH1 0x7 DUP2 ADD DUP1 SLOAD PUSH1 0xFF NOT AND PUSH1 0x3 OR SWAP1 SSTORE PUSH1 0x4 DUP1 SLOAD SWAP1 PUSH1 0x0 PUSH2 0x2764 DUP4 PUSH2 0x35C1 JUMP JUMPDEST SWAP1 SWAP2 SSTORE POP PUSH1 0xA DUP3 ADD DUP2 SWAP1 SSTORE PUSH1 0x40 MLOAD DUP6 SWAP2 PUSH32 0xC7715D701DDCF34EC6CB0BF1D8DF3359F6C48A3D08E8ACD1A06B380A196373DF SWAP2 PUSH2 0x27A2 SWAP2 SWAP1 DUP8 SWAP1 PUSH2 0x36F9 JUMP JUMPDEST PUSH1 0x40 MLOAD DUP1 SWAP2 SUB SWAP1 LOG2 POP POP POP POP JUMP JUMPDEST PUSH1 0x0 DUP3 DUP2 MSTORE PUSH1 0x7 PUSH1 0x20 MSTORE PUSH1 0x40 SWAP1 KECCAK256 PUSH1 0x1 ADD SLOAD DUP3 SWAP1 PUSH1 0x1 PUSH1 0x1 PUSH1 0xA0 SHL SUB AND CALLER EQ PUSH2 0x2827 JUMPI PUSH1 0x40 MLOAD PUSH3 0x461BCD PUSH1 0xE5 SHL DUP2 MSTORE PUSH1 0x20 PUSH1 0x4 DUP3 ADD MSTORE PUSH1 0x23 PUSH1 0x24 DUP3 ADD MSTORE PUSH32 0x4F6E6C792063726561746F722063616E2063616C6C20746869732066756E6374 PUSH1 0x44 DUP3 ADD MSTORE PUSH3 0x34B7B7 PUSH1 0xE9 SHL PUSH1 0x64 DUP3 ADD MSTORE PUSH1 0x84 ADD PUSH2 0x5D2 JUMP JUMPDEST PUSH2 0x282F PUSH2 0x2963 JUMP JUMPDEST PUSH1 0x0 DUP4 DUP2 MSTORE PUSH1 0x7 PUSH1 0x20 MSTORE PUSH1 0x40 SWAP1 KECCAK256 PUSH1 0x1 PUSH1 0x7 DUP3 ADD SLOAD PUSH1 0xFF AND PUSH1 0x5 DUP2 GT ISZERO PUSH2 0x2858 JUMPI PUSH2 0x2858 PUSH2 0x2CE4 JUMP JUMPDEST EQ PUSH2 0x2875 JUMPI PUSH1 0x40 MLOAD PUSH3 0x461BCD PUSH1 0xE5 SHL DUP2 MSTORE PUSH1 0x4 ADD PUSH2 0x5D2 SWAP1 PUSH2 0x33E5 JUMP JUMPDEST PUSH1 0xB DUP2 ADD SLOAD DUP4 LT PUSH2 0x2898 JUMPI PUSH1 0x40 MLOAD PUSH3 0x461BCD PUSH1 0xE5 SHL DUP2 MSTORE PUSH1 0x4 ADD PUSH2 0x5D2 SWAP1 PUSH2 0x341C JUMP JUMPDEST PUSH1 0x0 DUP2 PUSH1 0xB ADD DUP5 DUP2 SLOAD DUP2 LT PUSH2 0x28AF JUMPI PUSH2 0x28AF PUSH2 0x3453 JUMP JUMPDEST PUSH1 0x0 SWAP2 DUP3 MSTORE PUSH1 0x20 DUP3 KECCAK256 PUSH1 0x6 SWAP1 SWAP2 MUL ADD SWAP2 POP PUSH1 0x2 DUP1 DUP4 ADD SLOAD PUSH1 0xFF AND SWAP1 DUP2 GT ISZERO PUSH2 0x28D9 JUMPI PUSH2 0x28D9 PUSH2 0x2CE4 JUMP JUMPDEST EQ PUSH2 0x28F6 JUMPI PUSH1 0x40 MLOAD PUSH3 0x461BCD PUSH1 0xE5 SHL DUP2 MSTORE PUSH1 0x4 ADD PUSH2 0x5D2 SWAP1 PUSH2 0x3469 JUMP JUMPDEST TIMESTAMP PUSH1 0x3 DUP3 ADD SSTORE PUSH1 0x40 MLOAD DUP5 DUP2 MSTORE DUP6 SWAP1 PUSH32 0x1B7218C0AC23EA9CBE4DF603D2B340FBF469A115B73EA3D11460727F445D6BE1 SWAP1 PUSH1 0x20 ADD JUMPDEST PUSH1 0x40 MLOAD DUP1 SWAP2 SUB SWAP1 LOG2 POP POP POP POP POP JUMP JUMPDEST PUSH1 0x2 PUSH1 0x0 SLOAD SUB PUSH2 0x295C JUMPI PUSH1 0x40 MLOAD PUSH4 0x3EE5AEB5 PUSH1 0xE0 SHL DUP2 MSTORE PUSH1 0x4 ADD PUSH1 0x40 MLOAD DUP1 SWAP2 SUB SWAP1 REVERT JUMPDEST PUSH1 0x2 PUSH1 0x0 SSTORE JUMP JUMPDEST PUSH1 0x1 SLOAD PUSH1 0xFF AND ISZERO PUSH2 0xE5D JUMPI PUSH1 0x40 MLOAD PUSH4 0xD93C0665 PUSH1 0xE0 SHL DUP2 MSTORE PUSH1 0x4 ADD PUSH1 0x40 MLOAD DUP1 SWAP2 SUB SWAP1 REVERT JUMPDEST PUSH2 0x298F PUSH2 0x2C1C JUMP JUMPDEST PUSH1 0x1 DUP1 SLOAD PUSH1 0xFF NOT AND SWAP1 SSTORE PUSH32 0x5DB9EE0A495BF2E6FF9C91A7834C1BA4FDD244A5E8AA4E537BD38AEAE4B073AA CALLER JUMPDEST PUSH1 0x40 MLOAD PUSH1 0x1 PUSH1 0x1 PUSH1 0xA0 SHL SUB SWAP1 SWAP2 AND DUP2 MSTORE PUSH1 0x20 ADD PUSH1 0x40 MLOAD DUP1 SWAP2 SUB SWAP1 LOG1 JUMP JUMPDEST PUSH1 0x1 PUSH1 0x1 PUSH1 0xA0 SHL SUB DUP5 AND PUSH1 0x0 SWAP1 DUP2 MSTORE PUSH1 0x9 PUSH1 0x20 MSTORE PUSH1 0x40 SWAP1 KECCAK256 TIMESTAMP PUSH1 0x5 DUP3 ADD SSTORE DUP2 ISZERO PUSH2 0x2A70 JUMPI DUP1 SLOAD DUP2 PUSH1 0x0 PUSH2 0x2A0B DUP4 PUSH2 0x35C1 JUMP JUMPDEST SWAP2 SWAP1 POP SSTORE POP DUP3 DUP2 PUSH1 0x2 ADD PUSH1 0x0 DUP3 DUP3 SLOAD PUSH2 0x2A24 SWAP2 SWAP1 PUSH2 0x33D2 JUMP JUMPDEST SWAP1 SWAP2 SSTORE POP POP PUSH1 0x1 PUSH1 0x1 PUSH1 0xA0 SHL SUB DUP5 AND PUSH1 0x0 SWAP1 DUP2 MSTORE PUSH1 0x6 DUP3 ADD PUSH1 0x20 SWAP1 DUP2 MSTORE PUSH1 0x40 DUP1 DUP4 KECCAK256 DUP1 SLOAD PUSH1 0xFF NOT AND PUSH1 0x1 OR SWAP1 SSTORE PUSH1 0x7 DUP5 ADD SWAP1 SWAP2 MSTORE DUP2 KECCAK256 DUP1 SLOAD SWAP2 PUSH2 0x2A66 DUP4 PUSH2 0x35C1 JUMP JUMPDEST SWAP2 SWAP1 POP SSTORE POP PUSH2 0x2ADF JUMP JUMPDEST DUP1 SLOAD DUP2 PUSH1 0x0 PUSH2 0x2A7E DUP4 PUSH2 0x35C1 JUMP JUMPDEST SWAP2 SWAP1 POP SSTORE POP DUP3 DUP2 PUSH1 0x2 ADD PUSH1 0x0 DUP3 DUP3 SLOAD PUSH2 0x2A97 SWAP2 SWAP1 PUSH2 0x33D2 JUMP JUMPDEST SWAP1 SWAP2 SSTORE POP POP PUSH1 0x1 PUSH1 0x1 PUSH1 0xA0 SHL SUB DUP5 AND PUSH1 0x0 SWAP1 DUP2 MSTORE PUSH1 0x6 DUP3 ADD PUSH1 0x20 SWAP1 DUP2 MSTORE PUSH1 0x40 DUP1 DUP4 KECCAK256 DUP1 SLOAD PUSH1 0xFF NOT AND PUSH1 0x1 OR SWAP1 SSTORE PUSH1 0x7 DUP5 ADD SWAP1 SWAP2 MSTORE DUP2 KECCAK256 DUP1 SLOAD SWAP2 PUSH2 0x2AD9 DUP4 PUSH2 0x35C1 JUMP JUMPDEST SWAP2 SWAP1 POP SSTORE POP JUMPDEST DUP1 SLOAD PUSH1 0x3 DUP3 ADD DUP2 SWAP1 SSTORE PUSH1 0x5 GT ISZERO PUSH2 0x2B0C JUMPI PUSH1 0x4 DUP2 ADD DUP1 SLOAD PUSH1 0x0 SWAP2 SWAP1 PUSH1 0xFF NOT AND PUSH1 0x1 DUP4 JUMPDEST MUL OR SWAP1 SSTORE POP PUSH2 0x2B98 JUMP JUMPDEST DUP1 SLOAD PUSH1 0x14 GT ISZERO PUSH2 0x2B2B JUMPI PUSH1 0x4 DUP2 ADD DUP1 SLOAD PUSH1 0x1 SWAP2 SWAP1 PUSH1 0xFF NOT AND DUP3 DUP1 PUSH2 0x2B02 JUMP JUMPDEST DUP1 SLOAD PUSH1 0x32 GT ISZERO PUSH2 0x2B4B JUMPI PUSH1 0x4 DUP2 ADD DUP1 SLOAD PUSH1 0x2 SWAP2 SWAP1 PUSH1 0xFF NOT AND PUSH1 0x1 DUP4 PUSH2 0x2B02 JUMP JUMPDEST DUP1 SLOAD PUSH1 0x64 GT ISZERO PUSH2 0x2B6B JUMPI PUSH1 0x4 DUP2 ADD DUP1 SLOAD PUSH1 0x3 SWAP2 SWAP1 PUSH1 0xFF NOT AND PUSH1 0x1 DUP4 PUSH2 0x2B02 JUMP JUMPDEST DUP1 SLOAD PUSH1 0xC8 GT ISZERO PUSH2 0x2B88 JUMPI PUSH1 0x4 DUP2 DUP2 ADD DUP1 SLOAD PUSH1 0xFF NOT AND PUSH1 0x1 DUP4 PUSH2 0x2B02 JUMP JUMPDEST PUSH1 0x4 DUP2 ADD DUP1 SLOAD PUSH1 0xFF NOT AND PUSH1 0x5 OR SWAP1 SSTORE JUMPDEST PUSH1 0x3 DUP2 ADD SLOAD PUSH1 0x4 DUP3 ADD SLOAD PUSH1 0x40 MLOAD PUSH1 0x1 PUSH1 0x1 PUSH1 0xA0 SHL SUB DUP9 AND SWAP3 PUSH32 0xD49BB802D2294437ABA1013D21EC2F9A868658FE4EB24C157A3572B8FF1AC2D1 SWAP3 PUSH2 0x292A SWAP3 PUSH1 0xFF SWAP1 SWAP2 AND SWAP1 PUSH2 0x3743 JUMP JUMPDEST PUSH2 0x2BE9 PUSH2 0x2963 JUMP JUMPDEST PUSH1 0x1 DUP1 SLOAD PUSH1 0xFF NOT AND DUP2 OR SWAP1 SSTORE PUSH32 0x62E78CEA01BEE320CD4E420270B5EA74000D11B0C9F74754EBDBFC544B05A258 CALLER PUSH2 0x29BC JUMP JUMPDEST PUSH1 0x1 SLOAD PUSH1 0xFF AND PUSH2 0xE5D JUMPI PUSH1 0x40 MLOAD PUSH4 0x8DFC202B PUSH1 0xE0 SHL DUP2 MSTORE PUSH1 0x4 ADD PUSH1 0x40 MLOAD DUP1 SWAP2 SUB SWAP1 REVERT JUMPDEST PUSH1 0x0 PUSH1 0x20 DUP3 DUP5 SUB SLT ISZERO PUSH2 0x2C51 JUMPI PUSH1 0x0 DUP1 REVERT JUMPDEST POP CALLDATALOAD SWAP2 SWAP1 POP JUMP JUMPDEST PUSH1 0x0 DUP1 PUSH1 0x40 DUP4 DUP6 SUB SLT ISZERO PUSH2 0x2C6B JUMPI PUSH1 0x0 DUP1 REVERT JUMPDEST POP POP DUP1 CALLDATALOAD SWAP3 PUSH1 0x20 SWAP1 SWAP2 ADD CALLDATALOAD SWAP2 POP JUMP JUMPDEST DUP1 CALLDATALOAD PUSH1 0x1 PUSH1 0x1 PUSH1 0xA0 SHL SUB DUP2 AND DUP2 EQ PUSH2 0x2C91 JUMPI PUSH1 0x0 DUP1 REVERT JUMPDEST SWAP2 SWAP1 POP JUMP JUMPDEST PUSH1 0x0 DUP1 PUSH1 0x40 DUP4 DUP6 SUB SLT ISZERO PUSH2 0x2CA9 JUMPI PUSH1 0x0 DUP1 REVERT JUMPDEST DUP3 CALLDATALOAD SWAP2 POP PUSH2 0x2CB9 PUSH1 0x20 DUP5 ADD PUSH2 0x2C7A JUMP JUMPDEST SWAP1 POP SWAP3 POP SWAP3 SWAP1 POP JUMP JUMPDEST PUSH1 0x0 PUSH1 0x20 DUP3 DUP5 SUB SLT ISZERO PUSH2 0x2CD4 JUMPI PUSH1 0x0 DUP1 REVERT JUMPDEST PUSH2 0x2CDD DUP3 PUSH2 0x2C7A JUMP JUMPDEST SWAP4 SWAP3 POP POP POP JUMP JUMPDEST PUSH4 0x4E487B71 PUSH1 0xE0 SHL PUSH1 0x0 MSTORE PUSH1 0x21 PUSH1 0x4 MSTORE PUSH1 0x24 PUSH1 0x0 REVERT JUMPDEST PUSH1 0x6 DUP2 LT PUSH2 0x2D0A JUMPI PUSH2 0x2D0A PUSH2 0x2CE4 JUMP JUMPDEST POP JUMP JUMPDEST PUSH1 0x0 PUSH1 0xC0 DUP3 ADD SWAP1 POP DUP8 DUP3 MSTORE DUP7 PUSH1 0x20 DUP4 ADD MSTORE DUP6 PUSH1 0x40 DUP4 ADD MSTORE DUP5 PUSH1 0x60 DUP4 ADD MSTORE PUSH2 0x2D33 DUP5 PUSH2 0x2CFA JUMP JUMPDEST PUSH1 0x80 DUP3 ADD SWAP4 SWAP1 SWAP4 MSTORE PUSH1 0xA0 ADD MSTORE SWAP5 SWAP4 POP POP POP POP JUMP JUMPDEST PUSH1 0x0 DUP2 MLOAD DUP1 DUP5 MSTORE PUSH1 0x0 JUMPDEST DUP2 DUP2 LT ISZERO PUSH2 0x2D6D JUMPI PUSH1 0x20 DUP2 DUP6 ADD DUP2 ADD MLOAD DUP7 DUP4 ADD DUP3 ADD MSTORE ADD PUSH2 0x2D51 JUMP JUMPDEST POP PUSH1 0x0 PUSH1 0x20 DUP3 DUP7 ADD ADD MSTORE PUSH1 0x20 PUSH1 0x1F NOT PUSH1 0x1F DUP4 ADD AND DUP6 ADD ADD SWAP2 POP POP SWAP3 SWAP2 POP POP JUMP JUMPDEST PUSH2 0x2D96 DUP2 PUSH2 0x2CFA JUMP JUMPDEST SWAP1 MSTORE JUMP JUMPDEST PUSH1 0x1 PUSH1 0x1 PUSH1 0xA0 SHL SUB DUP14 DUP2 AND DUP3 MSTORE DUP13 AND PUSH1 0x20 DUP3 ADD MSTORE PUSH2 0x180 PUSH1 0x40 DUP3 ADD DUP2 SWAP1 MSTORE PUSH1 0x0 SWAP1 PUSH2 0x2DC7 SWAP1 DUP4 ADD DUP14 PUSH2 0x2D47 JUMP JUMPDEST SWAP1 POP DUP11 PUSH1 0x60 DUP4 ADD MSTORE DUP10 PUSH1 0x80 DUP4 ADD MSTORE DUP9 PUSH1 0xA0 DUP4 ADD MSTORE DUP8 PUSH1 0xC0 DUP4 ADD MSTORE PUSH2 0x2DEA DUP8 PUSH2 0x2CFA JUMP JUMPDEST PUSH1 0xE0 DUP3 ADD SWAP7 SWAP1 SWAP7 MSTORE PUSH2 0x100 DUP2 ADD SWAP5 SWAP1 SWAP5 MSTORE PUSH2 0x120 DUP5 ADD SWAP3 SWAP1 SWAP3 MSTORE PUSH2 0x140 DUP4 ADD MSTORE PUSH2 0x160 SWAP1 SWAP2 ADD MSTORE SWAP8 SWAP7 POP POP POP POP POP POP POP JUMP JUMPDEST PUSH4 0x4E487B71 PUSH1 0xE0 SHL PUSH1 0x0 MSTORE PUSH1 0x41 PUSH1 0x4 MSTORE PUSH1 0x24 PUSH1 0x0 REVERT JUMPDEST PUSH1 0x40 MLOAD PUSH1 0x1F DUP3 ADD PUSH1 0x1F NOT AND DUP2 ADD PUSH1 0x1 PUSH1 0x1 PUSH1 0x40 SHL SUB DUP2 GT DUP3 DUP3 LT OR ISZERO PUSH2 0x2E5A JUMPI PUSH2 0x2E5A PUSH2 0x2E1C JUMP JUMPDEST PUSH1 0x40 MSTORE SWAP2 SWAP1 POP JUMP JUMPDEST PUSH1 0x0 DUP1 PUSH1 0x0 DUP1 PUSH1 0x80 DUP6 DUP8 SUB SLT ISZERO PUSH2 0x2E78 JUMPI PUSH1 0x0 DUP1 REVERT JUMPDEST DUP5 CALLDATALOAD SWAP4 POP PUSH1 0x20 DUP6 ADD CALLDATALOAD SWAP3 POP PUSH2 0x2E8F PUSH1 0x40 DUP7 ADD PUSH2 0x2C7A JUMP JUMPDEST SWAP2 POP PUSH1 0x60 DUP6 ADD CALLDATALOAD PUSH1 0x1 PUSH1 0x1 PUSH1 0x40 SHL SUB DUP2 GT ISZERO PUSH2 0x2EAA JUMPI PUSH1 0x0 DUP1 REVERT JUMPDEST DUP6 ADD PUSH1 0x1F DUP2 ADD DUP8 SGT PUSH2 0x2EBB JUMPI PUSH1 0x0 DUP1 REVERT JUMPDEST DUP1 CALLDATALOAD PUSH1 0x1 PUSH1 0x1 PUSH1 0x40 SHL SUB DUP2 GT ISZERO PUSH2 0x2ED4 JUMPI PUSH2 0x2ED4 PUSH2 0x2E1C JUMP JUMPDEST DUP1 PUSH1 0x5 SHL PUSH2 0x2EE4 PUSH1 0x20 DUP3 ADD PUSH2 0x2E32 JUMP JUMPDEST SWAP2 DUP3 MSTORE PUSH1 0x20 DUP2 DUP5 ADD DUP2 ADD SWAP3 SWAP1 DUP2 ADD SWAP1 DUP11 DUP5 GT ISZERO PUSH2 0x2F00 JUMPI PUSH1 0x0 DUP1 REVERT JUMPDEST PUSH1 0x20 DUP6 ADD SWAP5 POP JUMPDEST DUP4 DUP6 LT ISZERO PUSH2 0x2F26 JUMPI DUP5 CALLDATALOAD DUP1 DUP4 MSTORE PUSH1 0x20 SWAP6 DUP7 ADD SWAP6 SWAP1 SWAP4 POP SWAP1 SWAP2 ADD SWAP1 PUSH2 0x2F07 JUMP JUMPDEST SWAP8 SWAP11 SWAP7 SWAP10 POP SWAP5 SWAP8 POP POP POP POP POP POP JUMP JUMPDEST PUSH1 0x0 DUP3 PUSH1 0x1F DUP4 ADD SLT PUSH2 0x2F46 JUMPI PUSH1 0x0 DUP1 REVERT JUMPDEST DUP2 CALLDATALOAD PUSH1 0x1 PUSH1 0x1 PUSH1 0x40 SHL SUB DUP2 GT ISZERO PUSH2 0x2F5F JUMPI PUSH2 0x2F5F PUSH2 0x2E1C JUMP JUMPDEST PUSH2 0x2F72 PUSH1 0x1F DUP3 ADD PUSH1 0x1F NOT AND PUSH1 0x20 ADD PUSH2 0x2E32 JUMP JUMPDEST DUP2 DUP2 MSTORE DUP5 PUSH1 0x20 DUP4 DUP7 ADD ADD GT ISZERO PUSH2 0x2F87 JUMPI PUSH1 0x0 DUP1 REVERT JUMPDEST DUP2 PUSH1 0x20 DUP6 ADD PUSH1 0x20 DUP4 ADD CALLDATACOPY PUSH1 0x0 SWAP2 DUP2 ADD PUSH1 0x20 ADD SWAP2 SWAP1 SWAP2 MSTORE SWAP4 SWAP3 POP POP POP JUMP JUMPDEST DUP1 ISZERO ISZERO DUP2 EQ PUSH2 0x2D0A JUMPI PUSH1 0x0 DUP1 REVERT JUMPDEST PUSH1 0x0 DUP1 PUSH1 0x0 DUP1 PUSH1 0x0 PUSH1 0xA0 DUP7 DUP9 SUB SLT ISZERO PUSH2 0x2FCA JUMPI PUSH1 0x0 DUP1 REVERT JUMPDEST PUSH2 0x2FD3 DUP7 PUSH2 0x2C7A JUMP JUMPDEST SWAP5 POP PUSH1 0x20 DUP7 ADD CALLDATALOAD PUSH1 0x1 PUSH1 0x1 PUSH1 0x40 SHL SUB DUP2 GT ISZERO PUSH2 0x2FEE JUMPI PUSH1 0x0 DUP1 REVERT JUMPDEST PUSH2 0x2FFA DUP9 DUP3 DUP10 ADD PUSH2 0x2F35 JUMP JUMPDEST SWAP5 POP POP PUSH1 0x40 DUP7 ADD CALLDATALOAD SWAP3 POP PUSH1 0x60 DUP7 ADD CALLDATALOAD PUSH2 0x3012 DUP2 PUSH2 0x2FA4 JUMP JUMPDEST SWAP2 POP PUSH1 0x80 DUP7 ADD CALLDATALOAD PUSH1 0x1 PUSH1 0x1 PUSH1 0x40 SHL SUB DUP2 GT ISZERO PUSH2 0x302D JUMPI PUSH1 0x0 DUP1 REVERT JUMPDEST PUSH2 0x3039 DUP9 DUP3 DUP10 ADD PUSH2 0x2F35 JUMP JUMPDEST SWAP2 POP POP SWAP3 SWAP6 POP SWAP3 SWAP6 SWAP1 SWAP4 POP JUMP JUMPDEST PUSH1 0x0 DUP1 PUSH1 0x0 PUSH1 0x60 DUP5 DUP7 SUB SLT ISZERO PUSH2 0x305B JUMPI PUSH1 0x0 DUP1 REVERT JUMPDEST DUP4 CALLDATALOAD SWAP3 POP PUSH1 0x20 DUP5 ADD CALLDATALOAD SWAP2 POP PUSH1 0x40 DUP5 ADD CALLDATALOAD PUSH1 0x1 PUSH1 0x1 PUSH1 0x40 SHL SUB DUP2 GT ISZERO PUSH2 0x307F JUMPI PUSH1 0x0 DUP1 REVERT JUMPDEST PUSH2 0x308B DUP7 DUP3 DUP8 ADD PUSH2 0x2F35 JUMP JUMPDEST SWAP2 POP POP SWAP3 POP SWAP3 POP SWAP3 JUMP JUMPDEST PUSH1 0x3 DUP2 LT PUSH2 0x2D96 JUMPI PUSH2 0x2D96 PUSH2 0x2CE4 JUMP JUMPDEST PUSH1 0x80 DUP2 MSTORE PUSH1 0x0 PUSH2 0x30B8 PUSH1 0x80 DUP4 ADD DUP8 PUSH2 0x2D47 JUMP JUMPDEST SWAP1 POP DUP5 PUSH1 0x20 DUP4 ADD MSTORE PUSH2 0x30CD PUSH1 0x40 DUP4 ADD DUP6 PUSH2 0x3095 JUMP JUMPDEST DUP3 PUSH1 0x60 DUP4 ADD MSTORE SWAP6 SWAP5 POP POP POP POP POP JUMP JUMPDEST PUSH1 0x0 DUP1 PUSH1 0x0 PUSH1 0x60 DUP5 DUP7 SUB SLT ISZERO PUSH2 0x30F1 JUMPI PUSH1 0x0 DUP1 REVERT JUMPDEST DUP4 CALLDATALOAD SWAP3 POP PUSH1 0x20 DUP5 ADD CALLDATALOAD PUSH1 0x1 PUSH1 0x1 PUSH1 0x40 SHL SUB DUP2 GT ISZERO PUSH2 0x310E JUMPI PUSH1 0x0 DUP1 REVERT JUMPDEST PUSH2 0x311A DUP7 DUP3 DUP8 ADD PUSH2 0x2F35 JUMP JUMPDEST SWAP4 SWAP7 SWAP4 SWAP6 POP POP POP POP PUSH1 0x40 SWAP2 SWAP1 SWAP2 ADD CALLDATALOAD SWAP1 JUMP JUMPDEST PUSH1 0x0 DUP2 MLOAD DUP1 DUP5 MSTORE PUSH1 0x20 DUP5 ADD SWAP4 POP PUSH1 0x20 DUP4 ADD PUSH1 0x0 JUMPDEST DUP3 DUP2 LT ISZERO PUSH2 0x315E JUMPI DUP2 MLOAD DUP7 MSTORE PUSH1 0x20 SWAP6 DUP7 ADD SWAP6 SWAP1 SWAP2 ADD SWAP1 PUSH1 0x1 ADD PUSH2 0x3140 JUMP JUMPDEST POP SWAP4 SWAP5 SWAP4 POP POP POP POP JUMP JUMPDEST PUSH1 0x0 DUP2 MLOAD DUP1 DUP5 MSTORE PUSH1 0x20 DUP5 ADD SWAP4 POP PUSH1 0x20 DUP4 ADD PUSH1 0x0 JUMPDEST DUP3 DUP2 LT ISZERO PUSH2 0x315E JUMPI PUSH2 0x318F DUP7 DUP4 MLOAD PUSH2 0x3095 JUMP JUMPDEST PUSH1 0x20 SWAP6 DUP7 ADD SWAP6 SWAP2 SWAP1 SWAP2 ADD SWAP1 PUSH1 0x1 ADD PUSH2 0x317C JUMP JUMPDEST PUSH1 0x0 PUSH1 0x80 DUP3 ADD PUSH1 0x80 DUP4 MSTORE DUP1 DUP8 MLOAD DUP1 DUP4 MSTORE PUSH1 0xA0 DUP6 ADD SWAP2 POP PUSH1 0xA0 DUP2 PUSH1 0x5 SHL DUP7 ADD ADD SWAP3 POP PUSH1 0x20 DUP10 ADD PUSH1 0x0 JUMPDEST DUP3 DUP2 LT ISZERO PUSH2 0x31FB JUMPI PUSH1 0x9F NOT DUP8 DUP7 SUB ADD DUP5 MSTORE PUSH2 0x31E6 DUP6 DUP4 MLOAD PUSH2 0x2D47 JUMP JUMPDEST SWAP5 POP PUSH1 0x20 SWAP4 DUP5 ADD SWAP4 SWAP2 SWAP1 SWAP2 ADD SWAP1 PUSH1 0x1 ADD PUSH2 0x31CA JUMP JUMPDEST POP POP POP POP DUP3 DUP2 SUB PUSH1 0x20 DUP5 ADD MSTORE PUSH2 0x3211 DUP2 DUP8 PUSH2 0x312C JUMP JUMPDEST SWAP1 POP DUP3 DUP2 SUB PUSH1 0x40 DUP5 ADD MSTORE PUSH2 0x3225 DUP2 DUP7 PUSH2 0x3168 JUMP JUMPDEST SWAP1 POP DUP3 DUP2 SUB PUSH1 0x60 DUP5 ADD MSTORE PUSH2 0x3239 DUP2 DUP6 PUSH2 0x312C JUMP JUMPDEST SWAP8 SWAP7 POP POP POP POP POP POP POP JUMP JUMPDEST PUSH1 0x1 PUSH1 0x1 PUSH1 0xA0 SHL SUB DUP15 DUP2 AND DUP3 MSTORE DUP14 AND PUSH1 0x20 DUP3 ADD MSTORE PUSH2 0x1A0 PUSH1 0x40 DUP3 ADD DUP2 SWAP1 MSTORE PUSH1 0x0 SWAP1 PUSH2 0x3271 SWAP1 DUP4 ADD DUP15 PUSH2 0x2D47 JUMP JUMPDEST DUP13 PUSH1 0x60 DUP5 ADD MSTORE DUP12 PUSH1 0x80 DUP5 ADD MSTORE DUP11 PUSH1 0xA0 DUP5 ADD MSTORE DUP10 PUSH1 0xC0 DUP5 ADD MSTORE PUSH2 0x3296 PUSH1 0xE0 DUP5 ADD DUP11 PUSH2 0x2D8D JUMP JUMPDEST DUP8 PUSH2 0x100 DUP5 ADD MSTORE DUP7 PUSH2 0x120 DUP5 ADD MSTORE DUP6 PUSH2 0x140 DUP5 ADD MSTORE PUSH2 0x32BA PUSH2 0x160 DUP5 ADD DUP7 ISZERO ISZERO SWAP1 MSTORE JUMP JUMPDEST DUP3 DUP2 SUB PUSH2 0x180 DUP5 ADD MSTORE PUSH2 0x32CD DUP2 DUP6 PUSH2 0x2D47 JUMP JUMPDEST SWAP2 POP POP SWAP15 SWAP14 POP POP POP POP POP POP POP POP POP POP POP POP POP POP JUMP JUMPDEST PUSH1 0x0 DUP1 PUSH1 0x40 DUP4 DUP6 SUB SLT ISZERO PUSH2 0x32F5 JUMPI PUSH1 0x0 DUP1 REVERT JUMPDEST DUP3 CALLDATALOAD SWAP2 POP PUSH1 0x20 DUP4 ADD CALLDATALOAD PUSH1 0x1 PUSH1 0x1 PUSH1 0x40 SHL SUB DUP2 GT ISZERO PUSH2 0x3312 JUMPI PUSH1 0x0 DUP1 REVERT JUMPDEST PUSH2 0x331E DUP6 DUP3 DUP7 ADD PUSH2 0x2F35 JUMP JUMPDEST SWAP2 POP POP SWAP3 POP SWAP3 SWAP1 POP JUMP JUMPDEST PUSH1 0x20 DUP1 DUP3 MSTORE PUSH1 0x22 SWAP1 DUP3 ADD MSTORE PUSH32 0x4F6E6C7920636C69656E742063616E2063616C6C20746869732066756E637469 PUSH1 0x40 DUP3 ADD MSTORE PUSH2 0x37B7 PUSH1 0xF1 SHL PUSH1 0x60 DUP3 ADD MSTORE PUSH1 0x80 ADD SWAP1 JUMP JUMPDEST PUSH4 0x4E487B71 PUSH1 0xE0 SHL PUSH1 0x0 MSTORE PUSH1 0x11 PUSH1 0x4 MSTORE PUSH1 0x24 PUSH1 0x0 REVERT JUMPDEST DUP1 DUP3 MUL DUP2 ISZERO DUP3 DUP3 DIV DUP5 EQ OR PUSH2 0x3397 JUMPI PUSH2 0x3397 PUSH2 0x336A JUMP JUMPDEST SWAP3 SWAP2 POP POP JUMP JUMPDEST PUSH1 0x0 DUP3 PUSH2 0x33BA JUMPI PUSH4 0x4E487B71 PUSH1 0xE0 SHL PUSH1 0x0 MSTORE PUSH1 0x12 PUSH1 0x4 MSTORE PUSH1 0x24 PUSH1 0x0 REVERT JUMPDEST POP DIV SWAP1 JUMP JUMPDEST DUP2 DUP2 SUB DUP2 DUP2 GT ISZERO PUSH2 0x3397 JUMPI PUSH2 0x3397 PUSH2 0x336A JUMP JUMPDEST DUP1 DUP3 ADD DUP1 DUP3 GT ISZERO PUSH2 0x3397 JUMPI PUSH2 0x3397 PUSH2 0x336A JUMP JUMPDEST PUSH1 0x20 DUP1 DUP3 MSTORE PUSH1 0x1D SWAP1 DUP3 ADD MSTORE PUSH32 0x41677265656D656E74206E6F7420696E2066756E646564207374617465000000 PUSH1 0x40 DUP3 ADD MSTORE PUSH1 0x60 ADD SWAP1 JUMP JUMPDEST PUSH1 0x20 DUP1 DUP3 MSTORE PUSH1 0x17 SWAP1 DUP3 ADD MSTORE PUSH32 0x496E76616C6964206D696C6573746F6E6520696E646578000000000000000000 PUSH1 0x40 DUP3 ADD MSTORE PUSH1 0x60 ADD SWAP1 JUMP JUMPDEST PUSH4 0x4E487B71 PUSH1 0xE0 SHL PUSH1 0x0 MSTORE PUSH1 0x32 PUSH1 0x4 MSTORE PUSH1 0x24 PUSH1 0x0 REVERT JUMPDEST PUSH1 0x20 DUP1 DUP3 MSTORE PUSH1 0x1E SWAP1 DUP3 ADD MSTORE PUSH32 0x4D696C6573746F6E65206E6F7420696E2070656E64696E672073746174650000 PUSH1 0x40 DUP3 ADD MSTORE PUSH1 0x60 ADD SWAP1 JUMP JUMPDEST PUSH1 0x20 DUP1 DUP3 MSTORE PUSH1 0x21 SWAP1 DUP3 ADD MSTORE PUSH32 0x4D696C6573746F6E65206E6F74206D61726B656420617320636F6D706C657465 PUSH1 0x40 DUP3 ADD MSTORE PUSH1 0x19 PUSH1 0xFA SHL PUSH1 0x60 DUP3 ADD MSTORE PUSH1 0x80 ADD SWAP1 JUMP JUMPDEST PUSH1 0x0 PUSH1 0x20 DUP3 DUP5 SUB SLT ISZERO PUSH2 0x34F3 JUMPI PUSH1 0x0 DUP1 REVERT JUMPDEST POP MLOAD SWAP2 SWAP1 POP JUMP JUMPDEST PUSH1 0x0 PUSH1 0x20 DUP3 DUP5 SUB SLT ISZERO PUSH2 0x350C JUMPI PUSH1 0x0 DUP1 REVERT JUMPDEST DUP2 MLOAD PUSH2 0x2CDD DUP2 PUSH2 0x2FA4 JUMP JUMPDEST PUSH1 0x20 DUP1 DUP3 MSTORE PUSH1 0x9 SWAP1 DUP3 ADD MSTORE PUSH9 0x2737BA1030B236B4B7 PUSH1 0xB9 SHL PUSH1 0x40 DUP3 ADD MSTORE PUSH1 0x60 ADD SWAP1 JUMP JUMPDEST PUSH1 0x1 DUP2 DUP2 SHR SWAP1 DUP3 AND DUP1 PUSH2 0x354E JUMPI PUSH1 0x7F DUP3 AND SWAP2 POP JUMPDEST PUSH1 0x20 DUP3 LT DUP2 SUB PUSH2 0x356E JUMPI PUSH4 0x4E487B71 PUSH1 0xE0 SHL PUSH1 0x0 MSTORE PUSH1 0x22 PUSH1 0x4 MSTORE PUSH1 0x24 PUSH1 0x0 REVERT JUMPDEST POP SWAP2 SWAP1 POP JUMP JUMPDEST PUSH1 0x20 DUP1 DUP3 MSTORE PUSH1 0x2D SWAP1 DUP3 ADD MSTORE PUSH32 0x4F6E6C7920636C69656E74206F722063726561746F722063616E2063616C6C20 PUSH1 0x40 DUP3 ADD MSTORE PUSH13 0x3A3434B990333AB731BA34B7B7 PUSH1 0x99 SHL PUSH1 0x60 DUP3 ADD MSTORE PUSH1 0x80 ADD SWAP1 JUMP JUMPDEST PUSH1 0x0 PUSH1 0x1 DUP3 ADD PUSH2 0x35D3 JUMPI PUSH2 0x35D3 PUSH2 0x336A JUMP JUMPDEST POP PUSH1 0x1 ADD SWAP1 JUMP JUMPDEST PUSH1 0x1F DUP3 GT ISZERO PUSH2 0xBDC JUMPI DUP1 PUSH1 0x0 MSTORE PUSH1 0x20 PUSH1 0x0 KECCAK256 PUSH1 0x1F DUP5 ADD PUSH1 0x5 SHR DUP2 ADD PUSH1 0x20 DUP6 LT ISZERO PUSH2 0x3601 JUMPI POP DUP1 JUMPDEST PUSH1 0x1F DUP5 ADD PUSH1 0x5 SHR DUP3 ADD SWAP2 POP JUMPDEST DUP2 DUP2 LT ISZERO PUSH2 0x3621 JUMPI PUSH1 0x0 DUP2 SSTORE PUSH1 0x1 ADD PUSH2 0x360D JUMP JUMPDEST POP POP POP POP POP JUMP JUMPDEST DUP2 MLOAD PUSH1 0x1 PUSH1 0x1 PUSH1 0x40 SHL SUB DUP2 GT ISZERO PUSH2 0x3641 JUMPI PUSH2 0x3641 PUSH2 0x2E1C JUMP JUMPDEST PUSH2 0x3655 DUP2 PUSH2 0x364F DUP5 SLOAD PUSH2 0x353A JUMP JUMPDEST DUP5 PUSH2 0x35DA JUMP JUMPDEST PUSH1 0x20 PUSH1 0x1F DUP3 GT PUSH1 0x1 DUP2 EQ PUSH2 0x3689 JUMPI PUSH1 0x0 DUP4 ISZERO PUSH2 0x3671 JUMPI POP DUP5 DUP3 ADD MLOAD JUMPDEST PUSH1 0x0 NOT PUSH1 0x3 DUP6 SWAP1 SHL SHR NOT AND PUSH1 0x1 DUP5 SWAP1 SHL OR DUP5 SSTORE PUSH2 0x3621 JUMP JUMPDEST PUSH1 0x0 DUP5 DUP2 MSTORE PUSH1 0x20 DUP2 KECCAK256 PUSH1 0x1F NOT DUP6 AND SWAP2 JUMPDEST DUP3 DUP2 LT ISZERO PUSH2 0x36B9 JUMPI DUP8 DUP6 ADD MLOAD DUP3 SSTORE PUSH1 0x20 SWAP5 DUP6 ADD SWAP5 PUSH1 0x1 SWAP1 SWAP3 ADD SWAP2 ADD PUSH2 0x3699 JUMP JUMPDEST POP DUP5 DUP3 LT ISZERO PUSH2 0x36D7 JUMPI DUP7 DUP5 ADD MLOAD PUSH1 0x0 NOT PUSH1 0x3 DUP8 SWAP1 SHL PUSH1 0xF8 AND SHR NOT AND DUP2 SSTORE JUMPDEST POP POP POP POP PUSH1 0x1 SWAP1 DUP2 SHL ADD SWAP1 SSTORE POP JUMP JUMPDEST PUSH1 0x20 DUP2 MSTORE PUSH1 0x0 PUSH2 0x2CDD PUSH1 0x20 DUP4 ADD DUP5 PUSH2 0x2D47 JUMP JUMPDEST DUP3 DUP2 MSTORE PUSH1 0x40 PUSH1 0x20 DUP3 ADD MSTORE PUSH1 0x0 PUSH2 0x3712 PUSH1 0x40 DUP4 ADD DUP5 PUSH2 0x2D47 JUMP JUMPDEST SWAP5 SWAP4 POP POP POP POP JUMP JUMPDEST DUP4 DUP2 MSTORE PUSH1 0x60 PUSH1 0x20 DUP3 ADD MSTORE PUSH1 0x0 PUSH2 0x3733 PUSH1 0x60 DUP4 ADD DUP6 PUSH2 0x2D47 JUMP JUMPDEST SWAP1 POP DUP3 PUSH1 0x40 DUP4 ADD MSTORE SWAP5 SWAP4 POP POP POP POP JUMP JUMPDEST DUP3 DUP2 MSTORE PUSH1 0x40 DUP2 ADD PUSH2 0x3753 DUP4 PUSH2 0x2CFA JUMP JUMPDEST DUP3 PUSH1 0x20 DUP4 ADD MSTORE SWAP4 SWAP3 POP POP POP JUMP INVALID LOG2 PUSH5 0x6970667358 0x22 SLT KECCAK256 NOT LT 0xE1 0xED PUSH7 0x23A768FDBF4751 PUSH26 0xC61E0CACCA917A2947AFED121A818B6222C06964736F6C634300 ADDMOD SHR STOP CALLER "
        },
        "methodIdentifiers": {
          "accessManager()": "fdcb6068",
          "addMilestone(uint256,string,uint256)": "98df912e",
          "agreements(uint256)": "bd14de96",
          "approveMilestone(uint256,uint256)": "20913da5",
          "assignArbitrator(uint256,address)": "260eb725",
          "cancelAgreement(uint256)": "5686b54b",
          "completeMilestone(uint256,uint256)": "f326206b",
          "configManager()": "ca0ab075",
          "createAgreement(address,string,uint256,bool,string)": "57542528",
          "disputeArbitrators(uint256)": "c3242987",
          "feeCollector()": "c415b95c",
          "fundAgreement(uint256)": "0a888fe4",
          "getAgreement(uint256)": "4f9f6fe6",
          "getAllMilestones(uint256)": "a0b2389b",
          "getMilestone(uint256,uint256)": "8ed9895c",
          "getUserReputationScore(address)": "a4e2ea0b",
          "initiateDispute(uint256,string)": "d919ff8a",
          "pause()": "8456cb59",
          "paused()": "5c975abb",
          "platformFeePercent()": "8c639a85",
          "rejectMilestone(uint256,uint256,string)": "6e2a373a",
          "resolveDispute(uint256,uint256,address,uint256[])": "56d45466",
          "unpause()": "3f4ba83a",
          "updateFeeCollector(address)": "d2c35ce8",
          "updatePlatformFee(uint256)": "aa0b5988",
          "userProfiles(address)": "332d56d7"
        }
      }
    }
  }
}