{
  "_format": "hh-sol-artifact-1",
  "contractName": "ConfigManager",
  "sourceName": "contracts/ConfigManager.sol",
  "abi": [
    {
      "inputs": [
        {
          "internalType": "address",
          "name": "accessAddress",
          "type": "address"
        }
      ],
      "stateMutability": "nonpayable",
      "type": "constructor"
    },
    {
      "inputs": [],
      "name": "access",
      "outputs": [
        {
          "internalType": "contract AccessManager",
          "name": "",
          "type": "address"
        }
      ],
      "stateMutability": "view",
      "type": "function"
    },
    {
      "inputs": [
        {
          "internalType": "address",
          "name": "_newAdmin",
          "type": "address"
        }
      ],
      "name": "transferOwnership",
      "outputs": [],
      "stateMutability": "nonpayable",
      "type": "function"
    }
  ],
  "bytecode": "0x6080604052348015600f57600080fd5b5060405161046b38038061046b833981016040819052602c916050565b600080546001600160a01b0319166001600160a01b0392909216919091179055607e565b600060208284031215606157600080fd5b81516001600160a01b0381168114607757600080fd5b9392505050565b6103de8061008d6000396000f3fe608060405234801561001057600080fd5b50600436106100365760003560e01c806371907f171461003b578063f2fde38b1461006a575b600080fd5b60005461004e906001600160a01b031681565b6040516001600160a01b03909116815260200160405180910390f35b61007d61007836600461033d565b61007f565b005b6000546040805163a217fddf60e01b815290516001600160a01b03909216916391d1485491839163a217fddf916004808201926020929091908290030181865afa1580156100d1573d6000803e3d6000fd5b505050506040513d601f19601f820116820180604052508101906100f5919061036d565b6040516001600160e01b031960e084901b1681526004810191909152336024820152604401602060405180830381865afa158015610137573d6000803e3d6000fd5b505050506040513d601f19601f8201168201806040525081019061015b9190610386565b6101975760405162461bcd60e51b81526020600482015260096024820152682737ba1030b236b4b760b91b604482015260640160405180910390fd5b6000546040805163a217fddf60e01b815290516001600160a01b0390921691632f2ff15d91839163a217fddf916004808201926020929091908290030181865afa1580156101e9573d6000803e3d6000fd5b505050506040513d601f19601f8201168201806040525081019061020d919061036d565b6040516001600160e01b031960e084901b16815260048101919091526001600160a01b0384166024820152604401600060405180830381600087803b15801561025557600080fd5b505af1158015610269573d6000803e3d6000fd5b50506000546040805163a217fddf60e01b815290516001600160a01b03909216935063d547741f9250839163a217fddf916004808201926020929091908290030181865afa1580156102bf573d6000803e3d6000fd5b505050506040513d601f19601f820116820180604052508101906102e3919061036d565b6040516001600160e01b031960e084901b1681526004810191909152336024820152604401600060405180830381600087803b15801561032257600080fd5b505af1158015610336573d6000803e3d6000fd5b5050505050565b60006020828403121561034f57600080fd5b81356001600160a01b038116811461036657600080fd5b9392505050565b60006020828403121561037f57600080fd5b5051919050565b60006020828403121561039857600080fd5b8151801515811461036657600080fdfea2646970667358221220476a0a0e10f008d6d19a9212eda03064183dfdc209266ae8d3f81072230f1e7f64736f6c634300081c0033",
  "linkReferences": {},
  "deployedLinkReferences": {}
}