{
  "_format": "hh-sol-artifact-1",
  "contractName": "Escrow",
  "sourceName": "contracts/Escrow.sol",
  "abi": [
    {
      "inputs": [
        {
          "internalType": "address",
          "name": "_accessManager",
          "type": "address"
        }
      ],
      "stateMutability": "nonpayable",
      "type": "constructor"
    },
    {
      "inputs": [],
      "name": "EnforcedPause",
      "type": "error"
    },
    {
      "inputs": [],
      "name": "ExpectedPause",
      "type": "error"
    },
    {
      "inputs": [],
      "name": "ReentrancyGuardReentrantCall",
      "type": "error"
    },
    {
      "anonymous": false,
      "inputs": [
        {
          "indexed": true,
          "internalType": "uint256",
          "name": "agreementId",
          "type": "uint256"
        }
      ],
      "name": "AgreementCancelled",
      "type": "event"
    },
    {
      "anonymous": false,
      "inputs": [
        {
          "indexed": true,
          "internalType": "uint256",
          "name": "agreementId",
          "type": "uint256"
        },
        {
          "indexed": true,
          "internalType": "address",
          "name": "client",
          "type": "address"
        },
        {
          "indexed": true,
          "internalType": "address",
          "name": "creator",
          "type": "address"
        },
        {
          "indexed": false,
          "internalType": "uint256",
          "name": "totalAmount",
          "type": "uint256"
        }
      ],
      "name": "AgreementCreated",
      "type": "event"
    },
    {
      "anonymous": false,
      "inputs": [
        {
          "indexed": true,
          "internalType": "uint256",
          "name": "agreementId",
          "type": "uint256"
        },
        {
          "indexed": false,
          "internalType": "uint256",
          "name": "disputeId",
          "type": "uint256"
        },
        {
          "indexed": false,
          "internalType": "string",
          "name": "reason",
          "type": "string"
        }
      ],
      "name": "AgreementDisputed",
      "type": "event"
    },
    {
      "anonymous": false,
      "inputs": [
        {
          "indexed": true,
          "internalType": "uint256",
          "name": "agreementId",
          "type": "uint256"
        },
        {
          "indexed": false,
          "internalType": "uint256",
          "name": "amount",
          "type": "uint256"
        }
      ],
      "name": "AgreementFunded",
      "type": "event"
    },
    {
      "anonymous": false,
      "inputs": [
        {
          "indexed": true,
          "internalType": "uint256",
          "name": "disputeId",
          "type": "uint256"
        },
        {
          "indexed": false,
          "internalType": "uint256",
          "name": "agreementId",
          "type": "uint256"
        },
        {
          "indexed": false,
          "internalType": "address",
          "name": "winner",
          "type": "address"
        }
      ],
      "name": "DisputeResolved",
      "type": "event"
    },
    {
      "anonymous": false,
      "inputs": [
        {
          "indexed": true,
          "internalType": "uint256",
          "name": "agreementId",
          "type": "uint256"
        },
        {
          "indexed": false,
          "internalType": "uint256",
          "name": "amount",
          "type": "uint256"
        },
        {
          "indexed": false,
          "internalType": "address",
          "name": "recipient",
          "type": "address"
        }
      ],
      "name": "FundsReleased",
      "type": "event"
    },
    {
      "anonymous": false,
      "inputs": [
        {
          "indexed": true,
          "internalType": "uint256",
          "name": "agreementId",
          "type": "uint256"
        },
        {
          "indexed": false,
          "internalType": "uint256",
          "name": "milestoneIndex",
          "type": "uint256"
        },
        {
          "indexed": false,
          "internalType": "string",
          "name": "description",
          "type": "string"
        },
        {
          "indexed": false,
          "internalType": "uint256",
          "name": "amount",
          "type": "uint256"
        }
      ],
      "name": "MilestoneAdded",
      "type": "event"
    },
    {
      "anonymous": false,
      "inputs": [
        {
          "indexed": true,
          "internalType": "uint256",
          "name": "agreementId",
          "type": "uint256"
        },
        {
          "indexed": false,
          "internalType": "uint256",
          "name": "milestoneIndex",
          "type": "uint256"
        }
      ],
      "name": "MilestoneApproved",
      "type": "event"
    },
    {
      "anonymous": false,
      "inputs": [
        {
          "indexed": true,
          "internalType": "uint256",
          "name": "agreementId",
          "type": "uint256"
        },
        {
          "indexed": false,
          "internalType": "uint256",
          "name": "milestoneIndex",
          "type": "uint256"
        }
      ],
      "name": "MilestoneCompleted",
      "type": "event"
    },
    {
      "anonymous": false,
      "inputs": [
        {
          "indexed": true,
          "internalType": "uint256",
          "name": "agreementId",
          "type": "uint256"
        },
        {
          "indexed": false,
          "internalType": "uint256",
          "name": "milestoneIndex",
          "type": "uint256"
        },
        {
          "indexed": false,
          "internalType": "string",
          "name": "reason",
          "type": "string"
        }
      ],
      "name": "MilestoneRejected",
      "type": "event"
    },
    {
      "anonymous": false,
      "inputs": [
        {
          "indexed": false,
          "internalType": "address",
          "name": "account",
          "type": "address"
        }
      ],
      "name": "Paused",
      "type": "event"
    },
    {
      "anonymous": false,
      "inputs": [
        {
          "indexed": true,
          "internalType": "uint256",
          "name": "agreementId",
          "type": "uint256"
        },
        {
          "indexed": false,
          "internalType": "string",
          "name": "telegramChatId",
          "type": "string"
        }
      ],
      "name": "TelegramDealCreated",
      "type": "event"
    },
    {
      "anonymous": false,
      "inputs": [
        {
          "indexed": false,
          "internalType": "address",
          "name": "account",
          "type": "address"
        }
      ],
      "name": "Unpaused",
      "type": "event"
    },
    {
      "anonymous": false,
      "inputs": [
        {
          "indexed": true,
          "internalType": "address",
          "name": "user",
          "type": "address"
        },
        {
          "indexed": false,
          "internalType": "uint256",
          "name": "reputationScore",
          "type": "uint256"
        },
        {
          "indexed": false,
          "internalType": "enum Escrow.BadgeLevel",
          "name": "badgeLevel",
          "type": "uint8"
        }
      ],
      "name": "UserProfileUpdated",
      "type": "event"
    },
    {
      "inputs": [],
      "name": "accessManager",
      "outputs": [
        {
          "internalType": "contract AccessManager",
          "name": "",
          "type": "address"
        }
      ],
      "stateMutability": "view",
      "type": "function"
    },
    {
      "inputs": [
        {
          "internalType": "uint256",
          "name": "_agreementId",
          "type": "uint256"
        },
        {
          "internalType": "string",
          "name": "_description",
          "type": "string"
        },
        {
          "internalType": "uint256",
          "name": "_amount",
          "type": "uint256"
        }
      ],
      "name": "addMilestone",
      "outputs": [],
      "stateMutability": "nonpayable",
      "type": "function"
    },
    {
      "inputs": [
        {
          "internalType": "uint256",
          "name": "",
          "type": "uint256"
        }
      ],
      "name": "agreements",
      "outputs": [
        {
          "internalType": "address",
          "name": "client",
          "type": "address"
        },
        {
          "internalType": "address",
          "name": "creator",
          "type": "address"
        },
        {
          "internalType": "string",
          "name": "description",
          "type": "string"
        },
        {
          "internalType": "uint256",
          "name": "totalAmount",
          "type": "uint256"
        },
        {
          "internalType": "uint256",
          "name": "platformFee",
          "type": "uint256"
        },
        {
          "internalType": "uint256",
          "name": "createdAt",
          "type": "uint256"
        },
        {
          "internalType": "uint256",
          "name": "deadline",
          "type": "uint256"
        },
        {
          "internalType": "enum Escrow.AgreementStatus",
          "name": "status",
          "type": "uint8"
        },
        {
          "internalType": "uint256",
          "name": "fundedAmount",
          "type": "uint256"
        },
        {
          "internalType": "uint256",
          "name": "releasedAmount",
          "type": "uint256"
        },
        {
          "internalType": "uint256",
          "name": "disputeId",
          "type": "uint256"
        },
        {
          "internalType": "bool",
          "name": "isTelegramDeal",
          "type": "bool"
        },
        {
          "internalType": "string",
          "name": "telegramChatId",
          "type": "string"
        }
      ],
      "stateMutability": "view",
      "type": "function"
    },
    {
      "inputs": [
        {
          "internalType": "uint256",
          "name": "_agreementId",
          "type": "uint256"
        },
        {
          "internalType": "uint256",
          "name": "_milestoneIndex",
          "type": "uint256"
        }
      ],
      "name": "approveMilestone",
      "outputs": [],
      "stateMutability": "nonpayable",
      "type": "function"
    },
    {
      "inputs": [
        {
          "internalType": "uint256",
          "name": "_disputeId",
          "type": "uint256"
        },
        {
          "internalType": "address",
          "name": "_arbitrator",
          "type": "address"
        }
      ],
      "name": "assignArbitrator",
      "outputs": [],
      "stateMutability": "nonpayable",
      "type": "function"
    },
    {
      "inputs": [
        {
          "internalType": "uint256",
          "name": "_agreementId",
          "type": "uint256"
        }
      ],
      "name": "cancelAgreement",
      "outputs": [],
      "stateMutability": "nonpayable",
      "type": "function"
    },
    {
      "inputs": [
        {
          "internalType": "uint256",
          "name": "_agreementId",
          "type": "uint256"
        },
        {
          "internalType": "uint256",
          "name": "_milestoneIndex",
          "type": "uint256"
        }
      ],
      "name": "completeMilestone",
      "outputs": [],
      "stateMutability": "nonpayable",
      "type": "function"
    },
    {
      "inputs": [],
      "name": "configManager",
      "outputs": [
        {
          "internalType": "contract ConfigManager",
          "name": "",
          "type": "address"
        }
      ],
      "stateMutability": "view",
      "type": "function"
    },
    {
      "inputs": [
        {
          "internalType": "address",
          "name": "_creator",
          "type": "address"
        },
        {
          "internalType": "string",
          "name": "_description",
          "type": "string"
        },
        {
          "internalType": "uint256",
          "name": "_deadline",
          "type": "uint256"
        },
        {
          "internalType": "bool",
          "name": "_isTelegramDeal",
          "type": "bool"
        },
        {
          "internalType": "string",
          "name": "_telegramChatId",
          "type": "string"
        }
      ],
      "name": "createAgreement",
      "outputs": [
        {
          "internalType": "uint256",
          "name": "",
          "type": "uint256"
        }
      ],
      "stateMutability": "nonpayable",
      "type": "function"
    },
    {
      "inputs": [
        {
          "internalType": "uint256",
          "name": "",
          "type": "uint256"
        }
      ],
      "name": "disputeArbitrators",
      "outputs": [
        {
          "internalType": "address",
          "name": "",
          "type": "address"
        }
      ],
      "stateMutability": "view",
      "type": "function"
    },
    {
      "inputs": [],
      "name": "feeCollector",
      "outputs": [
        {
          "internalType": "address",
          "name": "",
          "type": "address"
        }
      ],
      "stateMutability": "view",
      "type": "function"
    },
    {
      "inputs": [
        {
          "internalType": "uint256",
          "name": "_agreementId",
          "type": "uint256"
        }
      ],
      "name": "fundAgreement",
      "outputs": [],
      "stateMutability": "payable",
      "type": "function"
    },
    {
      "inputs": [
        {
          "internalType": "uint256",
          "name": "_agreementId",
          "type": "uint256"
        }
      ],
      "name": "getAgreement",
      "outputs": [
        {
          "internalType": "address",
          "name": "client",
          "type": "address"
        },
        {
          "internalType": "address",
          "name": "creator",
          "type": "address"
        },
        {
          "internalType": "string",
          "name": "description",
          "type": "string"
        },
        {
          "internalType": "uint256",
          "name": "totalAmount",
          "type": "uint256"
        },
        {
          "internalType": "uint256",
          "name": "platformFee",
          "type": "uint256"
        },
        {
          "internalType": "uint256",
          "name": "createdAt",
          "type": "uint256"
        },
        {
          "internalType": "uint256",
          "name": "deadline",
          "type": "uint256"
        },
        {
          "internalType": "enum Escrow.AgreementStatus",
          "name": "status",
          "type": "uint8"
        },
        {
          "internalType": "uint256",
          "name": "fundedAmount",
          "type": "uint256"
        },
        {
          "internalType": "uint256",
          "name": "releasedAmount",
          "type": "uint256"
        },
        {
          "internalType": "uint256",
          "name": "disputeId",
          "type": "uint256"
        },
        {
          "internalType": "uint256",
          "name": "milestonesCount",
          "type": "uint256"
        }
      ],
      "stateMutability": "view",
      "type": "function"
    },
    {
      "inputs": [
        {
          "internalType": "uint256",
          "name": "_agreementId",
          "type": "uint256"
        }
      ],
      "name": "getAllMilestones",
      "outputs": [
        {
          "internalType": "string[]",
          "name": "descriptions",
          "type": "string[]"
        },
        {
          "internalType": "uint256[]",
          "name": "amounts",
          "type": "uint256[]"
        },
        {
          "internalType": "enum Escrow.MilestoneStatus[]",
          "name": "statuses",
          "type": "uint8[]"
        },
        {
          "internalType": "uint256[]",
          "name": "completionTimes",
          "type": "uint256[]"
        }
      ],
      "stateMutability": "view",
      "type": "function"
    },
    {
      "inputs": [
        {
          "internalType": "uint256",
          "name": "_agreementId",
          "type": "uint256"
        },
        {
          "internalType": "uint256",
          "name": "_milestoneIndex",
          "type": "uint256"
        }
      ],
      "name": "getMilestone",
      "outputs": [
        {
          "internalType": "string",
          "name": "description",
          "type": "string"
        },
        {
          "internalType": "uint256",
          "name": "amount",
          "type": "uint256"
        },
        {
          "internalType": "enum Escrow.MilestoneStatus",
          "name": "status",
          "type": "uint8"
        },
        {
          "internalType": "uint256",
          "name": "completionTime",
          "type": "uint256"
        }
      ],
      "stateMutability": "view",
      "type": "function"
    },
    {
      "inputs": [
        {
          "internalType": "address",
          "name": "user",
          "type": "address"
        }
      ],
      "name": "getUserReputationScore",
      "outputs": [
        {
          "internalType": "uint256",
          "name": "",
          "type": "uint256"
        }
      ],
      "stateMutability": "view",
      "type": "function"
    },
    {
      "inputs": [
        {
          "internalType": "uint256",
          "name": "_agreementId",
          "type": "uint256"
        },
        {
          "internalType": "string",
          "name": "_reason",
          "type": "string"
        }
      ],
      "name": "initiateDispute",
      "outputs": [],
      "stateMutability": "nonpayable",
      "type": "function"
    },
    {
      "inputs": [],
      "name": "pause",
      "outputs": [],
      "stateMutability": "nonpayable",
      "type": "function"
    },
    {
      "inputs": [],
      "name": "paused",
      "outputs": [
        {
          "internalType": "bool",
          "name": "",
          "type": "bool"
        }
      ],
      "stateMutability": "view",
      "type": "function"
    },
    {
      "inputs": [],
      "name": "platformFeePercent",
      "outputs": [
        {
          "internalType": "uint256",
          "name": "",
          "type": "uint256"
        }
      ],
      "stateMutability": "view",
      "type": "function"
    },
    {
      "inputs": [
        {
          "internalType": "uint256",
          "name": "_agreementId",
          "type": "uint256"
        },
        {
          "internalType": "uint256",
          "name": "_milestoneIndex",
          "type": "uint256"
        },
        {
          "internalType": "string",
          "name": "_reason",
          "type": "string"
        }
      ],
      "name": "rejectMilestone",
      "outputs": [],
      "stateMutability": "nonpayable",
      "type": "function"
    },
    {
      "inputs": [
        {
          "internalType": "uint256",
          "name": "_disputeId",
          "type": "uint256"
        },
        {
          "internalType": "uint256",
          "name": "_agreementId",
          "type": "uint256"
        },
        {
          "internalType": "address",
          "name": "_winner",
          "type": "address"
        },
        {
          "internalType": "uint256[]",
          "name": "_refundAmounts",
          "type": "uint256[]"
        }
      ],
      "name": "resolveDispute",
      "outputs": [],
      "stateMutability": "nonpayable",
      "type": "function"
    },
    {
      "inputs": [],
      "name": "unpause",
      "outputs": [],
      "stateMutability": "nonpayable",
      "type": "function"
    },
    {
      "inputs": [
        {
          "internalType": "address",
          "name": "_newFeeCollector",
          "type": "address"
        }
      ],
      "name": "updateFeeCollector",
      "outputs": [],
      "stateMutability": "nonpayable",
      "type": "function"
    },
    {
      "inputs": [
        {
          "internalType": "uint256",
          "name": "_newFeePercent",
          "type": "uint256"
        }
      ],
      "name": "updatePlatformFee",
      "outputs": [],
      "stateMutability": "nonpayable",
      "type": "function"
    },
    {
      "inputs": [
        {
          "internalType": "address",
          "name": "",
          "type": "address"
        }
      ],
      "name": "userProfiles",
      "outputs": [
        {
          "internalType": "uint256",
          "name": "totalDeals",
          "type": "uint256"
        },
        {
          "internalType": "uint256",
          "name": "successfulDeals",
          "type": "uint256"
        },
        {
          "internalType": "uint256",
          "name": "totalVolume",
          "type": "uint256"
        },
        {
          "internalType": "uint256",
          "name": "reputationScore",
          "type": "uint256"
        },
        {
          "internalType": "enum Escrow.BadgeLevel",
          "name": "badgeLevel",
          "type": "uint8"
        },
        {
          "internalType": "uint256",
          "name": "lastActive",
          "type": "uint256"
        }
      ],
      "stateMutability": "view",
      "type": "function"
    }
  ],
  "bytecode": "0x6080604052600160035560016004556002600555348015601e57600080fd5b5060405161385d38038061385d833981016040819052603b91608a565b60016000819055600280546001600160a01b039093166001600160a01b03199384168117909155815461010091909102610100600160a81b0319909116179055600680549091163317905560b8565b600060208284031215609b57600080fd5b81516001600160a01b038116811460b157600080fd5b9392505050565b613796806100c76000396000f3fe6080604052600436106101815760003560e01c80638ed9895c116100d1578063c32429871161008a578063d2c35ce811610064578063d2c35ce81461051a578063d919ff8a1461053a578063f326206b1461055a578063fdcb60681461057a57600080fd5b8063c324298714610487578063c415b95c146104d5578063ca0ab075146104f557600080fd5b80638ed9895c1461037557806398df912e146103a5578063a0b2389b146103c5578063a4e2ea0b146103f5578063aa0b59881461042e578063bd14de961461044e57600080fd5b80635686b54b1161013e5780635c975abb116101185780635c975abb146103075780636e2a373a1461032a5780638456cb591461034a5780638c639a851461035f57600080fd5b80635686b54b1461029957806356d45466146102b957806357542528146102d957600080fd5b80630a888fe41461018657806320913da51461019b578063260eb725146101bb578063332d56d7146101db5780633f4ba83a1461024c5780634f9f6fe614610261575b600080fd5b610199610194366004612c3f565b61059a565b005b3480156101a757600080fd5b506101996101b6366004612c58565b610844565b3480156101c757600080fd5b506101996101d6366004612c96565b610be1565b3480156101e757600080fd5b506102316101f6366004612cc2565b600960205260009081526040902080546001820154600283015460038401546004850154600590950154939492939192909160ff9091169086565b60405161024396959493929190612d0d565b60405180910390f35b34801561025857600080fd5b50610199610d5d565b34801561026d57600080fd5b5061028161027c366004612c3f565b610e5f565b6040516102439c9b9a99989796959493929190612d9a565b3480156102a557600080fd5b506101996102b4366004612c3f565b610fad565b3480156102c557600080fd5b506101996102d4366004612e62565b611272565b3480156102e557600080fd5b506102f96102f4366004612fb2565b611719565b604051908152602001610243565b34801561031357600080fd5b5060015460ff166040519015158152602001610243565b34801561033657600080fd5b50610199610345366004613046565b611915565b34801561035657600080fd5b50610199611a95565b34801561036b57600080fd5b506102f960055481565b34801561038157600080fd5b50610395610390366004612c58565b611b95565b60405161024394939291906130a5565b3480156103b157600080fd5b506101996103c03660046130dc565b611cb5565b3480156103d157600080fd5b506103e56103e0366004612c3f565b611f32565b60405161024394939291906131a2565b34801561040157600080fd5b506102f9610410366004612cc2565b6001600160a01b031660009081526009602052604090206003015490565b34801561043a57600080fd5b50610199610449366004612c3f565b6121ea565b34801561045a57600080fd5b5061046e610469366004612c3f565b612338565b6040516102439d9c9b9a99989796959493929190613244565b34801561049357600080fd5b506104bd6104a2366004612c3f565b6008602052600090815260409020546001600160a01b031681565b6040516001600160a01b039091168152602001610243565b3480156104e157600080fd5b506006546104bd906001600160a01b031681565b34801561050157600080fd5b506001546104bd9061010090046001600160a01b031681565b34801561052657600080fd5b50610199610535366004612cc2565b6124ce565b34801561054657600080fd5b506101996105553660046132e2565b61263e565b34801561056657600080fd5b50610199610575366004612c58565b6127b0565b34801561058657600080fd5b506002546104bd906001600160a01b031681565b60008181526007602052604090205481906001600160a01b031633146105db5760405162461bcd60e51b81526004016105d290613328565b60405180910390fd5b6105e3612939565b6105eb612963565b600082815260076020526040812090600782015460ff16600581111561061357610613612ce4565b148061063757506001600782015460ff16600581111561063557610635612ce4565b145b6106925760405162461bcd60e51b815260206004820152602660248201527f43616e6e6f742066756e642061677265656d656e7420696e2063757272656e7460448201526520737461746560d01b60648201526084016105d2565b600034116106f05760405162461bcd60e51b815260206004820152602560248201527f46756e64696e6720616d6f756e74206d75737420626520677265617465722074604482015264068616e20360dc1b60648201526084016105d2565b60006064600554346107029190613380565b61070c919061339d565b9050600061071a82346133bf565b90508083600801600082825461073091906133d2565b925050819055508183600401600082825461074b91906133d2565b909155505060078301805460ff191660011790556006546040516000916001600160a01b03169084908381818185875af1925050503d80600081146107ac576040519150601f19603f3d011682016040523d82523d6000602084013e6107b1565b606091505b50509050806107f85760405162461bcd60e51b8152602060048201526013602482015272119959481d1c985b9cd9995c8819985a5b1959606a1b60448201526064016105d2565b857fce24c0ae1d73d57cf2e6d1d90b94b11b288e5cfb1c0aa6e7f8ed3391f0c0f0213460405161082a91815260200190565b60405180910390a2505050506108406001600055565b5050565b60008281526007602052604090205482906001600160a01b0316331461087c5760405162461bcd60e51b81526004016105d290613328565b610884612939565b61088c612963565b60008381526007602052604090206001600782015460ff1660058111156108b5576108b5612ce4565b146108d25760405162461bcd60e51b81526004016105d2906133e5565b600b81015483106108f55760405162461bcd60e51b81526004016105d29061341c565b600081600b01848154811061090c5761090c613453565b600091825260208220600690910201915060028083015460ff169081111561093657610936612ce4565b146109535760405162461bcd60e51b81526004016105d290613469565b60008160030154116109775760405162461bcd60e51b81526004016105d2906134a0565b8060010154826008015410156109cf5760405162461bcd60e51b815260206004820152601c60248201527f496e73756666696369656e742066756e647320696e20657363726f770000000060448201526064016105d2565b60028101805460ff191660019081179091558101546008830180546000906109f89084906133bf565b90915550506001810154600983018054600090610a169084906133d2565b9091555050600182810154908201546040516000926001600160a01b031691908381818185875af1925050503d8060008114610a6e576040519150601f19603f3d011682016040523d82523d6000602084013e610a73565b606091505b5050905080610abb5760405162461bcd60e51b8152602060048201526014602482015273119d5b99081d1c985b9cd9995c8819985a5b195960621b60448201526064016105d2565b857f939da3b627c123c81fe5aacebf925163337a0d4f8a03724640618078cad2489486604051610aed91815260200190565b60405180910390a260018281015490840154604080519283526001600160a01b03909116602083015287917f807158a396c8ce26fb6a4a44930e1b49876133ba7806dbaac491ea4713e4515e910160405180910390a2600160005b600b850154811015610ba957600185600b018281548110610b6b57610b6b613453565b60009182526020909120600260069092020181015460ff1690811115610b9357610b93612ce4565b14610ba15760009150610ba9565b600101610b48565b50808015610bb957506008840154155b15610bce5760078401805460ff191660041790555b50505050610bdc6001600055565b505050565b6002546040805163a217fddf60e01b815290516001600160a01b03909216916391d1485491839163a217fddf916004808201926020929091908290030181865afa158015610c33573d6000803e3d6000fd5b505050506040513d601f19601f82011682018060405250810190610c5791906134e1565b6040516001600160e01b031960e084901b1681526004810191909152336024820152604401602060405180830381865afa158015610c99573d6000803e3d6000fd5b505050506040513d601f19601f82011682018060405250810190610cbd91906134fa565b610cd95760405162461bcd60e51b81526004016105d290613517565b6001600160a01b038116610d2f5760405162461bcd60e51b815260206004820152601a60248201527f496e76616c69642061726269747261746f72206164647265737300000000000060448201526064016105d2565b60009182526008602052604090912080546001600160a01b0319166001600160a01b03909216919091179055565b6002546040805163a217fddf60e01b815290516001600160a01b03909216916391d1485491839163a217fddf916004808201926020929091908290030181865afa158015610daf573d6000803e3d6000fd5b505050506040513d601f19601f82011682018060405250810190610dd391906134e1565b6040516001600160e01b031960e084901b1681526004810191909152336024820152604401602060405180830381865afa158015610e15573d6000803e3d6000fd5b505050506040513d601f19601f82011682018060405250810190610e3991906134fa565b610e555760405162461bcd60e51b81526004016105d290613517565b610e5d612987565b565b6000806060600080600080600080600080600080600760008f815260200190815260200160002090508060000160009054906101000a90046001600160a01b03168160010160009054906101000a90046001600160a01b03168260020183600301548460040154856005015486600601548760070160009054906101000a900460ff16886008015489600901548a600a01548b600b0180549050898054610f059061353a565b80601f0160208091040260200160405190810160405280929190818152602001828054610f319061353a565b8015610f7e5780601f10610f5357610100808354040283529160200191610f7e565b820191906000526020600020905b815481529060010190602001808311610f6157829003601f168201915b505050505099509c509c509c509c509c509c509c509c509c509c509c509c505091939597999b5091939597999b565b60008181526007602052604090205481906001600160a01b0316331480610fed57506000818152600760205260409020600101546001600160a01b031633145b6110095760405162461bcd60e51b81526004016105d290613574565b611011612963565b600082815260076020526040812090600782015460ff16600581111561103957611039612ce4565b148061105d57506001600782015460ff16600581111561105b5761105b612ce4565b145b6110ba5760405162461bcd60e51b815260206004820152602860248201527f43616e6e6f742063616e63656c2061677265656d656e7420696e2063757272656044820152676e7420737461746560c01b60648201526084016105d2565b6000805b600b83015481101561111f57600183600b0182815481106110e1576110e1613453565b60009182526020909120600260069092020181015460ff169081111561110957611109612ce4565b03611117576001915061111f565b6001016110be565b5080156111875760405162461bcd60e51b815260206004820152603060248201527f43616e6e6f742063616e63656c2061677265656d656e7420776974682061707060448201526f726f766564206d696c6573746f6e657360801b60648201526084016105d2565b60088201541561123257815460088301546040516000926001600160a01b031691908381818185875af1925050503d80600081146111e1576040519150601f19603f3d011682016040523d82523d6000602084013e6111e6565b606091505b50509050806112305760405162461bcd60e51b81526020600482015260166024820152751499599d5b99081d1c985b9cd9995c8819985a5b195960521b60448201526064016105d2565b505b60078201805460ff1916600517905560405184907f0cae0523c4d6568388c55dcaeb921d927527a60000ca46adffedddf87225f0ec90600090a250505050565b600254604051639f6bd2a960e01b815233600482015285916001600160a01b031690639f6bd2a990602401602060405180830381865afa1580156112ba573d6000803e3d6000fd5b505050506040513d601f19601f820116820180604052508101906112de91906134fa565b61131e5760405162461bcd60e51b81526020600482015260116024820152702737ba1030b71030b93134ba3930ba37b960791b60448201526064016105d2565b60008481526007602052604090206003600782015460ff16600581111561134757611347612ce4565b146113945760405162461bcd60e51b815260206004820152601f60248201527f41677265656d656e74206e6f7420696e2064697370757465642073746174650060448201526064016105d2565b8581600a0154146113dd5760405162461bcd60e51b8152602060048201526013602482015272088d2e6e0eae8ca40928840dad2e6dac2e8c6d606b1b60448201526064016105d2565b80546001600160a01b0385811691161480611407575060018101546001600160a01b038581169116145b6114535760405162461bcd60e51b815260206004820181905260248201527f57696e6e6572206d75737420626520636c69656e74206f722063726561746f7260448201526064016105d2565b6000805b845181101561148f5784818151811061147257611472613453565b60200260200101518261148591906133d2565b9150600101611457565b5081600801548111156114f25760405162461bcd60e51b815260206004820152602560248201527f526566756e6420616d6f756e74206578636565647320617661696c61626c652060448201526466756e647360d81b60648201526084016105d2565b81546001600160a01b03908116908616036115c25781546040516000916001600160a01b03169083908381818185875af1925050503d8060008114611553576040519150601f19603f3d011682016040523d82523d6000602084013e611558565b606091505b50509050806115a25760405162461bcd60e51b81526020600482015260166024820152751499599d5b99081d1c985b9cd9995c8819985a5b195960521b60448201526064016105d2565b818360080160008282546115b691906133bf565b9091555061169d915050565b60018201546040516000916001600160a01b03169083908381818185875af1925050503d8060008114611611576040519150601f19603f3d011682016040523d82523d6000602084013e611616565b606091505b50509050806116675760405162461bcd60e51b815260206004820152601760248201527f5061796d656e74207472616e73666572206661696c656400000000000000000060448201526064016105d2565b8183600801600082825461167b91906133bf565b925050819055508183600901600082825461169691906133d2565b9091555050505b81600801546000036116bd5760078201805460ff191660041790556116cd565b60078201805460ff191660011790555b604080518781526001600160a01b038716602082015288917f653e6c047dd65627873719eef14c02d5e2b4b0b6271f9c9df08fa5b06107d579910160405180910390a250505050505050565b60006001600160a01b0386166117715760405162461bcd60e51b815260206004820152601760248201527f496e76616c69642063726561746f72206164647265737300000000000000000060448201526064016105d2565b336001600160a01b038716036117d75760405162461bcd60e51b815260206004820152602560248201527f436c69656e7420616e642063726561746f722063616e6e6f74206265207468656044820152642073616d6560d81b60648201526084016105d2565b60038054600091826117e8836135c1565b9091555060008181526007602052604090208054336001600160a01b03199182161782556001820180549091166001600160a01b038b16179055909150600281016118338882613628565b504260058201556006810186905560078101805460ff19908116909155600c82018054909116861515179055600d810161186d8582613628565b5061187c3389600060016129d9565b876001600160a01b0316336001600160a01b0316837fa3019c2118d1f0fbc2b78ed5c045ac5b0d67e76749d5dca1d62037c1f15e4b1660006040516118c391815260200190565b60405180910390a4841561190a57817f1aac851516327516022258cf2888076afbb16be0ade1d5e81ada634327fdeb1c8560405161190191906136e6565b60405180910390a25b509695505050505050565b60008381526007602052604090205483906001600160a01b0316331461194d5760405162461bcd60e51b81526004016105d290613328565b611955612963565b60008481526007602052604090206001600782015460ff16600581111561197e5761197e612ce4565b1461199b5760405162461bcd60e51b81526004016105d2906133e5565b600b81015484106119be5760405162461bcd60e51b81526004016105d29061341c565b600081600b0185815481106119d5576119d5613453565b600091825260208220600690910201915060028083015460ff16908111156119ff576119ff612ce4565b14611a1c5760405162461bcd60e51b81526004016105d290613469565b6000816003015411611a405760405162461bcd60e51b81526004016105d2906134a0565b6002818101805460ff19166001830217905550857f2632a738857d774f3179abee0fa205787aea133c8f6d4cbfe4e605028d3e82308686604051611a859291906136f9565b60405180910390a2505050505050565b6002546040805163a217fddf60e01b815290516001600160a01b03909216916391d1485491839163a217fddf916004808201926020929091908290030181865afa158015611ae7573d6000803e3d6000fd5b505050506040513d601f19601f82011682018060405250810190611b0b91906134e1565b6040516001600160e01b031960e084901b1681526004810191909152336024820152604401602060405180830381865afa158015611b4d573d6000803e3d6000fd5b505050506040513d601f19601f82011682018060405250810190611b7191906134fa565b611b8d5760405162461bcd60e51b81526004016105d290613517565b610e5d612be1565b6000828152600760205260408120600b8101546060929182918291908610611bcf5760405162461bcd60e51b81526004016105d29061341c565b600081600b018781548110611be657611be6613453565b906000526020600020906006020190508060000181600101548260020160009054906101000a900460ff168360030154838054611c229061353a565b80601f0160208091040260200160405190810160405280929190818152602001828054611c4e9061353a565b8015611c9b5780601f10611c7057610100808354040283529160200191611c9b565b820191906000526020600020905b815481529060010190602001808311611c7e57829003601f168201915b505050505093509550955095509550505092959194509250565b60008381526007602052604090205483906001600160a01b0316331480611cf557506000818152600760205260409020600101546001600160a01b031633145b611d115760405162461bcd60e51b81526004016105d290613574565b600084815260076020526040812090600782015460ff166005811115611d3957611d39612ce4565b1480611d5d57506001600782015460ff166005811115611d5b57611d5b612ce4565b145b611dc45760405162461bcd60e51b815260206004820152603260248201527f43616e6e6f7420616464206d696c6573746f6e6520746f2061677265656d656e6044820152717420696e2063757272656e7420737461746560701b60648201526084016105d2565b604080516101008101825285815260208082018690526000928201839052606082018390526080820183905260a0820183905260c0820183905260e08201839052600b8401805460018101825590845292208151919283926006909102909101908190611e319082613628565b506020820151816001015560408201518160020160006101000a81548160ff02191690836002811115611e6657611e66612ce4565b021790555060608201516003808301919091556080830151600483015560a08301516005909201805460c085015160e0909501511515620100000262ff0000199515156101000261ff00199515159590951661ffff199092169190911793909317939093169190911790915582018054859190600090611ee79084906133d2565b9091555050600b82015486907fc67423104bf96f5ca8826913ae711e8c2254e1b2c04af907b2312853ed4cbed290611f21906001906133bf565b8787604051611a859392919061371a565b6000818152600760205260409020600b810154606091829182918291806001600160401b03811115611f6657611f66612e1c565b604051908082528060200260200182016040528015611f9957816020015b6060815260200190600190039081611f845790505b509550806001600160401b03811115611fb457611fb4612e1c565b604051908082528060200260200182016040528015611fdd578160200160208202803683370190505b509450806001600160401b03811115611ff857611ff8612e1c565b604051908082528060200260200182016040528015612021578160200160208202803683370190505b509350806001600160401b0381111561203c5761203c612e1c565b604051908082528060200260200182016040528015612065578160200160208202803683370190505b50925060005b818110156121e057600083600b01828154811061208a5761208a613453565b906000526020600020906006020190508060000180546120a99061353a565b80601f01602080910402602001604051908101604052809291908181526020018280546120d59061353a565b80156121225780601f106120f757610100808354040283529160200191612122565b820191906000526020600020905b81548152906001019060200180831161210557829003601f168201915b505050505088838151811061213957612139613453565b6020026020010181905250806001015487838151811061215b5761215b613453565b60209081029190910101526002810154865160ff9091169087908490811061218557612185613453565b6020026020010190600281111561219e5761219e612ce4565b908160028111156121b1576121b1612ce4565b8152505080600301548583815181106121cc576121cc613453565b60209081029190910101525060010161206b565b5050509193509193565b6002546040805163a217fddf60e01b815290516001600160a01b03909216916391d1485491839163a217fddf916004808201926020929091908290030181865afa15801561223c573d6000803e3d6000fd5b505050506040513d601f19601f8201168201806040525081019061226091906134e1565b6040516001600160e01b031960e084901b1681526004810191909152336024820152604401602060405180830381865afa1580156122a2573d6000803e3d6000fd5b505050506040513d601f19601f820116820180604052508101906122c691906134fa565b6122e25760405162461bcd60e51b81526004016105d290613517565b60148111156123335760405162461bcd60e51b815260206004820181905260248201527f4665652070657263656e746167652063616e6e6f74206578636565642032302560448201526064016105d2565b600555565b6007602052600090815260409020805460018201546002830180546001600160a01b0393841694929093169261236d9061353a565b80601f01602080910402602001604051908101604052809291908181526020018280546123999061353a565b80156123e65780601f106123bb576101008083540402835291602001916123e6565b820191906000526020600020905b8154815290600101906020018083116123c957829003601f168201915b5050505050908060030154908060040154908060050154908060060154908060070160009054906101000a900460ff169080600801549080600901549080600a01549080600c0160009054906101000a900460ff169080600d01805461244b9061353a565b80601f01602080910402602001604051908101604052809291908181526020018280546124779061353a565b80156124c45780601f10612499576101008083540402835291602001916124c4565b820191906000526020600020905b8154815290600101906020018083116124a757829003601f168201915b505050505090508d565b6002546040805163a217fddf60e01b815290516001600160a01b03909216916391d1485491839163a217fddf916004808201926020929091908290030181865afa158015612520573d6000803e3d6000fd5b505050506040513d601f19601f8201168201806040525081019061254491906134e1565b6040516001600160e01b031960e084901b1681526004810191909152336024820152604401602060405180830381865afa158015612586573d6000803e3d6000fd5b505050506040513d601f19601f820116820180604052508101906125aa91906134fa565b6125c65760405162461bcd60e51b81526004016105d290613517565b6001600160a01b03811661261c5760405162461bcd60e51b815260206004820152601d60248201527f496e76616c69642066656520636f6c6c6563746f72206164647265737300000060448201526064016105d2565b600680546001600160a01b0319166001600160a01b0392909216919091179055565b60008281526007602052604090205482906001600160a01b031633148061267e57506000818152600760205260409020600101546001600160a01b031633145b61269a5760405162461bcd60e51b81526004016105d290613574565b60008381526007602052604090206001600782015460ff1660058111156126c3576126c3612ce4565b14806126e757506002600782015460ff1660058111156126e5576126e5612ce4565b145b6127455760405162461bcd60e51b815260206004820152602960248201527f43616e6e6f7420646973707574652061677265656d656e7420696e2063757272604482015268656e7420737461746560b81b60648201526084016105d2565b60078101805460ff1916600317905560048054906000612764836135c1565b90915550600a820181905560405185917fc7715d701ddcf34ec6cb0bf1d8df3359f6c48a3d08e8acd1a06b380a196373df916127a2919087906136f9565b60405180910390a250505050565b60008281526007602052604090206001015482906001600160a01b031633146128275760405162461bcd60e51b815260206004820152602360248201527f4f6e6c792063726561746f722063616e2063616c6c20746869732066756e637460448201526234b7b760e91b60648201526084016105d2565b61282f612963565b60008381526007602052604090206001600782015460ff16600581111561285857612858612ce4565b146128755760405162461bcd60e51b81526004016105d2906133e5565b600b81015483106128985760405162461bcd60e51b81526004016105d29061341c565b600081600b0184815481106128af576128af613453565b600091825260208220600690910201915060028083015460ff16908111156128d9576128d9612ce4565b146128f65760405162461bcd60e51b81526004016105d290613469565b42600382015560405184815285907f1b7218c0ac23ea9cbe4df603d2b340fbf469a115b73ea3d11460727f445d6be1906020015b60405180910390a25050505050565b60026000540361295c57604051633ee5aeb560e01b815260040160405180910390fd5b6002600055565b60015460ff1615610e5d5760405163d93c066560e01b815260040160405180910390fd5b61298f612c1c565b6001805460ff191690557f5db9ee0a495bf2e6ff9c91a7834c1ba4fdd244a5e8aa4e537bd38aeae4b073aa335b6040516001600160a01b03909116815260200160405180910390a1565b6001600160a01b03841660009081526009602052604090204260058201558115612a70578054816000612a0b836135c1565b919050555082816002016000828254612a2491906133d2565b90915550506001600160a01b03841660009081526006820160209081526040808320805460ff19166001179055600784019091528120805491612a66836135c1565b9190505550612adf565b8054816000612a7e836135c1565b919050555082816002016000828254612a9791906133d2565b90915550506001600160a01b03841660009081526006820160209081526040808320805460ff19166001179055600784019091528120805491612ad9836135c1565b91905055505b80546003820181905560051115612b0c576004810180546000919060ff19166001835b0217905550612b98565b805460141115612b2b576004810180546001919060ff19168280612b02565b805460321115612b4b576004810180546002919060ff1916600183612b02565b805460641115612b6b576004810180546003919060ff1916600183612b02565b805460c81115612b88576004818101805460ff1916600183612b02565b60048101805460ff191660051790555b600381015460048201546040516001600160a01b038816927fd49bb802d2294437aba1013d21ec2f9a868658fe4eb24c157a3572b8ff1ac2d19261292a9260ff90911690613743565b612be9612963565b6001805460ff1916811790557f62e78cea01bee320cd4e420270b5ea74000d11b0c9f74754ebdbfc544b05a258336129bc565b60015460ff16610e5d57604051638dfc202b60e01b815260040160405180910390fd5b600060208284031215612c5157600080fd5b5035919050565b60008060408385031215612c6b57600080fd5b50508035926020909101359150565b80356001600160a01b0381168114612c9157600080fd5b919050565b60008060408385031215612ca957600080fd5b82359150612cb960208401612c7a565b90509250929050565b600060208284031215612cd457600080fd5b612cdd82612c7a565b9392505050565b634e487b7160e01b600052602160045260246000fd5b60068110612d0a57612d0a612ce4565b50565b600060c082019050878252866020830152856040830152846060830152612d3384612cfa565b608082019390935260a00152949350505050565b6000815180845260005b81811015612d6d57602081850181015186830182015201612d51565b506000602082860101526020601f19601f83011685010191505092915050565b612d9681612cfa565b9052565b6001600160a01b038d811682528c16602082015261018060408201819052600090612dc79083018d612d47565b90508a60608301528960808301528860a08301528760c0830152612dea87612cfa565b60e082019690965261010081019490945261012084019290925261014083015261016090910152979650505050505050565b634e487b7160e01b600052604160045260246000fd5b604051601f8201601f191681016001600160401b0381118282101715612e5a57612e5a612e1c565b604052919050565b60008060008060808587031215612e7857600080fd5b8435935060208501359250612e8f60408601612c7a565b915060608501356001600160401b03811115612eaa57600080fd5b8501601f81018713612ebb57600080fd5b80356001600160401b03811115612ed457612ed4612e1c565b8060051b612ee460208201612e32565b9182526020818401810192908101908a841115612f0057600080fd5b6020850194505b83851015612f2657843580835260209586019590935090910190612f07565b979a9699509497505050505050565b600082601f830112612f4657600080fd5b81356001600160401b03811115612f5f57612f5f612e1c565b612f72601f8201601f1916602001612e32565b818152846020838601011115612f8757600080fd5b816020850160208301376000918101602001919091529392505050565b8015158114612d0a57600080fd5b600080600080600060a08688031215612fca57600080fd5b612fd386612c7a565b945060208601356001600160401b03811115612fee57600080fd5b612ffa88828901612f35565b94505060408601359250606086013561301281612fa4565b915060808601356001600160401b0381111561302d57600080fd5b61303988828901612f35565b9150509295509295909350565b60008060006060848603121561305b57600080fd5b833592506020840135915060408401356001600160401b0381111561307f57600080fd5b61308b86828701612f35565b9150509250925092565b60038110612d9657612d96612ce4565b6080815260006130b86080830187612d47565b90508460208301526130cd6040830185613095565b82606083015295945050505050565b6000806000606084860312156130f157600080fd5b8335925060208401356001600160401b0381111561310e57600080fd5b61311a86828701612f35565b93969395505050506040919091013590565b600081518084526020840193506020830160005b8281101561315e578151865260209586019590910190600101613140565b5093949350505050565b600081518084526020840193506020830160005b8281101561315e5761318f868351613095565b602095860195919091019060010161317c565b6000608082016080835280875180835260a08501915060a08160051b86010192506020890160005b828110156131fb57609f198786030184526131e6858351612d47565b945060209384019391909101906001016131ca565b505050508281036020840152613211818761312c565b905082810360408401526132258186613168565b90508281036060840152613239818561312c565b979650505050505050565b6001600160a01b038e811682528d1660208201526101a0604082018190526000906132719083018e612d47565b8c60608401528b60808401528a60a08401528960c084015261329660e084018a612d8d565b8761010084015286610120840152856101408401526132ba61016084018615159052565b8281036101808401526132cd8185612d47565b9150509e9d5050505050505050505050505050565b600080604083850312156132f557600080fd5b8235915060208301356001600160401b0381111561331257600080fd5b61331e85828601612f35565b9150509250929050565b60208082526022908201527f4f6e6c7920636c69656e742063616e2063616c6c20746869732066756e63746960408201526137b760f11b606082015260800190565b634e487b7160e01b600052601160045260246000fd5b80820281158282048414176133975761339761336a565b92915050565b6000826133ba57634e487b7160e01b600052601260045260246000fd5b500490565b818103818111156133975761339761336a565b808201808211156133975761339761336a565b6020808252601d908201527f41677265656d656e74206e6f7420696e2066756e646564207374617465000000604082015260600190565b60208082526017908201527f496e76616c6964206d696c6573746f6e6520696e646578000000000000000000604082015260600190565b634e487b7160e01b600052603260045260246000fd5b6020808252601e908201527f4d696c6573746f6e65206e6f7420696e2070656e64696e672073746174650000604082015260600190565b60208082526021908201527f4d696c6573746f6e65206e6f74206d61726b656420617320636f6d706c6574656040820152601960fa1b606082015260800190565b6000602082840312156134f357600080fd5b5051919050565b60006020828403121561350c57600080fd5b8151612cdd81612fa4565b6020808252600990820152682737ba1030b236b4b760b91b604082015260600190565b600181811c9082168061354e57607f821691505b60208210810361356e57634e487b7160e01b600052602260045260246000fd5b50919050565b6020808252602d908201527f4f6e6c7920636c69656e74206f722063726561746f722063616e2063616c6c2060408201526c3a3434b990333ab731ba34b7b760991b606082015260800190565b6000600182016135d3576135d361336a565b5060010190565b601f821115610bdc57806000526020600020601f840160051c810160208510156136015750805b601f840160051c820191505b81811015613621576000815560010161360d565b5050505050565b81516001600160401b0381111561364157613641612e1c565b6136558161364f845461353a565b846135da565b6020601f82116001811461368957600083156136715750848201515b600019600385901b1c1916600184901b178455613621565b600084815260208120601f198516915b828110156136b95787850151825560209485019460019092019101613699565b50848210156136d75786840151600019600387901b60f8161c191681555b50505050600190811b01905550565b602081526000612cdd6020830184612d47565b8281526040602082015260006137126040830184612d47565b949350505050565b8381526060602082015260006137336060830185612d47565b9050826040830152949350505050565b8281526040810161375383612cfa565b826020830152939250505056fea26469706673582212201910e1ed6623a768fdbf475179c61e0cacca917a2947afed121a818b6222c06964736f6c634300081c0033",
  "linkReferences": {},
  "deployedLinkReferences": {}
}